:020000040800F2
:10000000C80F002061020008515200085352000836
:1000100055520008575200085952000800000000CD
:100020000000000000000000000000005B5200081B
:100030005D520008000000005F5200086152000895
:100040007B0200087B0200087B0200087B0200089C
:100050007B0200087B0200087B0200087B0200088C
:100060007B0200087B0200087B0200087B0200087C
:100070007B0200087B0200087B0200087B0200086C
:100080007B0200087B0200087B0200087B0200085C
:100090007B0200087B0200087B0200087B0200084C
:1000A0007B0200087B0200087B0200087B0200083C
:1000B0007B0200087B0200087B0200087B0200082C
:1000C0007B0200087B0200087B0200087B0200081C
:1000D0007B0200086F5200087B0200087B020008C8
:1000E0007B0200087B0200087B0200087B020008FC
:1000F0007B0200087B0200087B0200087B020008EC
:100100007B0200087B0200087B0200087B020008DB
:100110007B0200087B0200087B0200087B020008CB
:100120007B0200087B0200087B0200087B020008BB
:100130007B0200087B0200087B0200087B020008AB
:100140007B0200087B0200087B0200087B0200089B
:100150007B0200087B0200087B0200087B0200088B
:100160007B0200087B0200087B0200087B0200087B
:100170007B0200087B0200087B0200087B0200086B
:100180007B0200087B02000800F002F800F059F83A
:100190000AA090E8000C82448344AAF10107DA45E2
:1001A00001D100F04EF8AFF2090EBAE80F0013F0DB
:1001B000010F18BFFB1A43F0010318471484000015
:1001C00034840000103A24BF78C878C1FAD85207A6
:1001D00024BF30C830C144BF04680C6070470000C1
:1001E0000023002400250026103A28BF78C1FBD840
:1001F000520728BF30C148BF0B607047662907F01F
:100200005287642906F07284782906F0AB8463294A
:1002100007F07A80732907F07F80002070471FB5B0
:1002200007F03CFF9DE8030006F0C6FD07F042F929
:1002300004000020002107F01BFFE0601FBD10B587
:1002400010BD07F071FA1146FFF7E9FF04F0F6FE62
:1002500007F08FFA03B4FFF7F2FF03BC06F034FA9D
:100260000948804709480047FEE7FEE7FEE7FEE74A
:10027000FEE7FEE7FEE7FEE7FEE7FEE70448054986
:10028000054A064B70470000A102000889010008DA
:10029000C8090020C80F0020C80B0020C80B002090
:1002A000544810B5016841F470010160524801687A
:1002B00041F001010160504A0021083211600268DA
:1002C0004E4B1A400260031D4D4A1A60026822F428
:1002D0008022026048480C30016000F03CF845493B
:1002E0004FF000608039086010BD70B5424D083590
:1002F0002868444B444910F00C0004D05E100428D8
:1003000003D0082803D00B601BE00E6019E03A4AC6
:10031000121D1068C0F38054106800F03F0014B143
:10032000B6FBF0F001E0B3FBF0F013681268C3F322
:1003300088135843C2F30142521C5200B0FBF2F042
:1003400008602868304AC0F30310121D105C0A6868
:10035000C2400A6070BD0CB500222749009201928C
:10036000086840F4803008604FF4A063086800F427
:10037000003001900098401C0090019810B900983E
:100380009842F3D10868800332D5012001901A48C1
:100390004030026842F0805202601C48026842F419
:1003A00080420260144808300268026002680260FD
:1003B000026842F4A0520260031F154A1A600A68DC
:1003C00042F080720A600A689201FCD5114A40F23C
:1003D00005611160016821F003010160016841F0CD
:1003E000020101600168C1F381010229FAD10CBD4B
:1003F00001920CBD88ED00E000380240FFFFF6FEE0
:10040000103000240024F4000000002000700040A0
:1004100008544007003C0240284908432849086026
:10042000704730B50F23C27801780125FAB1244A0C
:10043000126801F1E02102F4E062C2F5E062C2F369
:100440000722C2F10404D3404278A24084781C40C1
:100450001443220181F80024007800F01F018D4030
:100460004009800000F1E020C0F8005130BD01F0EB
:100470001F0085404809800000F1E020C0F880514D
:1004800030BD104A114001430D48001F0160704704
:100490000B4A121D0029116801D0014300E081437D
:1004A000116070474FF0E0210428086903D020F064
:1004B00004000861704740F00400FAE70000FA0504
:1004C0000CED00E080FFFF1F374900200860091D88
:1004D0000860091D0860091D08603349334814315C
:1004E0000860704730B5304A8379016853B31368A8
:1004F0008B431360111D0B680468A3430B600179E3
:1005000011440B68046823430B60274B08331968B8
:100510000468A14319601C1D21680568A943216076
:100520004179102905D011440A68006802430A6025
:1005300030BD1968026811431960216800680143E1
:10054000216030BD0079104402688A43026030BDEA
:100550000021016001710C224271817170471249C2
:1005600010310A6802430A60704701460E4A0020B3
:10057000143212680A4200D0012070470A4914312F
:1005800008607047084A014600201268064B0A407E
:1005900014331B680B4202D0002A00D001207047A0
:1005A0000149143108607047003C0140FFFF7F00A3
:1005B0008100A1F1C04140B143F2D20008606FF068
:1005C00070404860C1F8040170474FF0204243F288
:1005D000DB001060F3E710B5D0E901121143D0E958
:1005E00003231A4311434269114382691143C269CB
:1005F0001143026A1143426A1143826A1143C26A7B
:100600001143026B114302689200A2F1C0421160D3
:100610008168082907D101688900A1F1C0410A68F1
:1006200042F040020A60416BD1E9002342EA031222
:100630008B688C891B0243EA04431A430B8A42EA03
:1006400003520B7D896942EA03620A43016889000B
:10065000A1F1C0414A60C16AB1F5804F08D000687D
:100660006FF070418000A0F1C040C0F8041110BDCF
:10067000816BD1E9002342EA03128B680C8A1B02CA
:1006800043EA04531A430B7D896942EA0362006816
:100690000A438000A0F1C040C0F8042110BD10B58D
:1006A00000210222C0E900128160C1600161416144
:1006B0008161D202C161C0E908125200C0E90A2179
:1006C0000163436B0F221A60436B5A60446BFF2334
:1006D000A360446BE260446B2261446B6261446BD3
:1006E000A161846B2260846B6260846BA360836B06
:1006F000DA60836B1A61836B5A61806B816110BD14
:100700008000A0F1C0400029016802D041F0010141
:1007100001E0C54A11400160704710B5182340241C
:100720004FF020414FF0FC32102805D041F8803FB7
:100730004C608A60CA6010BD0B664C668A66CA66E9
:1007400010BD30B5D0E901121143D0E903231A439B
:100750001143426941EA4221826941EA423141F052
:100760000804C169D1E9002342EA03220B89097B0D
:100770001B0443EA01610A43016AD1E9003543EAF7
:1007800005230D89097B2D0445EA01610B430168AE
:100790004FF02040102904D040F8804F8260C360A1
:1007A00030BD04668266C36630BD10210160002141
:1007B00041608160C160016141618161C269FC2168
:1007C0001160C2695160C2699160C269D160026AF8
:1007D0001160026A5160026A9160006AC1607047EC
:1007E0004FF0204251B1102804D052F8800F40F051
:1007F00004000AE0106E40F004000AE08A49C91EB5
:10080000102804D052F8800F084010607047106E16
:100810000840106670474FF0204251B1102804D0B4
:1008200052F8800F40F040000AE0106E40F04000A7
:100830000AE07D493F39102804D052F8800F084063
:1008400010607047106E0840106670474FF02041EE
:10085000102802D0D1F894007047486F70474FF0CD
:100860002040182140F8A01F002141604FF0FC31CA
:100870008160C1600161704710B5D0E9001241EAA2
:1008800042218268102343EA423211434FF0204252
:1008900042F8A01FC168D1E9003443EA04230C895F
:1008A000097B240444EA01610B4393600169D1E9A7
:1008B000003443EA04230C89097B240444EA0161DF
:1008C0000B43D3604069D0E9001341EA0321038957
:1008D000007B1B0443EA00600143116110BD00214D
:1008E000016041608160C268FC211160C268516092
:1008F000C2689160C268D16002691160026951608A
:10090000026991600269D160426911604269516077
:10091000426991604069C16070474FF020410028F2
:1009200051F8A00F02D040F0040002E03E4AD21E6F
:1009300010400860704710B54FF480744FF02043AA
:1009400072B1102804D0A04205D153F8840F04E0FE
:10095000586E08430DE053F8A40F0843186010BD0B
:10096000102804D0A04206D153F8840F05E0586E39
:100970008843586610BD53F8A40F8843EEE703463A
:1009800000204FF02042102B08D0B3F5807F07D015
:10099000D2F8A4200A4200D001207047526EF9E735
:1009A000D2F88420F6E74FF02042102807D0B0F5A7
:1009B000807F08D052F8A40F884310607047506EB3
:1009C00088435066704752F8840FF5E703460020CD
:1009D0004FF02042102B0CD0B3F5807F0BD0D2F813
:1009E000A4200A4202EAD10102D0002900D001204D
:1009F0007047526EF5E7D2F88420F2E74FF02042BC
:100A0000102808D0B0F5807F0AD052F8A40F20EA51
:100A1000D10010607047506E20EAD10050667047D8
:100A200052F8840FF3E70000FEFF0F00714910B584
:100A3000884206D10121084600F042FA0021012037
:100A40004FE06D49884206D10121022000F038FABA
:100A50000021022045E06949884206D10121042095
:100A600000F02EFA002104203BE06549884206D1BF
:100A70000121082000F024FA0021082031E061491A
:100A8000884206D10121102000F01AFA002110201E
:100A900027E05D49884206D10121202000F010FAAC
:100AA000002120201DE05949884206D10121402023
:100AB00000F006FA0021402013E05549884206D193
:100AC0000121802000F0FCF90021802009E051493B
:100AD00088420AD184150121204600F0F1F9002155
:100AE0002046BDE8104000F0EBB910BDF0B5002283
:100AF00001274FF0030C0B6807FA02F52B40AB42BD
:100B00002CD1066853000CFA03F4A64306600E7954
:100B1000D0F800E09E4046EA0E0606600E79012EEF
:100B200001D0022E12D18668A64386604E79D0F895
:100B300008E09E4046EA0E0686604668AE43466080
:100B400045688E799640B6B235434560C568A54381
:100B5000C560CC799C40C3681C43C460521C102AF9
:100B6000C9D3F0BD4FF6FF710160002101714171E1
:100B70008171C171704708B541F480320092C26141
:100B8000C1610099C161C169C069009008BD024698
:100B9000002012690A4200D001207047006980B22B
:100BA00070470246002052690A4200D00120704777
:100BB000406980B2704701837047418370470AB132
:100BC00001837047418370474161704742694A40E1
:100BD000426170474B07DB0E9A40C90810B500EB25
:100BE0008100016A0F249C40A1430162016A114304
:100BF000016210BD000002400004024000080240F3
:100C0000000C024000100240001402400018024094
:100C1000001C024000200240EA48016841F0010146
:100C20000160E84A0021083211600268E64B1A4070
:100C30000260031DE54A1A60026822F48022026005
:100C4000E0480C3001607047DE490022891C0A70C0
:100C50000870704702460020510901290CD0022972
:100C60000CD0D8497431096802F01F020123934067
:100C70000B4200D001207047D249F4E7D1497031CE
:100C8000F1E718B500204FF4A06400903120FFF781
:100C9000E1FF0099491C0091A14201D00028F5D044
:100CA0003120FFF7D7FF002800D0012018BDC54A2A
:100CB000116821F0F80141EAC00010607047C44992
:100CC00008607047BF49002270310A700A7001281D
:100CD00002D0042801D1052008707047BD49086082
:100CE000704741EA82115A0810B5BB4B029C03EBD6
:100CF00002421143014341EA0460B249091D086000
:100D000010BDB34908667047800140EA0170AD49E3
:100D1000843108607047AE4988667047AC49C86442
:100D20007047A84B08331A68084322F0EC6210435E
:100D300018607047A34B08331A68084322F07842C2
:100D40001043186070479F4A0832116821F0030170
:100D50000143116070479B480830006800F00C00A8
:100D60007047984A0832116821F0F0010143116080
:100D70007047944A0832116821F4E0510143116030
:100D80007047904A0832116821F4604141EAC0007E
:100D90001060704770B58B4B083319688F4C11F099
:100DA0000C0104D06610042903D0082903D0046084
:100DB0001BE0066019E0834A121D1168C1F38055DB
:100DC000116801F03F0115B1B6FBF1F101E0B4FB90
:100DD000F1F114681268C4F388146143C2F301424C
:100DE000521C5200B1FBF2F1016019680F2202EAB5
:100DF00011117B4A545C0168E14041601C68072581
:100E000005EA9424145D21FA04F484601B6805EA61
:100E10005333D25CD140C16070BDC0F301210329BE
:100E200008D1684B083319686E4A21F4F811024062
:100E30000A431A60634970310A68C0F30B00024329
:100E40000A60704763494439086070476149403916
:100E5000086070475E49C1F85C017047594A3032FA
:100E60000029116801D0014300E0814311607047FF
:100E7000544A34320029116801D0014300E0814313
:100E8000116070474F4A38320029116801D0014380
:100E900000E08143116070474A4A403200291168DE
:100EA00001D0014300E0814311607047454A44325C
:100EB0000029116801D0014300E0814311607047AF
:100EC000404A10320029116801D0014300E08143FB
:100ED000116070473B4A14320029116801D0014368
:100EE00000E0814311607047364A183200291168CA
:100EF00001D0014300E0814311607047314A203244
:100F00000029116801D0014300E08143116070475E
:100F10002C4A24320029116801D0014300E08143AA
:100F200011607047274A50320029116801D00143EF
:100F300000E0814311607047224A54320029116851
:100F400001D0014300E08143116070471D4A5832CF
:100F50000029116801D0014300E08143116070470E
:100F6000184A60320029116801D0014300E0814332
:100F700011607047134A64320029116801D001439F
:100F800000E08143116070470E4A0D32002911784C
:100F900001D0014300E0814311707047094874306B
:100FA000016841F08071016070470146054A0020E8
:100FB0000C3212680A4200D00120704701490E31FC
:100FC0000870704700380240FFFFF6FE1030002422
:100FD00000004742800E47420000FFFF0024F4005B
:100FE00014000020FFFCFF0FB64910B588420AD15B
:100FF000841401212046FFF78BFF2046BDE81040F6
:101000000021FFF785BFB049884202D101210414B5
:1010100004E0AE4988420AD10121C4132046FFF7FB
:101020006DFF2046BDE810400021FFF767BF10BDEF
:1010300030B502884C8802F441530A88CD88224397
:101040008C882C4322430C8922434C8922438C896F
:101050002243CC8922431A430280828B22F400620D
:101060008283098A018230BDF0B502220023858B7C
:1010700001244FF24006354085830284858B8E68BB
:10108000022E38D08A8802B10224914A13681B02CA
:1010900003D5136823F4000313608D4A7C32136870
:1010A0001268C3F388138A4EC2F30272361F366881
:1010B000884F06F03F06B7FBF6F65E43B6FBF2F24A
:1010C000CB88B3F5007F2BD06301B2FBF3F202EBC8
:1010D00082028B685200B2FBF3F2521D92B20A23D5
:1010E000B2FBF3F202F00103D21A4FF6FF74C2F31F
:1010F0004F0204EA0323941EFE2C01D30222002394
:10110000CC881A43144304840A884B881A438B887A
:1011100089890B431A432A4342F400618183F0BD5D
:10112000120AD4E70021018041808180C1800181C1
:1011300041818181C18107210182704700210180A5
:1011400041808180C18002228260818170470029B4
:10115000018802D041F0400101E021F0400101800E
:1011600070470029818B02D041F4806101E021F4B5
:10117000806181837047028822F4006202800288C5
:101180000A4302807047B1F5804F018803D021F4F3
:1011900080410180704741F48041FAE7A1F57E4229
:1011A0000188FF3A02D041F4807101E021F480719E
:1011B000018070470029818802D041F0040101E0DC
:1011C00021F00401818070470029818802D041F01C
:1011D000100101E021F010018180704730B5828B51
:1011E00000234FF240042240828302220284848B37
:1011F0000A884FF48075B2F5007F00D002B92B4603
:101200004A888D8889892A4319430A43224342F434
:101210000061818330BD80897047818170470029DA
:10122000018802D041F4005101E021F40051018015
:101230007047018841F4805101807047012901D035
:10124000008B7047808A7047008A7047002A828826
:1012500001D00A4300E08A438280704709090123D4
:101260008B40002A828899B201D00A4300E08A4369
:10127000828070470246002012890A4200D0012075
:101280007047C9430181704730B501F00F03012554
:10129000024605FA03F40020A3B2090905FA01F495
:1012A0009188A4B2128921401A4202D0002900D0AC
:1012B000012030BD01F00F0201219140C94301819D
:1012C000704700000030014000380040003C004002
:1012D0000838024000127A0010B501218C03204624
:1012E000FFF716FE2046BDE810400021FFF710BEB4
:1012F00013490860704710B58A0721F003041149AB
:10130000120F21440F23D1F8084893409C43C1F8A1
:101310000848D1F8083890400343C1F8083810BD98
:101320000949C1F8DC007047084908607047044962
:10133000002020310968C90500D501207047000050
:1013400000380140003001400000274200042742DD
:10135000C74910B5884206D101211020FFF7D8FDFA
:101360000021102028E0C349884202D101214C0409
:1013700010E0C149884202D101218C040AE0BF4932
:10138000884202D10121CC0404E0BD4988420AD13F
:1013900001210C052046FFF7B1FD2046BDE81040B5
:1013A0000021FFF7ABBDB749884209D101212020B8
:1013B000FFF7AEFD00212020BDE81040FFF7A8BDDB
:1013C00010BD7FB50446008A0D46C98820F4405000
:1013D00001432182A08941F20C618843A9882A89AE
:1013E00011436A8902431143A181A08A20F440710C
:1013F000A8890843A0826846FFF7CCFC9C48844239
:1014000002D0A048844201D1039800E00298A1894B
:10141000090400EBC00101EB0010296801D5490067
:1014200000E08900B0FBF1F06422B0FBF2F10901A9
:101430000B096FF018056B4300EB8300A3891D04B3
:101440004FF0320306D503EBC000B0FBF2F000F022
:10145000070005E003EB0010B0FBF2F000F00F0016
:10146000084320817FBD4FF4165101600021818027
:10147000C18001810C2242818181704710B5028AAE
:101480004C8822F470630A8822438C88C9880C43F4
:1014900022431A43028210BD0021018041808180D5
:1014A000C18070470029818902D041F4005101E0D8
:1014B00021F4005181817047028B02F47F42028344
:1014C000028B0A43028370470029818902D041F4CC
:1014D000004101E0C1F30E01818170470029818A3A
:1014E00002D041F4006101E021F400618182704783
:1014F000C1F30801818070478088C0F308007047FD
:10150000028A22F00F020282028A0A430282704794
:101510000029818902D041F0020101E021F002019D
:1015200081817047828922F40062828182890A4324
:1015300082817047028A22F020020282028A0A43D4
:10154000028270470029018A02D041F4804101E003
:1015500021F4804101827047818941F0010181813C
:1015600070470029818A02D041F0080101E021F092
:10157000080181827047028BD2B20283028B42EA59
:101580000121018370470029818A02D041F02001A6
:1015900001E021F02001818270470029818A02D078
:1015A00041F0100101E021F0100181827047828A30
:1015B00022F004028282828A0A43828270470029D2
:1015C000818A02D041F0020101E021F00201818212
:1015D0007047002A828A01D00A4300E08A4382824F
:1015E000704710B5C1F3421301F01F040121A1405F
:1015F000012B07D0022B07D01430002A026805D037
:101600000A4304E00C30F8E71030F6E78A43026042
:1016100010BD0246002012880A4200D00120704707
:10162000C9430180704770B501F01F0501260024F1
:10163000C1F3421306FA05F2012B0FD0022B0FD093
:10164000838A4FEA11210088134206FA01F600EA64
:10165000060001D000B10124204670BD8389F0E767
:10166000038AEEE70A0A01219140C94301807047CD
:10167000001001400044004000480040004C004081
:1016800000500040001401402DE9F04196B016468C
:101690000F461D468046002412AA0A2101F051FE81
:1016A0009DF9480000287AD0132879D04FF40067BC
:1016B000172802D01C2874D182E013AA05214046C5
:1016C00001F063FD9DF84C00C00724D00DAA042151
:1016D000404601F036FE172D33D09DF837000090BC
:1016E0009DF836309DF835209DF83410FBA005F0AC
:1016F000A1F914AA0521404601F023FEBDF85010BF
:10170000FEA005F097F901208DF8540015AA0421D8
:10171000404601F03AFD11AA0921404601F011FEB0
:10172000119800283DD0B84200D911971198314640
:1017300002B2404601F053FB00285EDD80B21190FA
:101740003BE09DF8400009AD9DF843309DF84220F4
:101750009DF8411085E80F009DF83C0005AD9DF80F
:101760003F309DF83E209DF83D1085E80F009DF824
:10177000380001AD9DF83B309DF83A209DF83910B6
:1017800085E80F009DF8370000909DF836309DF8F1
:1017900035209DF83410DE4805F04CF9A9E747E004
:1017A0003BE072E0001B02B23119404601F0A7FA9B
:1017B00005001ED4204484B21198A042F2D164E006
:1017C00011AA0921404601F0BCFD1198E8B102B20E
:1017D0003146404601F003FB00280EDD80B2119037
:1017E00011E0001B02B23119404601F088FA0500F1
:1017F00006D5404601F054F8284616B0BDE8F08101
:10180000204484B21198A042EBD1404601F013FA73
:101810000128F2D14146BFA035E03A464146C2A078
:1018200005F008F9404601F046F90128E5D12CE021
:101830004146C8A005F0FEF8CE48022D04D00B2D7D
:101840001AD0172D0FD105E002880023511C01800A
:10185000012104E002880023511C01800921404637
:1018600001F050F8C6B2464541460BD0C2A005F083
:10187000E1F84FF0FF30C0E702880023511C0180DF
:101880000D21ECE7C4A005F0D5F80120B5E72DE95E
:10189000F0438DB015460E461F468146002409AA26
:1018A0000A21DDF8508001F04CFD9DF8240000284D
:1018B00071D0132870D04FF40068172802D01C286C
:1018C00040D140E00AAA0521484601F05EFC9DF89F
:1018D0002800C00712D0E878A978CDE90010029757
:1018E0006B782A784946B1A005F0A4F801208DF85C
:1018F0002C000BAA0421484601F047FC03AA092149
:10190000484601F01EFD039800281BD0404501D930
:10191000CDF80C800398314602B2484601F05FFAD8
:10192000002835DD80B203900AE0001B02B23119B5
:10193000484601F0E4F9050026D4204484B2039817
:10194000A042F2D181E003AA0921484601F0F9FC46
:10195000484601F076FE039020B3404501D9CDF80A
:101960000C800398314602B2484601F038FA00284C
:101970000EDD80B2039013E0001B02B2311948461D
:1019800001F0BDF9050008D5484600F089FF28465A
:101990000DB0BDE8F0832EE00EE0204484B2039841
:1019A000A042E9D1484601F046F90128F0D1494664
:1019B00058A005F03FF848E0E878A978CDE9001094
:1019C00002976B782A78494682A005F033F804AA7A
:1019D0000421484601F0B5FC9DF82000102808D0ED
:1019E00004233A462946484601F090F80128CFD111
:1019F0002BE01023F5E75F494046B8F1020F05D010
:101A00000B281CD0B8F1170F0FD105E00A8800236E
:101A1000501C0880012104E00A880023501C088023
:101A20000921484600F06EFFC5B248464D450CD02E
:101A3000014651A004F0FEFF4FF0FF30A8E70A88EE
:101A40000023501C08800D21EBE70120A0E7F0B532
:101A500085B016460D461C46074603AA0D2101F027
:101A600070FC9DF90C00B8B3022803D00A2801D0FD
:101A70000E2832D102AA0921384601F062FC0298F0
:101A80004FF40061884201D9029101E0002824D07E
:101A9000384804A9801CCDE900010298584B02B2D5
:101AA0002946384601F07AFA0004000C15D00024CB
:101AB000304E02900DE09DF810207188CDE90012A3
:101AC000001B02B229194E4B384601F0CDF92044D3
:101AD00084B20298844295E098E095E05065657282
:101AE000204950203A20252E33642E252E33642E93
:101AF000252E33642E252E33640D0A005065657241
:101B000020506F7274203A2025640D0A00000000F6
:101B10007881000825643A536F636B657420436CC9
:101B20006F7365640D0A000025643A4C697374652F
:101B30006E2C2054435020736572766572206C6F52
:101B40006F706261636B2C20706F7274205B256410
:101B50005D0D0A0025643A54435020736572766522
:101B600072206C6F6F706261636B2073746172744A
:101B70000D0A0000240000202564203A20466169F7
:101B80006C20746F2063726561746520736F636B82
:101B900065742E0D0A00000025643A536F636B656F
:101BA00074206F70656E65640D0A000025643A4309
:101BB0006F6E6E656374656420746F202D202564DC
:101BC0002E25642E25642E2564203A2025640D0AD6
:101BD0000000000025643A54727920746F20636F0E
:101BE0006E6E65637420746F207468652025642EA2
:101BF00025642E25642E2564203A2025640D0A00D4
:101C0000040100207FF457AF05B0F0BD022C04D0D2
:101C10000B2C12D0172C0AD103E0002332460221EC
:101C200002E0002332460A21384600F06BFE3246BD
:101C3000394604A004F0FEFEE6E7002332460E21FA
:101C4000F2E7000025643A4F70656E65642C2055FC
:101C50004450206C6F6F706261636B2C20706F72E8
:101C600074205B25645D0D0A00000000704770471A
:101C70007047704700787047017070472DE9F04752
:101C80001E0090460D46074600D001260024DFF8CE
:101C9000489408E0D9F8181038468847641C05F8BD
:101CA000010B374424B24445F4DBBDE8F0872DE94D
:101CB000F0471E0090460D46074600D0012600243E
:101CC000DFF8149408E0D9F81C2015F8011B3846F9
:101CD0009047641C374424B24445F4DBE5E7FE4AF0
:101CE00008B9AFF27700906009B1D1607047AFF2E8
:101CF0008100D0607047F84A08B9AFF28B001061DC
:101D000009B151617047AFF295005061704770B5ED
:101D1000F14C2588EE05FDD508B9AFF2A700A0610A
:101D200029B1E1613AB122624BB1636270BDAFF299
:101D3000B700E061F6E7AFF2BB002062F4E7AFF274
:101D40009100606270BD10B5E44801F001FC00F044
:101D5000010010BD10B5E24801F0FAFB800601D584
:101D6000012010BD002010BD70B5DD4D0446284691
:101D700001F0EEFB012C06D020F020012846BDE842
:101D8000704001F0C9BB40F02001F7E770B5044690
:101D9000D24801F0DDFB0546D14801F0D9FB000730
:101DA00001D5022002E045F34010401C207045F3AD
:101DB0004000401C607045F38000401CA07070BD66
:101DC00070B50446C54801F0C3FB0546C44801F0A0
:101DD000BFFB000701D5022002E045F34010401C84
:101DE000207045F30010401C607045F3C000401C9B
:101DF000A07070BD70B5054600780024B84E02286A
:101E000030460DD001F0A4FB20F00801304601F06F
:101E100083FB2878012810D06878042440B108E0BA
:101E200001F096FB40F00801304601F075FB04E03C
:101E30000624A87808B944F001042146BDE87040A2
:101E4000A84801F069BB70B5A54D284601F080FB9C
:101E5000A54E40F001045321304601F05DFB2146C0
:101E6000284601F059FB3046BDE87040FF2101F0E3
:101E700053BB10B59D4801F06BFB04049C4801F076
:101E800067FB44EA00249B4801F062FB204310BD3D
:101E900070B5C1B2C0F30724C0F30745954801F0FF
:101EA0003BFB2146924801F037FB2946BDE87040D4
:101EB0008E4801F031BB2DE9F041C1B2C0F30725D6
:101EC000C0F307488C4801F027FB00248B4F012604
:101ED00006FA04F0284204D007EB4410FF2101F079
:101EE0001BFB641C082CF3DB4146BDE8F041844831
:101EF00001F012BB10B5834801F02AFB04048248AC
:101F000001F026FB44EA0024804801F021FB204335
:101F100010BD2DE9F04F95B07D4801F019FB044646
:101F2000CE217C4801F0F8FA7B4D062210A9284604
:101F300001F04DFB794E042212A9304601F047FB17
:101F4000774F042213A9384601F041FBDFF8D48112
:101F5000042214A9404601F03AFBDFF8CC9110228C
:101F60006946484601F033FBDFF8C0A1102204A9FE
:101F7000504601F02CFBDFF8B8B1102208A95846F2
:101F800001F025FB10220CA96A4801F020FB00217A
:101F9000694801F0C1FA684801F0DAFA3A21674865
:101FA00001F0BAFA062210A9284601F0EFFA04223D
:101FB00012A9304601F0EAFA042213A9384601F0CA
:101FC000E5FA042214A9404601F0E0FA102269461D
:101FD000484601F0DBFA102204A9504601F0D6FA77
:101FE000102208A9584601F0D1FA10220CA9514834
:101FF00001F0CCFA200603D5FF21464801F08CFA07
:10200000600603D5C5214D4801F086FA15B0BDE83C
:10201000F08F2DE9F0410D4606460024FFF779FFC9
:102020004FF0FF38A6B10022B05C204444B2102C1F
:1020300016DC521C52B2082AF6DB414F002407EB93
:102040004410315D01F068FA641C64B2082CF6DBC0
:10205000C5B1002108462A5C114449B2102902DDAD
:102060004046BDE8F081401C40B20828F3DB354E05
:10207000002406EB4410295D01F04EFA641C64B2A2
:10208000082CF6DB0020ECE72DE9F0470C460D7834
:1020900003460021DFF87CC0DFF8A090DFF848A0FD
:1020A000294E2A4F2A480A46182B72D2DFE803F03D
:1020B0000C5B6C72757D8084888C949AA6ABB8C3D7
:1020C000D4D9DCE0E4E8EFF2680703D5FF216046ED
:1020D00001F022FAA8073DE0300000200000306047
:1020E000001D3060001C306000F64160002421605B
:1020F00000142160000421600008216008280060AD
:1021000000282160000221600001216000002160A0
:102110000000206000F44160002041600030416018
:1021200000344160003841600070416000604160EF
:1021300000404160005041600004206000F54160B3
:10214000080002600820026000C5416000C64160CE
:102150000005206003D5C521484601F0DDF9E807F8
:102160001AD0FF210EE0680703D5CE21604601F0AA
:10217000D3F9A80703D53A21484601F0CDF9E8077D
:102180000AD05321504664E0FD4801F0E1F94009CE
:1021900037E082E0FFF7BDFE75E014B1224604F19E
:1021A0000801BDE8F047104633E7FFF7A3FE09E05A
:1021B0002068FFF780FE66E02068FFF769FE62E0B6
:1021C000FFF757FE20605EE02088010A304601F0EC
:1021D000A3F9217838463CE0384601F0B9F90546C4
:1021E000304622E0054601F0B3F92178012902D0FA
:1021F00020F080012CE040F0800129E001F0A8F9F6
:10220000C00920703FE0DF4882782270C278627097
:102210000279A2704279E27080792071617132E0B6
:10222000D94801F095F90546D84801F091F905EB38
:102230000020208027E0054601F08AF9217811B1BD
:10224000012903D01FE020F0010101E040F001016D
:10225000284601F061F916E001F07AF900F001007A
:10226000CFE7FFF7F0FD0EE02046FFF7C3FD0AE0E1
:102270002046FFF7A5FD06E02046FFF787FD02E0B8
:102280002846FFF771FD00200FE503E0FFE7FFF7A9
:1022900061FDB6E7FFF757FDB3E74FF0FF3004E508
:1022A00070B50446BA4801F053F92070B94801F0FE
:1022B0004FF90546B84801F04BF905EB0020608066
:1022C000B64801F045F92071B54801F041F90546DD
:1022D000B44801F03DF905EB0020E08070BD10B579
:1022E00004460178AA4801F017F96088010AAA4853
:1022F00001F012F9A178A74801F00EF92179A74859
:1023000001F00AF9E088010AA64801F005F9A1796F
:10231000BDE81040A24801F0FFB810B5A24801F096
:1023200017F90446A14801F013F900EB0424A04872
:1023300001F00EF900EB04449E4801F009F900EBAE
:10234000046010BD10B50446C1B2974801F0E4F82E
:10235000C4F30721954801F0DFF8C4F3074194481E
:1023600001F0DAF8210EBDE81040924801F0D4B82F
:1023700070B504460146002506228F4801F027F972
:10238000042204F10E018D4801F021F9042204F128
:102390000A018B4801F01BF90422A11D894801F0B4
:1023A00016F9102204F14201874801F010F91022B9
:1023B00004F13201854801F00AF9102204F11201FA
:1023C000834801F004F9102204F12201814801F050
:1023D000FEF86C48C01F6219415D6D1CEDB282F8B9
:1023E0005210042DF7D37C49002023180A5C401CAE
:1023F000C0B283F856201028F7D362480838007816
:1024000084F8660070BD70B50446014600250622BA
:10241000694801F0BBF8042204F10E01674801F09D
:10242000B5F8042204F10A01654801F0AFF804226E
:10243000A11D644801F0AAF8102204F1420162488B
:1024400001F0A4F8102204F13201604801F09EF876
:10245000102204F112015E4801F098F8102204F1F4
:1024600022015C4801F092F84648C01F611991F8BA
:10247000521041556D1CEDB2042DF7D35649002082
:10248000221892F856200A54401CC0B21028F7D3E4
:102490003C4994F866000839087070BD10B54F4A81
:1024A0000C46082828D2DFE800F004080C101418A5
:1024B0001C212046FFF7A7FF1CE02046FFF758FF2E
:1024C00018E02068FFF73EFF14E0FFF726FF2060CA
:1024D00010E02046FFF703FF0CE02046FFF7E0FE88
:1024E00008E02178104601F017F803E0104601F0EB
:1024F0002FF82070002010BD4FF0FF3010BD70B5D8
:102500000446374801F024F8C00738D0354801F0B8
:102510001FF82070344801F01BF86070334801F058
:1025200017F80506324801F013F805EB004531486D
:1025300001F00EF805EB00452F4801F009F805EB16
:10254000004060602D4801F003F805062C4800F0BB
:10255000FFFF05EB00452B4800F0FAFF05EB0045B7
:10256000294800F0F5FF05EB0040A060102204F1BF
:102570000C01264801F02BF8012125484AE04BE0E8
:1025800000002060300000200003006000020060B6
:10259000000442600001426000004260000C4260A2
:1025A0000009426000084260000840600009406085
:1025B0000000406000044060002041600030416045
:1025C000003441600038416000704160006041604B
:1025D000004041600050416014010020002C216047
:1025E0000002216000D0416000D4416000D8416009
:1025F00000D9416000DA416000DB416000DC4160ED
:1026000000DD416000DE416000DF416000E04160CC
:102610000028216000F080FF4FF0FF3070BD70B5E2
:102620008A4C0121204600F077FF204600F090FF01
:102630000028FAD1864D284600F08AFF0400FAD01F
:10264000FE21844800F068FF200601D5002070BDFF
:102650004FF0FF3070BD70B57C4D04460221284616
:1026600000F05AFF284600F073FF0028FAD1784E98
:10267000304600F06DFF0500FAD0FE21754800F0ED
:102680004BFFA80737D5744800F062FF20707348ED
:1026900000F05EFF6070724800F05AFF0506714856
:1026A00000F056FF05EB00456F4800F051FF05EBC9
:1026B00000456E4800F04CFF05EB004060606C4840
:1026C00000F046FF05066B4800F042FF05EB0045B1
:1026D000694800F03DFF05EB0045684800F038FF11
:1026E00005EB0040A060102204F10C01644800F0EA
:1026F0006EFF002070BD4FF0FF3070BD70B5014619
:102700001022604800F042FF504C0421204600F0A7
:1027100003FF204600F01CFF0028FAD14C4D28464C
:1027200000F016FF0400FAD0FE214A4800F0F4FE43
:10273000200601D5002070BD4FF0FF3070BD70B590
:1027400004460088010A504800F0E6FE21784F4810
:1027500000F0E2FE6088010A4D4800F0DDFEA1783D
:102760004C4800F0D9FE207D384D10281CD00422A2
:10277000211D494800F00AFF2021284600F0CCFE28
:10278000284600F0E5FE0028FAD1314D284600F039
:10279000DFFE0400FAD0FE212E4800F0BDFE14F04A
:1027A000280F08D0002070BD1022211D354800F0F0
:1027B000EDFE0821E1E74FF0FF3070BD70B5054632
:1027C000007C224C102822D004222946324800F0F6
:1027D000DDFE4021204600F09FFE204600F0B8FEBE
:1027E0000028FAD11A4E304600F0B2FE0400FAD0AA
:1027F000FE21184800F090FE14F0500F0ED0062273
:1028000005F11101254800F0E2FE002070BD102204
:1028100029461C4800F0BAFE1021DBE74FF0FF30DC
:1028200070BD06280FD2DFE800F0030507090B0C86
:102830000846C3E7084682E708465FE708460AE716
:10284000EDE608465BE64FF0FF3070470030216050
:10285000000221600028216000D0416000D4416066
:1028600000D8416000D9416000DA416000DB41607E
:1028700000DC416000DD416000DE416000DF41605E
:1028800000E0416000804160009841600099416033
:10289000009C4160009D4160008C4160009041605F
:1028A00070B50446082802D34FF0FF3070BDF948D8
:1028B000102100EB4415284600F02EFE284600F0BB
:1028C00047FE0028FAD1F448FF2100EB441000F045
:1028D00023FEF2490120A0404A88F14B82434A80FE
:1028E000002223F814208B888343881D8B80025597
:1028F000EC4800EB4414204600F02AFE0028FAD1F0
:10290000012070BD2DE9FF471D4616468846044646
:10291000082804D34FF0FF3004B0BDE8F08708F07A
:102920000F00E14BDFF884936FF00B0A6F460F281E
:102930005CD2DFE800F05B0817175B5B5B175B2975
:1029400017175B38170004223946184600F03FFE7F
:10295000002108463A5C401C1144C0B289B20428E8
:10296000F8D3E9B368076FF005014DD4CDB3404605
:10297000B8F1090F45D03CDC012842D0032843D0F0
:10298000B8F1070F42D13AE010223946484600F02C
:102990001EFE002108463A5C401C1144C0B289B2B8
:1029A0001028F8D3DDE704223946184600F00FFE60
:1029B000002108463A5C401C1144C0B289B2042888
:1029C000F8D369B110226946484600F000FE0021A4
:1029D00008463A5C401C1144C0B289B2102801E09C
:1029E00002E013E0F5D3BCE7504695E76FF0040032
:1029F00092E70B2808D0B8F10D0F07D101E0A80726
:102A000002D115F0900F01D0084685E72046FFF768
:102A100047FFA74805F0F00141EA080100EB441028
:102A200000F07AFDA34805F0030100EB441000F02C
:102A300073FD9A4F56B93E88701C80B2A0F57F4155
:102A40003880F03902D14FF4806038809A48310ADA
:102A500000EB441000F060FD9848F1B200EB441028
:102A600000F05AFD8B48012100EB4416304600F07F
:102A700053FD304600F06CFD0028FAD10120A04043
:102A80007988C5F3C0028143A2400A437A80B9889D
:102A90008143B9808249002021F814007F49891DB3
:102AA0000855804800EB4415284600F051FD0028E9
:102AB000FAD060B230E770B50546082802D34FF06F
:102AC000FF3070BD774800EB4516304600F040FD02
:102AD000132802D06FF0020070BD6E48022100EB97
:102AE0004514204600F018FD204600F031FD002876
:102AF000FAD1304600F02CFD142805D02846FFF707
:102B0000CFFE6FF0030070BD012070BD2DE9F047CE
:102B10009846174689460446082802D34FF0FF30EE
:102B2000FBE6634800EB4416304600F011FD00F070
:102B300003006FF0040A01285CD15A4800EB4415E9
:102B4000284600F005FD132802D06FF00200E4E6ED
:102B50000021084605E019F80020401C114489B204
:102B6000C0B24045F7D379B37FB35548390A00EB7B
:102B7000441000F0D1FC5348F9B200EB441000F0CF
:102B8000CBFC4449B8F1100F01EB4417304623D079
:102B900000F0DEFC09282DD04B48042200EB441045
:102BA000494600F0F3FC3846042100F0B5FC3846F5
:102BB00000F0CEFC0028FAD138490120A040498815
:102BC00008422ED00020A8E600E002E06FF00B00E3
:102BD000A3E66FF00A00A0E600F0BAFC000709D5F2
:102BE0003A48102200EB4410494600F0CFFC38462A
:102BF0008421DAE7504690E6304600F0A9FC000751
:102C000008D52548082100EB441000F085FC6FF042
:102C10000C0082E6284600F09BFC28B96FF0030008
:102C20007BE62B4800EB4416284600F091FC172861
:102C3000E2D1012071E670B50446082802D34FF0B6
:102C4000FF3070BD1A4800EB441000F081FC00F02A
:102C50000300012802D06FF0040070BD114800EBA2
:102C60004415284600F074FC98B10A48082100EB8E
:102C70004416304600F050FC304600F069FC002855
:102C8000FAD106490120A040498808422DD00020F1
:102C900070BD32E008100060082800605800002075
:102CA000240100200830006000384160004041608D
:102CB0000800006008440160081401600815016004
:102CC000084001600841016008200160083001608F
:102CD00008200060304600F03BFC000708D5204685
:102CE000FFF7DEFD6FF00C0070BDFE4800EB4416F0
:102CF000284600F02DFC0028ECD1012070BD2DE904
:102D0000F05F0546F84817468B4600EB451000F08B
:102D10001FFC800200B2874200DD0746F348012411
:102D2000DFF8CC936FF0060A00EB4516AC4028465E
:102D300000F06EFC8046304600F00AFC172806D0F2
:102D40001C2804D048BB2846FFF7AAFD25E04745CC
:102D500004DDB9F802000442E9D025E03A465946BC
:102D6000284600F086FCB9F80400044224D0DD486F
:102D700000EB4518404600F0EBFBC00616D4304689
:102D800000F0E6FB17280BD01C2809D00028DAD069
:102D9000404600F0DDFB0007D5D45046BDE8F09F6B
:102DA000B9F802000442E5D00020F7E7D14810212D
:102DB00000EB451000F0B0FBCF48202100EB45159B
:102DC000284600F0A9FB284600F0C2FB0028FAD1F3
:102DD000B9F8041038460C43A9F80440DEE72DE9A1
:102DE000F0470646C54814468A4600EB461000F0F8
:102DF000AFFB800200B2A04200DA0446BB480127C4
:102E0000DFF8EC9200EB4618B740304600F019FCB2
:102E10000546404600F09CFB172808D01C2806D029
:102E200010B93046FFF73CFD6FF0060075E5ADB117
:102E3000A54200DA2C4622465146304600F042FCBC
:102E4000AD48402100EB4615284600F065FB2846BA
:102E500000F07EFB0028FAD120465EE5B9F80200BA
:102E60000742D2D0002058E52DE9F05F0446DDE9A5
:102E70000A78A3489A4616468B464FF0000900EBA5
:102E8000441000F065FB0546072821D06FF00401CF
:102E9000B8F1100F04D0B8F1040F0CD0C81F7DE7B3
:102EA000280747D59748102200EB4410514600F000
:102EB0006DFBA0200BE00A2D3CD00B2D3AD09248A0
:102EC000042200EB4410514600F060FB20208146B4
:102ED000A8070CD587B38D48390A00EB441000F0E1
:102EE0001BFB8B48F9B200EB441000F015FB7E4849
:102EF00000EB441000F02CFB4FF6FF7101EA80203C
:102F0000864200DD06B279480127DFF8E4A100EB34
:102F10004418A740204600F07BFB85B2404600F0F5
:102F200017FB68B1AE420EDDBAF802000742F1D0DD
:102F3000002033E7084631E7FFE76FF00A002DE78E
:102F40006FF003002AE732465946204600F091FB15
:102F50006948494600EB4417384600F0DDFA6548F9
:102F600000EB4415384600F0F3FA0028FAD15D482A
:102F700000EB4414204600F0EBFAC10605D52846C4
:102F8000102100F0C9FA304608E70007F2D52846BC
:102F9000082100F0C1FA6FF00C00FFE62DE9FF4FA9
:102FA000DFF870A1044683B03AF81410DFF84091BE
:102FB0005148DDF84480934609F1060900EB4415B9
:102FC000002975D14948012600EB4417A640204648
:102FD00000F037FB0190384600F0BAFA68B3019868
:102FE00080B3002009F804004F46022269462046BB
:102FF00000F068FB2846402100F08EFA284600F0D9
:10300000A7FA0028FAD19DF800009DF8011000F001
:10301000070001EB00263A4800EB4410019000F055
:1030200097FA00F00F000A281AD012DC022817D0F5
:10303000032815D0072810D130E06FF0030007B047
:10304000BDE8F08FFFE72A4840880642BFD0002045
:10305000F5E70B2804D00E2802D06FF00400EEE74D
:103060000698002872D09DF8000000F0F80038554E
:10307000000601D5102100E0042188F80010CAB232
:103080002046069900F01EFB2846402100F044FA35
:10309000284600F05DFA0028FAD10AE040F2EA5032
:1030A000864206DD2046FFF7FBFB6FF47A70C6E729
:1030B0003FE02AF81460385D40F00200385501986E
:1030C00000F046FA00F00300022832D11098E8B36D
:1030D00002226946204600F0F5FA9DF801009DF8AD
:1030E000001019E00820006008000260083000604D
:1030F00058000020082800600810006008200260C6
:10310000080000600830016008200160084001608C
:10311000084101602401002000EB01201099088083
:103120002846402100F0F8F9284600F011FA00285E
:10313000FAD13AF91460574658465E4500DD064616
:1031400032462046049900F0BDFA00E014E028461B
:10315000402100F0E1F9284600F0FAF90028FAD100
:1031600037F81400801B00B227F8140019F8041077
:1031700028B141F0040104E06FF009005FE741F07D
:10318000080109F80410304659E72DE9F0411446CA
:103190008C46082803D34FF0FF30BDE8F081C94AC0
:1031A000C74F02EB4016C84A217802EB40157A88D7
:1031B0006FF00903BCF10A0F3FD2DFE80CF00511F4
:1031C00015171F252B32343A01248440012901D0E0
:1031D00019B132E014437C8021E0A2437A801EE0E2
:1031E000C24002F0010013E0B84900E0B84901EB29
:1031F000401000F0ADF98002208010E01F291CD89B
:10320000B44A02EB401008E0B34901EB401011E072
:10321000207004E01F2910D8304600F07DF901200D
:10322000BBE7304606E001F00300012805D0284640
:10323000F3E7284600F08CF9EAE71846ADE72DE9F8
:10324000F04115460446082802D34FF0FF30A4E7AA
:10325000A248A34A00EB44106FF0040702EB4416A7
:1032600008296BD2DFE801F06A04070E1828325FE4
:1032700029789C4801E029789B4800EB441000F035
:103280004BF94EE02888010A984800EB441000F002
:1032900043F929789648F0E7287C102807D095480C
:1032A000042200EB4410294600F070F939E09248FE
:1032B000102200EB4410F6E72888010A8F4800EB43
:1032C000441000F029F929788D48D6E700F040F93C
:1032D00000F0030001282CD1304600F039F910B17C
:1032E0006FF0010059E78748222100EB4416304671
:1032F00000F012F9784800EB44150DE0284600F084
:1033000027F9000708D57348082100EB441000F0A6
:1033100003F96FF00C0040E7304600F019F900287F
:10332000ECD1012039E700F013F900F00300012887
:1033300001D0384631E729783046A0E76FF0090020
:103340002BE72DE9F04715460446082802D34FF035
:10335000FF3038E46C486FF0040900EB44175F4815
:103360006FF0060800EB44160F2970D2DFE801F079
:10337000081B1D1F2746A454616569707D9E8B0044
:10338000304600F0E5F800F0F006604800EB44102D
:1033900000F0DEF806434A484088E04000F00100B3
:1033A00046EAC0007FE04F484CE04F484AE05048B2
:1033B00000EB441000F0CCF806464C4825E03046BF
:1033C00000F0C6F800F00300012865D1384600F08F
:1033D000BFF8400708D54848102200EB44102946A2
:1033E00000F0F5F8102007E04248042200EB4410FA
:1033F000294600F0ECF80420287455E0404800EB22
:10340000441000F0A5F806463C4800EB441000F0DC
:103410009FF806EB002034E0304600F099F800F009
:103420000300012838D12E4800EB441000F090F83A
:1034300027E0204600F0ECF823E0204600F001F9F8
:103440001FE0334800EB441000F082F82BE033E03B
:10345000304600F07DF800F0030001281CD138460A
:1034600000F076F800F007001DE0304600F070F83C
:10347000A0B1304600F06CF8C007DED1254830F826
:103480001400288010E0304600F062F830B1304679
:1034900000F05EF8C00703D04846C7E44046C5E4E4
:1034A0000748801D005D28700120BFE4304600F011
:1034B0004FF800F00F0028706FF00100B6E4000034
:1034C0005800002008240060080400600800026022
:1034D00008200260082800600820006008000060E2
:1034E0000888016008080160080401600810016094
:1034F0000811016008200160083001600840016087
:103500000841016008100060083100600844016053
:10351000083000602401002038B5020C8DF800202E
:10352000020A8DF80120924C8DF802008DF80310EC
:10353000A0688047206980470123656A04226946A4
:103540004FF0C040A84760698047E068804738BDB9
:1035500038B5010C8DF80010010A854C8DF801106A
:103560008DF80200A068804720698047012303226C
:10357000656A69465007A847A1697E48884761691E
:1035800005468847E1688847284638BDF8B50E46A5
:10359000010C8DF80010010A754C8DF801108DF8A2
:1035A0000200A06815468047206980470123032256
:1035B000676A69465007B847676A00232A4631465A
:1035C0006C48B84760698047E0688047F8BDF8B547
:1035D0000E46010C8DF80010010A654C8DF80110A3
:1035E0008DF80200A06815468047206980470123B6
:1035F0000322676A69465007B847276A00232A46AC
:1036000031465C48B84760698047E0688047F8BD4C
:103610002DE9F041584A014602EB4116574A002075
:1036200002EB411504463046FFF792FF0746284655
:10363000FFF78EFF00EB072000B2A042F2D1BDE8F9
:10364000F0812DE9F0414E4A014602EB41164D4A08
:10365000002002EB411504463046FFF779FF07468C
:103660002846FFF775FF00EB072000B2A042F2D119
:10367000E5E72DE9F04704464348904600EB441641
:1036800089463046FFF764FF0746404800EB441583
:103690002846FFF75DFF07EB002007B2380200EB7A
:1036A0004410424649461030FFF770FF07EB08040C
:1036B0002846C4F30721FFF72FFFE1B23046BDE8EB
:1036C000F04729E72DE9F0475FEA020889460446FA
:1036D00023D02F4800EB44163046FFF739FF07464A
:1036E0002C4800EB44152846FFF732FF07EB00207B
:1036F00007B2380200EB4410424649461830FFF743
:1037000066FF07EB08042846C4F30721FFF704FF10
:10371000E1B23046BDE8F047FEE6BDE8F0872DE9AE
:10372000F04104461A480E4600EB44152846FFF7C0
:103730000FFF0746174800EB44142046FFF708FF29
:1037400007EB00203044C0F307212046FFF7E4FEDA
:103750002846FFF7FDFE07462046FFF7F9FE07EB78
:1037600000203044C1B22846BDE8F041D4E6000054
:1037700030000020030000600804026008050260B9
:103780000824026008250260080D0260080C02602F
:10379000082902600828026010B5FE4A1165002160
:1037A000C2E9120103F094F8FA492831086010BD0B
:1037B0002DE9F041F74D0F460446D5E91210401CA3
:1037C00005F12806884206D9296D0144A9643068AC
:1037D00003F0D4F83060E86C631C021B30680119F8
:1037E000184403F087FA30680755E86C401CE86419
:1037F000BDE8F08110B5E74CE16C0A1A04F128012C
:10380000521E0B68411C1944184403F073FAE06C13
:10381000401EE06410BD0146DE48C06CC8E7DD48CC
:103820002830006803F083B870B5DA4D0146DAA09D
:10383000D5E9122303F0FEF805F128062C6A05E00D
:103840003068015DDCA003F0F5F8641CE86C84428C
:10385000F6D3DBA003F0EEF8E86C286270BD704789
:1038600070B5CC4D86B00024AC64EC6401212220FC
:103870002C65FFF791FFD3A0FFF7D6FF0120FFF7DC
:10388000CAFF686AC0F30740FFF7C5FF0020FFF7D3
:10389000C2FF0020FFF7BFFFCDA0FFF7C5FF00204C
:1038A000FFF7B9FF0120FFF7B6FF0020FFF7B3FFD6
:1038B0000A20FFF7B0FF0020FFF7ADFF0320FFF75E
:1038C000AAFF0020FFF7A7FF0120FFF7A4FF05F1E3
:1038D00054063078FFF79FFF7078FFF79CFFB078B1
:1038E000FFF799FFF078FFF796FF3079FFF793FF26
:1038F0007079FFF790FFB9A0FFF796FF0020FFF760
:103900008AFF0320FFF787FF0020FFF784FF0C20CA
:10391000FFF781FF0320FFF77EFF0020FFF77BFF0B
:103920000820FFF778FFDC20FFF775FF0020FFF786
:1039300072FF0020FFF76FFF0020FFF76CFF0020F1
:10394000FFF769FF0020FFF766FF0020FFF763FF26
:103950000020FFF760FF0020FFF75DFFA4A0FFF746
:1039600063FFFF208DF8080002228DF80920104621
:1039700002A90C54401C80B20D28FAD301208DF806
:1039800015008DF816408DF8172095F84820102165
:1039900040F22320CDE900017E4802AB28300168C7
:1039A000A878FFF761FAFFF73AFF06B070BD2DE97E
:1039B000F041784D92B00027AF64EF642F656889BD
:1039C0004FF0010800287CD08C4C09AE207BE37BB3
:1039D000A27B617B86E80F00207A05AEE37AA27AAB
:1039E000617A86E80F00207901AEE379A2796179E6
:1039F00086E80F00E0780090A3786278217880A0B4
:103A000003F018F801213C20FFF7C6FE6DA0FFF778
:103A10000BFF0320FFF7FFFE686AC0F30740FFF7C4
:103A2000FAFEA88CC0F30720FFF7F5FE95F82400F6
:103A3000FFF7F1FE66A0FFF7F7FE0020FFF7EBFEB1
:103A40000320FFF7E8FE6889000AFFF7E4FEA87A82
:103A5000FFF7E1FE05F13C063078FFF7DCFE7078F9
:103A6000FFF7D9FEB078FFF7D6FEF078FFF7D3FE68
:103A7000361D3078FFF7CFFE7078FFF7CCFEB078B8
:103A8000FFF7C9FEF078FFF7C6FE361D3078FFF766
:103A9000C2FE7078FFF7BFFEB078FFF7BCFEF0788B
:103AA000FFF7B9FE52A0FFF7BFFE0020FFF7B3FEFD
:103AB0000520FFF7B0FEA889000AFFF7ACFE287BBF
:103AC00000E039E1FFF7A7FE2078FFF7A4FE607859
:103AD000FFF7A1FEA078FFF79EFEE078FFF79BFEC0
:103AE0002079FFF798FE6079FFF795FEA079FFF740
:103AF00092FEE079FFF78FFE207AFFF78CFE607A66
:103B0000FFF789FEA07AFFF786FEE07AFFF783FED3
:103B1000207BFFF780FE607BFFF77DFEA07BFFF739
:103B20007AFEE07BFFF777FE686B000EFFF773FE0F
:103B3000686BC0F30740FFF76EFEA88EC0F3072046
:103B4000FFF769FE95F83400FFF765FEA86B000EDD
:103B5000FFF761FEA86BC0F30740FFF75CFE288FFC
:103B6000C0F30720FFF757FE95F83800FFF753FE24
:103B700030A0FFF759FE0020FFF74DFE0120FFF7B0
:103B80004AFE0020FFF747FE0A20FFF744FE002010
:103B900058E000006800002025323073203D3E20B0
:103BA00073697A653D253032642C6E756D3D253024
:103BB0003264203A20000000252E327820000000D8
:103BC0000D0A00006F7074696F6E20696E69740071
:103BD0005479706526584944000000004F7074699C
:103BE0006F6E20436C69656E7420494400000000CC
:103BF0004F7074696F6E2049414E4100540100209E
:103C0000726571203A20257825783A257825783A0A
:103C1000257825783A257825783A257825783A2523
:103C20007825783A257825783A25782578200D0A60
:103C3000000000004F7074696F6E2049415F61643D
:103C400064720000FFF7E7FD0320FFF7E4FD0020AA
:103C5000FFF7E1FD0120FFF7DEFD05F154042078B8
:103C6000FFF7D9FD6078FFF7D6FDA078FFF7D3FD09
:103C7000E078FFF7D0FD2079FFF7CDFD6079FFF701
:103C8000CAFDAFF2A800FFF7CFFD0020FFF7C3FD8C
:103C90000220FFF7C0FD688A000AFFF7BCFDA87C80
:103CA000FFF7B9FDA888000AFFF7B5FD2879FFF7EF
:103CB000B2FDE888000AFFF7AEFDA879FFF7ABFD7B
:103CC000A41D2078FFF7A7FD6078FFF7A4FDA0787A
:103CD000FFF7A1FDE078FFF79EFD2079FFF79BFD40
:103CE0006079FFF798FDFDA0FFF79EFDFF208DF89E
:103CF000340002228DF8352010460DA90F54401CC7
:103D000080B20D28FAD301208DF841008DF8427061
:103D10008DF8432095F84820102140F22320CDE96A
:103D20000001F3480DAB0168A878FFF79DF8FFF795
:103D300076FD404612B05BE50920FBE7F0B5EC4D9F
:103D40000026283D87B0AE64EE64344601211E2073
:103D50002E65FFF721FDAFF29410FFF765FD0B20F4
:103D6000FFF759FD686AC0F30740FFF754FDA88CC0
:103D7000C0F30720FFF74FFD95F82400FFF74BFD38
:103D8000AFF2B410FFF750FD0020FFF744FD012013
:103D9000FFF741FD0020FFF73EFD0A20FFF73BFD46
:103DA0000020FFF738FD0320FFF735FD0020FFF767
:103DB00032FD0120FFF72FFD05F154073878FFF79A
:103DC0002AFD7878FFF727FDB878FFF724FDF8780B
:103DD000FFF721FD3879FFF71EFD7879FFF71BFD0E
:103DE000AFF20820FFF720FD0020FFF714FD0620AA
:103DF000FFF711FD0020FFF70EFD0620FFF70BFD7A
:103E00000020FFF708FD1720FFF705FD0020FFF752
:103E100002FD1820FFF7FFFC0020FFF7FCFC20202C
:103E2000FFF7F9FCB3A0FFF7FFFCFF208DF80800B7
:103E300002228DF80920114602A84454491C89B277
:103E40000D29FAD301208DF815008DF816408DF854
:103E5000172095F84820102140F22320CDE90001D9
:103E6000A34802AB0168A878FEF7FEFFFFF7D7FC76
:103E700007B03046F0BD2DE9F04F9D4D9BB0283D79
:103E8000A878FFF7DEFB0004000C76D019AA0FA972
:103E9000CDE90012964C02B2284610AB807821681A
:103EA000FFF77CF885B29DF84F009DF84E100CABE3
:103EB000BDF83C200B9183E825009DF84A0007AE31
:103EC0009DF84D309DF84C209DF84B1086E80F0072
:103ED0009DF8460003AE9DF849309DF848209DF8B6
:103EE000471086E80F009DF843009DF845209DF897
:103EF00044108DE807009DF842309DF841209DF860
:103F00004010804802F096FD00200D902468601952
:103F1000179021787CA002F08DFD2178022901D034
:103F200007296FD17DA002F085FD14F8040B0D90D8
:103F300029E214F8010F04287ED006DC01280AD0FB
:103F400002287AD0032804D11CE0172876D018283C
:103F500075D07BA048E17EA002F06CFD6078A1786E
:103F6000634D01EB002081B2283D7DA0A982E41CB5
:103F700002F060FDA88A204401E00AE2641C844249
:103F8000D6D0FBE77BA002F055FD6078A178E41C59
:103F900001EB0020564980B2283948812044169010
:103FA000534821781430017061784170A178817094
:103FB000E178C170001D2179017061794170A179AA
:103FC0008170E179C170001D217A0170617A4170C0
:103FD000A17A8170E17AC1700C340FE014F8010FFE
:103FE000052810D00D2878D055A002F023FD607868
:103FF000A178E41C01EB002080B2044416988442AE
:1040000096D2EBE7C3E15EA002F014FD6078A178E0
:1040100001EB00203649283988815D48E27802703A
:104020001592227942701492627982700E92A2796E
:10403000C2701892E27903E0D5E0DFE064E194E138
:1040400002710192237A43710093657A8571A67A91
:10405000C671E27A0272237B437294F80DA080F855
:104060000AA094F80EC0174680F80BC0E27B994670
:104070000273237CAE464373657CB3468573A67C8E
:10408000C673E07C0006486394F8148000EB084097
:10409000486394F8158000EB0820486394F8168074
:1040A00040444863E07D0006886314F8188F00EBF5
:1040B0000840886314F8018F00EB0820886394F8A7
:1040C00001804044886309A880E86C0005A880E866
:1040D0008016009BCDF810B05CE067E04F7074690B
:1040E0006F6E2053657276657220494400000000AF
:1040F000900000204F7074696F6E20526571756575
:1041000073740000CC810008696E20736572766557
:104110007220706F72742025780D0A00696E20413C
:1041200044564552206F72205245504C5928372929
:104130002074797065203A202578200D0A0000004F
:10414000696E2064656661756C74200D0A0000005C
:10415000696E20636C69656E746964200D0A0000E5
:104160006F70745F6C656E203A20252E34780D0ACE
:1041700000000000696E2069616E61200D0A000078
:10418000696E2049412061646472200D0A000000BC
:1041900054010020189ACDE9023E0092DDE9142175
:1041A000E848A41C0E9B02F045FC27E7E6A002F0BD
:1041B00041FC6078A178E94D01EB002081B2E981F2
:1041C0002982E7A002F036FC298AEAA002F032FC3C
:1041D000E078000228812179641D08442881E8895B
:1041E0000444A41E0AE7E8A002F024FC6078A17849
:1041F000E41C01EB002080B20444C4E0E5A002F01E
:1042000019FC6078A178D54E01EB002081B2718253
:10421000AFF2B400E41C02F00DFC708A251814F80B
:10422000010B0002B08014F8011B084481B2B18078
:10423000DCA002F0FFFBB088022814F8010B0DD0BF
:104240000002F08014F8011B084481B2F180DAA06A
:1042500002F0F0FBB088012811D02DE00006306399
:1042600014F8011B00EB0140306314F8021B00EB53
:104270000120306314F8011C084430631CE0B74F80
:1042800014F8010B2C37387014F8010B787014F8FF
:10429000020BB87014F8010CF870CDA002F0CAFB44
:1042A0000026CDA0B95D02F0C5FB761CF6B2042E47
:1042B000F7D3B4A002F0BEFBA84E14F8010B5A3697
:1042C000307014F8010B707014F8010BB07014F812
:1042D000030BF07014F8020C307114F8010C7071BB
:1042E000BFA002F0A7FB0027BBA0F15D02F0A2FB7C
:1042F0007F1CFFB2062FF7D3A2A002F09BFB00E0C9
:10430000641CAC423FD0FBE7B9A002F093FB60789D
:10431000A178E41C01EB002080B22118BC4822786F
:10432000027062784270A2788270E278C27022795C
:10433000027162794271A2798271E279C271227A44
:104340000272627A4272A27A8272E27AC272227B2C
:104350000273627B4273A27B8273E27BC27310346E
:1043600000E0641C8C420ED2FBE7AAA002F062FBC4
:104370006078A178E41C01EB002080B2204400E0CA
:10438000641C8442FCD317988442FFF4D2AD0D988C
:1043900040B21BB0BDE8F08F70B5704C2078062895
:1043A0001ED0A078A24901EB4010FFF7D1F82228D7
:1043B0000DD0A0789F4901EB40100121FFF7ACF828
:1043C000002340F222220A21A078FEF79BFA012561
:1043D000FFF751FD94F9001021B1052906D107E03E
:1043E000052070BDFFF7AAFC05202070284670BD8F
:1043F000042070BD70B5594D2878062823D0A878C0
:104400008B4901EB4010FFF7A3F822280DD0A878C4
:10441000884901EB40100121FFF77EF8002340F2AC
:1044200022220A21A878FEF76DFA0126FFF723FD64
:10443000C1B2774C95F90000103430B1012819D081
:10444000022845D148E0052070BD00202070607032
:10445000A070E07020716071A071E07120726072D4
:10446000A072E07220736073A073E073FFF7F8F935
:1044700001202CE002292BD16FA002F0DBFA644866
:10448000203001782170417861708178A170C17805
:10449000E17001792171417961718179A171C179ED
:1044A000E171017A2172417A6172817AA172C17AD5
:1044B000E172017B2173417B6173817BA173C07BBE
:1044C000E073FFF774FA0646092803D0022028702B
:1044D000304670BD002070BD5E4C3A212046FFF78B
:1044E0001BF84B49102220315B48FFF74FF8C521DC
:1044F0002046FFF711F8042070BD10B5174CA078C6
:10450000FEF7CEF90620207010BD1448002181610D
:104510000A22C2614170704770B5104C01252146D6
:1045200094F90100002691F90010022806DAD4E976
:104530000620904203D2012902D18FE09BE0A0E047
:1045400091E0000038820008696E20737461747510
:104550007320636F6465200D0A000000680000206E
:104560007374617475735F6C656E203A2025780DE5
:104570000A0000004C7374617475735F6C656E2083
:104580003A2025780D0A0000696E20696174612067
:104590000D0A0000696E2073657276657269642089
:1045A0000D0A0000445549445F74797065203A2033
:1045B000252E34780D0A00004861726477617265B7
:1045C0005F74797065203A20252E34780D0A00003A
:1045D00054696D65203A2000252E327800000000D5
:1045E0005365727665725F4D4143203A20000000AA
:1045F000696E20444E532052656375727369766507
:10460000204E616D6520536572766572200D0A003B
:1046100034010020696E20446F6D61696E2053651E
:1046200061726368204C697374200D0A00000000F9
:1046300008300060080801603E20526563656976B5
:104640006520444843505F414456455254495345C0
:104650000D0A000000F54160005041602FA002F0FB
:10466000E9F9FFF7FDF8A661A0690A30E06160781A
:10467000401C607005E0012901D126700025FFF77C
:1046800044FF284670BD2DE9FF410024DFF8BC80BF
:104690000E46074600940194029406222A49404699
:1046A0000394FEF794FF284D28786978EA78084348
:1046B000A9781143084329790843697908430FD140
:1046C00023A002F0B7F92C7008206870DC20A870D5
:1046D000EC702C716C71062229464046FEF756FF9D
:1046E000194D0422543D05F12800AF7006601D48A5
:1046F000686269461C48FEF749FF042269461B4868
:10470000FEF744FFFFF701FF2C70BDE8FF810E4864
:1047100054388169491C8161704700003C3C7469D0
:104720006D656F75743E3E207374617465203A2028
:1047300053544154455F444843505F444953434FA9
:104740005645520D0A000000BC00002000204160C8
:10475000444843505F696E69742D736574204D4100
:10476000430D0A0089575100003841600030416014
:1047700010B592B006220DA9EB48FEF728FF9DF870
:1047800037009DF839209DF838108DE807009DF816
:1047900036309DF835209DF83410E4A002F04AF937
:1047A00010220DA9ED48FEF712FF9DF8400009AC5C
:1047B0009DF843309DF842209DF8411084E80F0099
:1047C0009DF83C0005AC9DF83F309DF83E209DF8DB
:1047D0003D1084E80F009DF8380001AC9DF83B3097
:1047E0009DF83A209DF8391084E80F009DF83700B5
:1047F00000909DF836309DF835209DF83410D8484B
:1048000002F018F910220DA9D648FEF7E0FE9DF837
:10481000400009AC9DF843309DF842209DF84110BE
:1048200084E80F009DF83C0005AC9DF83F309DF8F2
:104830003E209DF83D1084E80F009DF8380001AC43
:104840009DF83B309DF83A209DF8391084E80F0020
:104850009DF8370000909DF836309DF835209DF882
:104860003410C14802F0E6F810220DA9BF48FEF747
:10487000AEFE9DF8400009AC9DF843309DF8422003
:104880009DF8411084E80F009DF83C0005AC9DF8B0
:104890003F309DF83E209DF83D1084E80F009DF8C4
:1048A000380001AC9DF83B309DF83A209DF8391056
:1048B00084E80F009DF8370000909DF836309DF891
:1048C00035209DF83410AA4802F0B4F810220DA942
:1048D000A848FEF77CFE9DF8400009AC9DF84330E7
:1048E0009DF842209DF8411084E80F009DF83C009F
:1048F00005AC9DF83F309DF83E209DF83D1084E8C2
:104900000F009DF8380001AC9DF83B309DF83A202F
:104910009DF8391084E80F009DF8370000909DF84D
:1049200036309DF835209DF83410934802F082F817
:1049300092480DF1240C017BC47B837B427B8CE885
:104940001E00017A0DF1140CC47A837A427A8CE845
:104950001E0001790DF1040CC479837942798CE849
:104960001E00C1780091837842780178844802F073
:1049700061F812B010BD30B5824C054685B03A21C1
:104980002046FEF7C9FD2946674D06222846FEF758
:10499000FDFDC5212046FEF7BFFD062203A92846DE
:1049A000FEF715FE9DF80F009DF811209DF81010E0
:1049B0008DE807009DF80E309DF80D209DF80C1035
:1049C0005AA002F037F805B030BD2DE9F04192B0A1
:1049D000002461A002F02EF85FA002F02BF86AA07C
:1049E00002F028F868A002F025F89FED760B41F25E
:1049F000D47153EC102B75A002F01CF862A002F0E9
:104A000019F880A002F016F85FA002F013F8214612
:104A100001268BA002F00EF80227314697A002F083
:104A200009F803243946A4A002F004F8042521461D
:104A3000B0A001F0FFFF4FF0050844462946BCA096
:104A400001F0F8FF06252146C8A001F0F3FF072476
:104A50002946D5A001F0EEFF08252146E1A001F08E
:104A6000E9FF2946EEA001F0E5FF47A001F0E2FFD3
:104A700045A001F0DFFF38A001F0DCFF36A001F017
:104A8000D9FFF6A001F0D6FF4DA001F0D3FF01F051
:104A90002BFE0100FBD030291AD0312920D0F44C54
:104AA000322925D0332935D0342934D0352933D093
:104AB00041F28835362930D037292FD038292ED0E9
:104AC00039292DD0EBA001F0B5FF12B0BDE8F0817F
:104AD000EEA001F0AFFFE648001DFFF74CFFF4E742
:104AE000EFA001F0A7FFE248001D01F00BFAECE790
:104AF000F6A001F09FFF4FF40062FE49072000F08E
:104B000033FE207001280CD003280BD010220DA9F1
:104B10001448F1E126E22DE234E239E242E24BE2CE
:104B200056E219E21AE20000002041604D61632064
:104B300061646472657373203A20252E32783A25B9
:104B40002E32783A252E32783A252E32783A252E92
:104B500032783A252E3278200D0A0000004041605C
:104B60008C830008005041602C8300080060416085
:104B70005084000800704160F08300083401002078
:104B8000D082000800F541602F2F2F2F2D2D2D2DC5
:104B90002D2D2D2D2D2D2D2D2D2D2D2D2D2D2D2D45
:104BA0002D2D2D2D2D2D2D2D2D2D2D2D2D2D2D2D35
:104BB0002D2D2D2D2D2D2D2D2D2D2D2F2F2F2F0D3D
:104BC0000A0000009A9999999999B93F2F2F2F2F90
:104BD00057495A6E657420434F2E4C544420572534
:104BE000642054455354204649524D574152452064
:104BF00056657273696F6E20252E3266202F2F2F17
:104C00002F0D0A002F2F2F2F2D2D2D2D2D4D454EE1
:104C1000552D2D2D2D2D2D2D2D2D2D2D2D2D2D2D9C
:104C20002D2D2D2D2D2D2D2D2D2D2D2D2D2D2D2DB4
:104C30002D2D2D2D2D2D2D2F2F2F2F0D0A00000066
:104C40002F2F2F2F2D2D253264203A2073657420AD
:104C50004D41432041646472657373202D2D2D2DC9
:104C60002D2D2D2D2D2D2D2D2D2D2D2D2D2D2D2D74
:104C70002D2D2D2D2F2F2F2F0D0A00002F2F2F2FF1
:104C80002D2D253264203A204475706C696361745F
:104C9000655F416464726573735F446574656374D2
:104CA000696F6E202D2D2D2D2D2D2D2D2D2D2D2D82
:104CB0002F2F2F2F0D0A00002F2F2F2F2D2D2532B4
:104CC00064203A20416464726573735F4175746F48
:104CD0005F436F6E6669675F5241202D2D2D2D2D2C
:104CE0002D2D2D2D2D2D2D2D2D2D2D2D2F2F2F2FEC
:104CF0000D0A00002F2F2F2F2D2D253264203A2052
:104D0000416464726573735F4175746F5F436F6E66
:104D10006669675F73746174656C6573735F44483B
:104D20004350202D2D2D2D2D2F2F2F2F0D0A00001C
:104D30002F2F2F2F2D2D253264203A2041646472AD
:104D40006573735F4175746F5F436F6E6669675F0C
:104D5000737461746566756C5F44484350202D2DF3
:104D60002D2D2D2D2F2F2F2F0D0A00002F2F2F2F00
:104D70002D2D253264203A20676574204D7920411D
:104D8000646472657373202D2D2D2D2D2D2D2D2DE9
:104D90002D2D2D2D2D2D2D2D2D2D2D2D2D2D2D2D43
:104DA0002F2F2F2F0D0A00002F2F2F2F2D2D2532C3
:104DB00064203A206C6F6F706261636B5F74637024
:104DC00073202D2D2D2D2D2D2D2D2D2D2D2D2D2DDA
:104DD0002D2D2D2D2D2D2D2D2D2D2D2D2F2F2F2FFB
:104DE0000D0A00002F2F2F2F2D2D253264203A2061
:104DF0006C6F6F706261636B5F75647073202D2DD3
:104E00002D2D2D2D2D2D2D2D2D2D2D2D2D2D2D2DD2
:104E10002D2D2D2D2D2D2D2D2F2F2F2F0D0A000057
:104E20002F2F2F2F2D2D253264203A206C6F6F707D
:104E30006261636B5F74637063202D2D2D2D2D2DAA
:104E40002D2D2D2D2D2D2D2D2D2D2D2D2D2D2D2D92
:104E50002D2D2D2D2F2F2F2F0D0A0000494E50558F
:104E60005420434F4D4D414E44203A200000000055
:104E7000C8000020256320697320434F4D4D414EEB
:104E800044204552524F5221210D0A0025632069CA
:104E90007320536574204D414321210D0A00000009
:104EA0002563206973204475706C69636174655F64
:104EB000416464726573735F446574656374696F9C
:104EC0006E205445535421210D0A000025632069AA
:104ED0007320416464726573735F4175746F5F43DF
:104EE0006F6E6669675F5241205445535421210D0E
:104EF0000A00000064010020FEF769FB9DF84000F5
:104F000009AC9DF843309DF842209DF8411084E89B
:104F10000F009DF83C0005AC9DF83F309DF83E2009
:104F20009DF83D1084E80F009DF8380001AC9DF815
:104F30003B309DF83A209DF8391084E80F009DF829
:104F4000370000909DF836309DF835209DF83410DC
:104F500050A001F06FFDB8E55EA000E06D4801F0E3
:104F600069FDB2E56CA001F065FD7849072000F00D
:104F700091F9AAE576A001F05DFD7449072000F0E3
:104F8000ABFAA2E57FA001F055FDFFF7F1FB9CE530
:104F900087A001F04FFD17236C4A29460020FCF73B
:104FA00073FBF8E78BA001F045FD17232A466749FC
:104FB0000020FCF74CFDF8E78FA001F03BFD172522
:104FC00000956388954A61490020FCF760FCF7E78B
:104FD00093A001F02FFD20218DF800108DF80160C5
:104FE0008DF80270B8218DF80310102000218DF883
:104FF00004108DF810008DF80500FF208DF80600D4
:10500000FE208DF8070031208DF8080071208DF802
:10501000090098208DF80A0070208DF80C002420DB
:105020008DF80D004B208DF80E00B1208DF80F008B
:105030008DF80B806846FDF7C1FB46E501F0C6F927
:1050400001F028FB01F09AFA4FF47A7001F0B6FAF9
:1050500078497948FCF743FE01F0F6FA01F096F83A
:105060003C2001F08DF86D48103001F05FFBFCF73B
:105070006AFE0028FBD07148FEF76AFA04467048C1
:10508000FEF766FA04EB00216EA001F0D3FCFFF7F7
:105090009CFCFCE7796F757220476C6F62616C2035
:1050A000495020697320257825783A257825783A63
:1050B000257825783A257825783A257825783A256F
:1050C0007825783A257825783A25782578200D0AAC
:1050D00000000000796F75206E6565642067657457
:1050E00020444E5320616464726573732E206D6595
:1050F0006E75206973206E756D6265722033207342
:10510000746174656C65737320444843507636202F
:105110000D0A00008C820008256320697320416419
:1051200064726573735F4175746F5F436F6E666918
:10513000675F53746174656C6573735F4448435073
:10514000205445535421210D0A0000006401002021
:10515000256320697320416464726573735F4175D0
:10516000746F5F436F6E6669675F537461746566E1
:10517000756C5F44484350205445535421210D0A17
:1051800000000000256320697320636865636B205D
:10519000796F7572206164647265737320736574CE
:1051A00074696E67205445535421210D0A00000094
:1051B0002563206973206C6F6F706261636B5F742D
:1051C00063702073657276657220544553542121B3
:1051D0000D0A00002563206973206C6F6F70626197
:1051E000636B5F75647020736572766572205445D9
:1051F000535421210D0A00002563206973206C6F30
:105200006F706261636B5F74637020636C69656E5D
:1052100074205445535421210D0A0000D20000206F
:105220002563206973204152502054455354212155
:105230000D0A00008368000877680008000300601A
:1052400000020060564552203A202578200D0A00C1
:105250007047FEE7FEE7FEE7FEE7704770477047DE
:1052600010B501F0A3F9BDE8104001F0C1B970B567
:10527000074D40F2255421462846FCF7D4F9002872
:1052800005D021462846BDE87040FCF7EBB970BD5B
:105290000010014030B591B001250024FFF7F3F96B
:1052A000FFF77AF800287DD002287CD00328FCD0B4
:1052B0000428F5D1002D77D006220DA9F748FEF776
:1052C00086F99DF837009DF839209DF838108DE853
:1052D00007009DF836309DF835209DF83410F0A079
:1052E00001F0A8FB10220DA9F948FEF770F99DF80E
:1052F000400009AC9DF843309DF842209DF84110D4
:1053000084E80F009DF83C0005AC9DF83F309DF807
:105310003E209DF83D1084E80F009DF8380001AC58
:105320009DF83B309DF83A209DF8391084E80F0035
:105330009DF8370000909DF836309DF835209DF897
:105340003410E44801F076FB10220DA9E248FEF784
:105350003EF99DF8400009AC9DF843309DF842208D
:105360009DF8411084E80F009DF83C0005AC9DF8C5
:105370003F309DF83E209DF83D1084E80F009DF8D9
:10538000380001AC9DF83B309DF83A209DF839106B
:1053900084E80F009DF8370000909DF836309DF8A6
:1053A000352002E091E058E054E09DF83410CB48FD
:1053B00001F040FB10220DA9C948FEF708F99DF83D
:1053C000400009AC9DF843309DF842209DF8411003
:1053D00084E80F009DF83C0005AC9DF83F309DF837
:1053E0003E209DF83D1084E80F009DF8380001AC88
:1053F0009DF83B309DF83A209DF8391084E80F0065
:105400009DF8370000909DF836309DF835209DF8C6
:105410003410B44801F00EFBB34809AD017BC47BE6
:10542000837B427B85E81E00017A05ADC47A837ACE
:10543000427A85E81E00017901ADC4798379427909
:1054400085E81E00C1780091837842780178A748EA
:1054500001F0F0FA012011B030BD04220DA9A448DA
:10546000FEF7B5F89DF8370000909DF836309DF8AE
:1054700035209DF834109FA001F0DCFA04220DA91C
:10548000A348FEF7A4F89DF8370000909DF8363049
:105490009DF835209DF834109EA001F0CBFA04222F
:1054A0000DA9A348FEF793F89DF8370000909DF8EA
:1054B00036309DF835209DF834109EA001F0BAFAE0
:1054C00000252846FDF7ECF9EAE6641C032CFBD91D
:1054D0000024FFF712F8E3E630B591B0012500246F
:1054E000FFF7D1F8FEF786FF00287DD002287CD098
:1054F0000328FCD00428F5D1002D77D006220DA971
:105500006648FEF764F89DF837009DF839209DF84D
:1055100038108DE807009DF836309DF835209DF84D
:1055200034105FA001F086FA10220DA96848FEF73A
:105530004EF89DF8400009AC9DF843309DF842209C
:105540009DF8411084E80F009DF83C0005AC9DF8E3
:105550003F309DF83E209DF83D1084E80F009DF8F7
:10556000380001AC9DF83B309DF83A209DF8391089
:1055700084E80F009DF8370000909DF836309DF8C4
:1055800035209DF83410534801F054FA10220DA92B
:105590005148FEF71CF89DF8400009AC9DF84330D7
:1055A0009DF842209DF8411084E80F009DF83C00D2
:1055B00005AC9DF83F309DF83E209DF83D1084E8F5
:1055C0000F009DF8380001AC9DF83B309DF83A2063
:1055D0009DF8391084E80F009DF8370000909DF881
:1055E00036309DF8352002E0B7E0B1E054E09DF898
:1055F00034103A4801F01EFA10220DA93848FDF780
:10560000E6FF9DF8400009AC9DF843309DF842202C
:105610009DF8411084E80F009DF83C0005AC9DF812
:105620003F309DF83E209DF83D1084E80F009DF826
:10563000380001AC9DF83B309DF83A209DF83910B8
:1056400084E80F009DF8370000909DF836309DF8F3
:1056500035209DF83410234801F0ECF9224809ADBB
:10566000017BC47B837B427B85E81E00017A05AD0C
:10567000C47A837A427A85E81E00017901ADC47943
:105680008379427985E81E00C17800918378427859
:105690000178164801F0CEF90120DCE600204160D7
:1056A0004D61632061646472657373203A20252E16
:1056B00032783A252E32783A252E32783A252E3213
:1056C000783A252E32783A252E3278200D0A0000BD
:1056D000004041608C830008005041602C8300082A
:1056E00000704160F083000834010020D08200087F
:1056F000003041603E2044484350204757203A2024
:1057000025642E25642E25642E25640D0A000000D4
:10571000003441603E204448435020534E203A20FC
:1057200025642E25642E25642E25640D0A000000B4
:10573000003841603E2044484350204950203A20E0
:1057400025642E25642E25642E25640D0A00000094
:1057500000252846FDF7A4F8C4E6641C032CFBD9F9
:10576000FEF7CBFE002076E62DE9F74F9CB0002037
:10577000119012901390149091460E46FB4801F040
:1057800059F9FB4801F056F9FA4801F053F9FA4C7F
:105790002046FDF7DDFE30B1F8A001F04BF9FE2008
:1057A0001FB0BDE8F08F0421FC48FDF7B5FEFC49B1
:1057B0001C9801EB40103A21FDF7AEFE00231A467B
:1057C0000B211C98FDF79EF8F6491C9801EB401040
:1057D000FDF7BEFE0146F4A001F02CF90F21F648BA
:1057E000FDF79AFEA021F548FDF796FE0021F4484A
:1057F000FDF792FE02212046FDF78EFEF1A001F09A
:1058000019F91C98FDF71DFF002864DD19A91AA8D5
:10581000CDE900010DAB0FFA89F231461C98FDF776
:10582000BDFB85B22A469DF86410EBA001F002F999
:1058300000240FE0315DF1A001F0FCF8F1A001F0CF
:10584000F9F86007B0F1604F03D1AFF2801001F0BA
:10585000F1F8641CAC42EDDBAFF2901001F0EAF815
:105860009DF8400009AC9DF843309DF842209DF81A
:10587000411084E80F009DF83C0005AC9DF83F30D6
:105880009DF83E209DF83D1084E80F009DF83800FB
:1058900001AC9DF83B309DF83A209DF8391084E822
:1058A0000F009DF8370000909DF836309DF83520A8
:1058B0009DF83410D4A001F0BDF8E24C3A21204606
:1058C000FDF72AFE10220DA9DF48FDF75FFEC52176
:1058D0002046FDF721FE30783446862891D104EB2E
:1058E000050BDAA001F0A6F82178DAA001F0A2F801
:1058F0006178DCA001F09EF8607900900146DDA09F
:1059000001F098F8A079E17901EB002081B2DDA0E7
:1059100001F090F8207A617A000600EB0140A17A4C
:1059200000EB0120E17A0144DDA001F083F8207B47
:10593000617B000600EB0140A17B00EB0120E17BD5
:1059400010340144DDA004E1217804297ED006DC76
:10595000012915D0022915D0032904D120E00529F9
:1059600075D0192974D0DBA001F064F82178DCA08F
:1059700001F060F86078C006050E2946DCA009E059
:10598000DFA000E0E7A001F055F86078C006050E42
:105990002946EDA0A41C01F04DF82C44A41EDAE029
:1059A000EFA001F047F86078A41CC006050E294658
:1059B000E5A001F03FF867192578F4A02946BF1E3D
:1059C00001F038F86178F7A001F034F8A078E178B8
:1059D000000600EB0140217900EB012061790144D0
:1059E000F9A001F027F8A079E179000600EB014069
:1059F000217A00EB0120617A0A340144F8A001F019
:105A000019F8102215A9FD48241DFDF7E0FD00201E
:105A100011A9FF220DF1540807E014F801CB08F892
:105A200000C06B0700D10A54401CB0EBD50FF4DB6B
:105A3000DFF810A23A215046FDF76EFD102215A99D
:105A4000EF48FDF7A3FD102211A902E027E028E0AE
:105A500029E0EC48FDF79AFDC5215046FDF75CFDB5
:105A600000E0641CBC42FCD1E7A000F0E3FF00278B
:105A7000DFF8A0A30CE018F8071060A000F0DAFF30
:105A800007EA0A00012802D1E3A000F0D3FF7F1C3F
:105A9000B7EBD50FEFDBE1A000F0CCFF5BE0E0A0BF
:105AA00071E7E9A06FE7EFA000F0C4FF6078A41CE5
:105AB000C006050E2946A4A000F0BCFFA078E1783E
:105AC000000600EB01402179254400EB01206179BB
:105AD000AD1E0144EEA000F0ADFFF34FA079387089
