:020000040800F2
:1000000080230020F1180008F9410008D9410008B8
:10001000E9410008194200080942000800000000F8
:10002000000000000000000000000000ED180008C3
:10003000ED18000800000000ED180008ED18000899
:10004000ED180008ED180008ED180008ED1800087C
:10005000ED180008ED180008ED180008ED1800086C
:10006000ED180008ED180008ED180008ED1800085C
:10007000ED180008ED180008ED180008ED1800084C
:10008000ED180008ED180008ED180008ED1800083C
:10009000ED180008ED180008ED180008ED1800082C
:1000A000ED180008ED180008ED180008ED1800081C
:1000B00095420008ED180008ED180008ED1800083A
:1000C000ED180008ED180008ED180008ED180008FC
:1000D000ED180008ED180008ED180008ED180008EC
:1000E000ED180008ED180008ED180008ED180008DC
:1000F000ED180008ED180008ED180008ED180008CC
:10010000ED180008ED180008ED180008ED180008BB
:10011000ED180008ED180008ED180008ED180008AB
:10012000ED180008ED180008ED180008ED1800089B
:100130005FF808F107282AD8F8B54501083505F514
:10014000805607461021304601F018FF304601F076
:1001500047FF04460028F9D105F52050FF2101F0A2
:100160000DFF01220B4B02FA07F11A8803EB47003F
:1001700022EA01021F4405F540551A8084803C752F
:10018000284601F02DFF0028FAD10120F8BD4FF0DC
:10019000FF307047040A0020072800F281802DE913
:1001A000F04101F00F040F2C82B076D01F460123DE
:1001B000164646F68C62A34013428846054648D050
:1001C0003B0761D147B1B8F1010F5AD0B8F1020F26
:1001D00002D117F0E00F57D06C0128460834FFF722
:1001E000A9FF48EA0701204601F0C8FE002E3ED0D4
:1001F000310AF6B204F58A38404601F0BFFE3146B6
:1002000008F5807004F5805601F0B8FE30460121F3
:1002100001F0B4FE304601F0E3FE0028FAD10121DE
:10022000214A0F401388A94023EA0103AF401F432E
:1002300002EB4501531904F5405417808880187566
:10024000204601F0CDFE0028FAD068B202B0BDE829
:10025000F0819A0721D5042214480DEB020101F028
:100260002DFF019B6FF00200002BA9D1EEE74FF6A6
:10027000F0710F4A1688731C9BB28B4207D0138013
:10028000B6E717F0610FA7D16FF00500DEE74FF476
:100290008063EF26FF211380ACE76FF00400D5E701
:1002A0004FF0FF30704700BF040A002000384100C3
:1002B0000000002007282FD870B5440108340546F7
:1002C000204601F08DFE00F00F000D2821D80123FB
:1002D00042F20222834013421BD004F540563046BE
:1002E00001F07EFE132811D104F58054204602212E
:1002F00001F044FE204601F073FE0028FAD130469A
:1003000001F06EFE14280AD1012070BD6FF00200CA
:1003100070BD6FF0040070BD4FF0FF30704728468D
:10032000FFF708FF6FF0030070BD00BF07283DD83E
:10033000F8B5440104F108050746284601F050FECF
:1003400000F00F000D282ED8012342F2022203FAFA
:1003500000F0104227D005F580542046082101F016
:100360000DFE204601F03CFE0028FAD1114B1B88FF
:100370003B41DA0710D405F5405605F5005504E079
:10038000284601F02DFE030707D4304601F028FE71
:100390000028F5D10120F8BDF8BD3846FFF7CAFEA8
:1003A0006FF00C00F8BD6FF00400F8BD4FF0FF30A7
:1003B000704700BF040A0020072800F290802DE952
:1003C000F04F4FEA401B83B00BF1080B00905846EA
:1003D0001446019101F004FE00F00F000D2879D8B9
:1003E000012342F2022203FA00F0104272D00BF510
:1003F0004056304601F0F4FD172801D01C2871D179
:100400000BF5003001F0ECFD8502ADB20127A542ED
:1004100028BF2546009B0BF50138DFF8D4A09F408C
:1004200008F58079404601F0DBFD0446484601F0BE
:10043000D7FD00EB0424304601F0D2FD1728A4B20A
:1004400001D01C2831D1BAF800303B422AD0AC424E
:100450003CD3019900982A460BF5805401F06CFEBC
:100460002046202101F08AFD204601F0B9FD002838
:10047000FAD10BF50054204601F0B2FD10F0100740
:100480001BD1304601F0ACFD1728F4D01C28F2D067
:10049000164804F05DFB0098FFF74CFE384603B0A9
:1004A000BDE8F08FAC42BDD3D3E70098FFF742FE22
:1004B0006FF0060003B0BDE8F08F0BF5205010215F
:1004C00001F05CFD284603B0BDE8F08F002003B0CA
:1004D000BDE8F08F6FF0040003B0BDE8F08F4FF07F
:1004E000FF3070476FF00600E4E700BF7499000822
:1004F000040A0020072865D82DE9F04F450185B092
:1005000008350290074628461446039101F068FD1D
:1005100000F00F000D285BD8012642F2022306FAF4
:1005200000F0184254D0002C4FD005F5083001F0EF
:1005300057FD80021FFA80FA544528BF544605F53E
:10054000013B0BF58073DFF89080BE40019305F509
:100550004057384601F044FD17280FD01C2829D1F8
:100560008CB9584601F03CFD8146019801F038FDF8
:100570004FEA09239BB2034453451BD0B8F800301F
:10058000334214D07CB10399029805F58055224678
:1005900001F0FCFD2846402101F0F0FC284601F066
:1005A0001FFD0028FAD1204605B0BDE8F08F002CD1
:1005B000CFD0E8E70298FFF7BDFD6FF0060005B069
:1005C000BDE8F08F4FF0FF3070476FF00D00EBE7A4
:1005D0006FF00400E8E700BF040A00202DE9F04FA7
:1005E00085B09DF83C400728BDF83860019400F2C2
:1005F0000081102C00F0B4804FEA401B0BF1080B77
:10060000029058461C469046039101F0E9FC00F028
:100610000F000F2800F0DC80012344F68C4203FA1F
:1006200000F0104200F0D480019B102B04F1FF3346
:1006300000F0A180E11C02E08B4200F0A68013F8DC
:10064000012F002AF8D0584601F0CAFC56B90B28F1
:1006500008D000F0FB00032804D06FF00A0005B0BA
:10066000BDE8F08F0BF54057384601F0B9FC422841
:100670000AD0222808D03238C0B2012804D96FF03D
:10068000060005B0BDE8F08F019B102B00F08E80B6
:10069000019B042B40F0818021461A460BF59030D7
:1006A00001F0CEFC0BF5A034310A204601F066FCC7
:1006B000F1B204F5807001F061FC0BF5003001F03F
:1006C0008FFC01268502ADB24545029B28BF4546F9
:1006D000DFF828A10BF501389E4008F580794046E7
:1006E00001F07EFC0446484601F07AFC00EB04244D
:1006F0003846A4B201F074FC002837D0BAF80030B4
:1007000033422AD0A5424DD8039902982A4601F0D7
:1007100013FD019B102B5ED0019B042B3DD10BF5EB
:1007200080542046202101F029FC204601F058FC8D
:100730000028FAD10BF5005401E003073DD4204610
:1007400001F04EFCC206F8D50BF52050102101F047
:1007500015FC284605B0BDE8F08FA542BFD8D3E709
:10076000002A7FF449AF6FF00D0078E76FF00300C7
:1007700005B0BDE8F08F04F10F0101E0994204D00B
:1007800013F8012F002AF9D05DE7584601F028FC44
:1007900000F0070007283FF456AF6FF00B0005B0DC
:1007A000BDE8F08F002005B0BDE8F08F21461A4665
:1007B0000BF5983001F044FC74E70BF5205008214C
:1007C00001F0DCFB0C4804F0C3F96FF00C0046E7C5
:1007D0006FF0040043E7584601F002FC00F00F0000
:1007E0000228DAD00BF580542046A02101F0C6FB88
:1007F0009BE74FF0FF3032E788990008040A002099
:10080000072800F2DC802DE9F04F4401083489B05C
:10081000054620469A469046894601F0E1FB00F0E5
:100820000F030F2B024600F0CD80012044F68C41CF
:1008300000FA03F30B4200F0C580B8F1000F00F09E
:10084000F680B54E05FA00F7F119B1F804B0BBF126
:10085000000F32D044F20442134240F0948040F63C
:10086000080213EA020040F0B08083461B0600F144
:1008700097804146284601F0B5FCF31904F58054F1
:10088000A3F804804021204601F078FB204601F0C7
:10089000A7FB0028FAD13744BB883544A3EB0B03F0
:1008A0009BB2BB803BB12B7D43F001032B755846B7
:1008B00009B0BDE8F08F2B75F9E704F540500391BE
:1008C0000293019201F08CFB002800F0B38044F207
:1008D0000440029B019A0342039900F0B480B1F8EE
:1008E00004B0BBF1000F4ED1022206A9284601F048
:1008F0004DFC9DF818301399DA09019214BF1022AB
:10090000042204F580549DF819B003F007030A701F
:10091000204640218DF818300BEB032B01F02EFB05
:10092000204601F05DFB0028FAD1019B5146002BC7
:1009300058D10422284601F029FC4021204601F02C
:100940001DFB204601F04CFB0028FAD1022205A92C
:10095000284601F01BFC9DF814209DF8153040211D
:1009600003EB0223129A2046138001F007FB204676
:1009700001F036FB0028FAD180217219F3191175A4
:10098000A3F804B001E004F58054D84528BFD84648
:100990001FFA88FB49465A46284601F0F7FB71E7E3
:1009A000F319988804F5805408B3804528BF804621
:1009B000494642462846C34601F0E8FB62E74FF04D
:1009C000FF3070476FF0040072E704F58054C345B0
:1009D00028BFC3461FFA8BFB49465A46284601F0FA
:1009E000D5FB4FE71022284601F0D0FBA5E706A96A
:1009F0002846022201F0CAFB2046402101F0BEFA3F
:100A0000204601F0EDFA0028FAD140F2EA539DF8B1
:100A100019009DF81820023800EB022080B2F2196C
:100A20009842908009D8802273191A75BDE76FF03B
:100A30000D003DE76FF003003AE72846FFF77AFB29
:100A40006FF47A7034E740F60800034201D1C346E0
:100A50000CE7B1F804B0BBF1000FB6D1032A33D0D4
:100A60000B2A2ED106A92846022201F08FFB9DF801
:100A700018B004F580549DF819300BF0070B204690
:100A800040218DF818B003EB0B2B01F077FA2046CC
:100A900001F0A6FA0028FAD151462846102201F0AA
:100AA00075FB4021204601F069FA204601F098FAD2
:100AB0000028FAD180217219F3191175A3F804B036
:100AC00085E76FF00600F3E606A92846022201F04A
:100AD0005DFB9DF818309DF819B004F580540BEBC0
:100AE000032B204640211FFA8BFB01F047FA2046DA
:100AF00001F076FA0028FAD151462846042201F086
:100B000045FB4021204601F039FA204601F068FA01
:100B10000028FAD1CEE700BF040A0020274A038844
:100B200090429BB212D002F5006290420ED0B0F11A
:100B3000804F0BD0A2F59832904207D002F5806228
:100B4000904203D002F58062904203D14A8823F09C
:100B5000700313431A4A904227D002F580629042F4
:100B600023D070B423F44073CE888D880C889BB258
:100B700002F58C32334390420380858504850ED084
:100B8000104B98420BD003F54063984207D003F511
:100B90008063984203D003F58063984201D10B7AB9
:100BA0000386012370BC8382704703808B88838512
:100BB0000B88038501238382704700BF002C01400E
:100BC0000010004000340140038829B923F00103DC
:100BD0001B041B0C038070479BB243F0010303808E
:100BE000704700BF83899BB21AB923EA0101818152
:100BF0007047194381817047FFF7F4BF81857047C3
:100C0000C94389B20182704730B400244FF41F05F4
:100C10003A4B3B49186882B040F0010018605868B0
:100C20001A4601405960196821F0847121F480311D
:100C30001960196821F480211960596821F4FE01B6
:100C400059609D6000940194196841F480311960E5
:100C500003E0009BB3F5A06F09D0136803F40033E1
:100C60000193009B01330093019B002BF1D0234B98
:100C70001B6813F4003318BF01230193019B012B60
:100C800006D04FF000621F4B9A6002B030BC704734
:100C90001D491A4B08681A4640F0100008600868A1
:100CA00020F003000860086840F0020008605968FE
:100CB000596059685960596841F4806159605968B0
:100CC00021F47C115960596841F4E81159601968A0
:100CD00041F08071196013689B01FCD55368074986
:100CE00023F003035360536843F0020353604B68DF
:100CF00003F00C03082BFAD1C3E700BF0010024039
:100D00000000FFF800ED00E0002002402DE9F04176
:100D100092B003F0B7F800240125DFF8A082984FC5
:100D2000984E02F0C9FF0428FBD801A353F820F025
:100D30006F0F0008230D0008FF0E0008FF0E0008CB
:100D4000450D0008002D00F0D6800EA906228E4821
:100D500001F0B4F99DF83D509DF83C409DF83B00F2
:100D60009DF83A308DE831009DF839209DF8381013
:100D7000864803F083FE0EA91022854801F09EF9F3
:100D80009DF83D409DF83C009DF83B609DF8475024
:100D900002949DF8464001909DF8450000960C9500
:100DA0009DF844609DF843500B949DF842400A9092
:100DB0009DF84100099608959DF840609DF83F50C8
:100DC00007949DF83E409DF83A309DF839209DF8F3
:100DD000381006906F4805960495039403F04EFE74
:100DE0000EA910226C4801F069F99DF83D409DF86C
:100DF0003C009DF83B609DF8475002949DF84640AA
:100E000001909DF8450000960C959DF844609DF872
:100E100043500B949DF842400A909DF8410009967A
:100E200008959DF840609DF83F5007949DF83E401E
:100E30009DF83A309DF839209DF8381006905748B3
:100E400005960495039403F019FE0EA91022544848
:100E500001F034F99DF83B409DF83D609DF83C5011
:100E600000949DF843409DF847009DF84670029617
:100E700001959DF845609DF8445008949DF83E40CA
:100E80000C909DF842000B970A969DF841709DF8D2
:100E90004060099503949DF83F50424C9DF83A30CC
:100EA0009DF839209DF8381007903F480697059621
:100EB000049503F0E3FD67792679E578A3786278F5
:100EC00021780297E77B0196A67B0095657B0C97BE
:100ED000277B0B96E67A0A95A57A0997677A089692
:100EE000267A0795E579A479304806970596049502
:100EF000039403F0C3FD012012B0BDE8F0810EA9F8
:100F00000422404601F0DAF89DF83B009DF83A30A3
:100F10009DF839209DF838100090384603F0AEFD5A
:100F20000EA90422304601F0C9F89DF83B009DF857
:100F30003A309DF839209DF8381000901C4803F095
:100F40009DFD0EA904221B4801F0B8F89DF83B0056
:100F50009DF83A309DF839209DF8381000901648D9
:100F600003F08CFD0020FFF7E5F80025D9E60134F9
:100F7000032C7FF6D6AE02F077FF0024D1E600BF47
:100F8000949900080034410000204100E8990008CD
:100F900000404100189A0008005041007C9A000867
:100FA0000070410024120020DC9A00083C9B0008DD
:100FB000B099000800384100CC9900080030410089
:100FC000F0B593B002F05EFF0024012502F0AAFE06
:100FD0000428FBD801A353F820F000BF0310000839
:100FE000CD0F0008F90F0008F90F0008F10F0008F5
:100FF00075B9012013B0F0BD0020FFF79BF8002564
:10100000E4E70134032CE1D902F02EFF0020F1E7E0
:101010000EA906226B4801F051F89DF83D509DF84D
:101020003C409DF83B009DF83A308DE831009DF83A
:1010300039209DF83810644803F020FD0EA91022D5
:10104000624801F03BF89DF83D409DF83C009DF85A
:101050003B609DF8475002949DF8464001909DF8F2
:10106000450000960C959DF844609DF843500B9404
:101070009DF842400A909DF84100099608959DF818
:1010800040609DF83F5007949DF83E409DF83A30EF
:101090009DF839209DF8381006904D480596049526
:1010A000039403F0EBFC0EA910224A4801F006F865
:1010B0009DF83D409DF83C009DF83B609DF84750F1
:1010C00002949DF8464001909DF8450000960C95CD
:1010D0009DF844609DF843500B949DF842400A905F
:1010E0009DF84100099608959DF840609DF83F5095
:1010F00007949DF83E409DF83A309DF839209DF8C0
:1011000038100690344805960495039403F0B6FC15
:101110000EA91022314800F0D1FF9DF83B409DF808
:101120003D609DF83C5000949DF843409DF8470079
:101130009DF84670029601959DF845609DF84450D3
:1011400008949DF83E400C909DF842000B970A963B
:101150009DF841709DF84060099503949DF83F50BB
:101160001F4C9DF83A309DF839209DF838100790B3
:101170001C4806970596049503F080FC677926794C
:10118000A37862782178E5780297E77B0196A67BC1
:101190000095657B0C97277B0B96E67A0A95A57AD6
:1011A0000997677A0896267A0795E579A4790E4813
:1011B000069705960495039403F060FC012013B094
:1011C000F0BD00BF00204100E89900080040410048
:1011D000189A0008005041007C9A000800704100F5
:1011E00024120020DC9A00083C9B00082DE9F04FF7
:1011F000044699B08C480D46174603F0A9FC8B486D
:1012000003F0A6FC8A4803F0A3FC8A4800F0E8FE3D
:1012100038B1FE26884803F09BFC304619B0BDE883
:10122000F08F06464FEA441808F108080421834865
:1012300000F0A4FE08F580303A2100F09FFE33460E
:1012400032460B212046FEF7A7FF08F5405000F07C
:10125000C7FE01467A4803F011FC0F21794800F0DF
:101260008DFEA021784800F089FE3146774800F0D5
:1012700085FE02216F4800F081FE754803F068FC8E
:10128000DFF8F8A1DFF8F891DFF8F88102E02B78B9
:10129000862B4FD0204601F007F80028F7D0042114
:1012A000504603F0EBFB0DF13B010DF13E0210AB9C
:1012B0000191009229463A462046FFF7A1FA9DF88F
:1012C00044E09DF8436080B28DE840409DF84F6057
:1012D000ADF83C009DF84E000C969DF84D600B90CB
:1012E0009DF84C000A969DF84B6009909DF84A00C5
:1012F00008969DF8496007909DF8480006969DF86D
:10130000476005909DF8460004969DF845609DF85D
:1013100042309DF841209DF84010039048460296C7
:1013200003F0ACFB10A91022404600F089FE2B7898
:10133000862BAFD14748BDF83C8003F009FC2978E3
:10134000454803F09BFB6978444803F097FB6E79AE
:101350004348314603F092FBAB79E979414801EB10
:10136000032189B203F08AFB6B7A297AEA7A1B049B
:1013700003EB0163A97A134403EB01213A4803F01C
:101380007DFB6B7B297BEA7B1B0403EB0163A97B61
:1013900013441FFA88F8A84403EB012105F1100952
:1013A000324803F06BFBC84532D999F80030013B55
:1013B000182B00F27781DFE813F0DF0019006700D7
:1013C00072016F0175017501750175017501750176
:1013D000750175017501750175017501750175015D
:1013E00075017501750175017501E2000221204842
:1013F00003F044FB99F801501E48ED00EDB2294678
:1014000003F03CFB09F10209023DA944C145CCD3DC
:10141000B6092046FEF78EFE3146174803F02EFB34
:10142000304619B0BDE8F08F989B0008E09B00089B
:10143000249C000800302100689C000800F0410056
:10144000849C00080008420000094200000C420091
:10145000949C0008F09C0008F49C0008049D00087F
:10146000149D0008249D0008409D00085C9D000814
:10147000BC9D0008A49D0008749D0008A49C000861
:10148000B49C00080070410003219A4803F0F6FA6A
:1014900099F801509848ED00EDB2294603F0EEFAB4
:1014A00099F802709548394603F0E8FA99F8031064
:1014B000934803F0E3FA99F8053099F8041099F885
:1014C00007201B0403EB016399F80610134403EB98
:1014D00001218C4803F0D2FA99F8093099F80810E4
:1014E00099F80B201B0403EB016399F80A101344CD
:1014F00003EB0121844803F0C1FA102214A98348A8
:101500004D44914400F0DAFDFF0800F0E6800DF153
:101510004F0309EB070119F8012B894503F8012F47
:10152000F9D114A910227A4800F08AFDA94500F0EB
:10153000D0807848A94603F0A1FACFB19DF85010A9
:10154000754803F09BFA0025DFF8CCB10DF1510A84
:101550000135BD420CD01AF8011B584603F08EFA33
:10156000EA07F5D53A20013503F09CFABD42F2D1E5
:101570006A4803F0EDFA49E70121694838E7192183
:10158000684803F07BFA99F801505B48ED00EDB232
:10159000294603F073FA99F8053099F8041099F880
:1015A00007201B0403EB016399F80610134403EBB7
:1015B00001215D4803F062FADFF890A199F8083044
:1015C0004D448AF8003099F8092009F118038AF887
:1015D000012099F80A20AB428AF8022099F80B20E2
:1015E00052488AF8032099F80C20514F8AF80420B9
:1015F00099F80D20DFF820B18AF8052099F80E201F
:101600008AF8062099F80F208AF8072099F8102008
:101610008AF8082099F811208AF8092099F81220F0
:101620008AF80A2099F813208AF80B2099F81420D8
:101630008AF80C2099F815208AF80D2099F81620C0
:101640008AF80E2099F817201CBFA5EB0909A9F10B
:1016500018098AF80F2014BF9944994603F00EFA2E
:101660009AF800102C4803F009FA002501350F2DD7
:101670000CD017F8011B584603F000FAEB07F5D51C
:101680003A20013503F00EFA0F2DF2D19AF80F101F
:10169000284803F0F3F9B9E605212748A8E6042114
:1016A0002648A5E64D46264803F052FA15F8021BD7
:1016B000244803F0E3F999F8019023484FEAC90957
:1016C0005FFA89F94946A9F1020903F0D7F9A9445B
:1016D0009CE6104803F0D2F930E714A910220C4818
:1016E00000F0AEFCA9457FF424AF0A4803F0C6F928
:1016F0003EE700BFE09D0008A49D00080C9E000886
:10170000249E0008489E0008609E0008004041009A
:10171000005041007C9E0008889E0008909E0008B2
:10172000809D0008D89E0008049F00081C9F0008A8
:1017300025120020289F0008BC9E0008949E0008E7
:10174000309F00083C9F00084C9F00082412002096
:101750000023F0B5044697B054480E930F931093AE
:10176000119303F0F5F9524803F0F2F9514803F0F0
:10177000EFF90721504800F001FCD0214F4800F05C
:10178000FDFB05214E4800F0F9FB8025FE22FF21DC
:1017900023786678A07883F002038DF84030E778EC
:1017A0008DF84160637926798DF842000EA88DF896
:1017B00045708DF846608DF847308DF838208DF8EB
:1017C00044208DF839508DF8431000F09DFD3D48C0
:1017D00000F006FC38B13B4800F002FC01463A48F4
:1017E00003F04CF9FEE704210446364800F0C6FB3E
:1017F000364803F0ADF9364E304600F0F1FB0206F4
:1018000005460CD44307F7D5324803F0A1F9FF246D
:101810002946314800F0B2FB204617B0F0BD2F48F2
:1018200003F096F93A212E4800F0A8FB0EA91022E9
:101830002C4800F005FC0021294800F09FFB12A96C
:101840001022284800F03AFC9DF84D609DF84C00AD
:101850009DF84B7002969DF8576001909DF85600D8
:1018600000970C969DF855709DF854600B909DF86C
:1018700053000A9709969DF852709DF851600890A0
:101880009DF85000079706969DF84F709DF84E60A2
:1018900005909DF84A309DF849209DF8481012485F
:1018A0000497039603F0EAF8B2E700BF5C9F0008D4
:1018B000949F0008C89F00080008420000094200E9
:1018C000000C420000302100FC9F000820A000080E
:1018D000000221009CA000080028210030A0000880
:1018E00000F54100004041004CA00008FEE700BFA9
:1018F00008B5104A104B93420CD2D843104420F044
:10190000030004300D4A184452F8041B43F8041B2A
:101910008342F9D10A480B494FF000028842B8BF10
:1019200040F8042BFADBFFF76FF9BDE8084000F040
:10193000D9BA00BF040A00200000002008AE000849
:10194000040A00207C1300202DE9F041CD78EB063D
:1019500048BF8B78098805F00F0E48BF4EEA030E8A
:1019600011F0FF0F20D0002301274FF00F08066869
:1019700002E00133082B16D007FA03F232EA010421
:10198000F7D19C0008FA04FC26EA0C060EFA04F4CF
:10199000282D46EA040632D0482D03F1010308BF82
:1019A0000261082BE8D10660FF2924D90022082310
:1019B00001274FF00F08466804E00133102B02F1B5
:1019C000040217D007FA03F434EA010CF5D108FA3F
:1019D00002FC26EA0C06282D0EFA02FC4CEA06064A
:1019E0000BD0482D03F1010308BF0461102B02F155
:1019F0000402E7D14660BDE8F0814461DDE7426161
:101A0000B7E700BF01617047416170470AB94161A2
:101A100070470161704700BF10B5044602F048FCF2
:101A2000044402F045FC8442FBD810BD70B5064664
:101A3000134D144C86B028463A2100F09FFA3146E7
:101A40002046062200F0FCFA2846002100F096FA13
:101A5000204604A9062200F031FB9DF813009DF8F2
:101A600015509DF814409DF812308DE831009DF816
:101A700011209DF81010044803F000F806B070BD66
:101A800000F5410000204100E8990008F0B593B04E
:101A90000EA906226A4800F011FB9DF83D509DF802
:101AA0003C409DF83B009DF83A308DE831009DF8B0
:101AB00039209DF83810634802F0E0FF0EA910228B
:101AC000614800F0FBFA9DF83D409DF83C009DF810
:101AD0003B609DF8475002949DF8464001909DF868
:101AE000450000960C959DF844609DF843500B947A
:101AF0009DF842400A909DF84100099608959DF88E
:101B000040609DF83F5007949DF83E409DF83A3064
:101B10009DF839209DF8381006904C48059604959C
:101B2000039402F0ABFF0EA91022494800F0C6FA58
:101B30009DF83D409DF83C009DF83B609DF8475066
:101B400002949DF8464001909DF8450000960C9542
:101B50009DF844609DF843500B949DF842400A90D4
:101B60009DF84100099608959DF840609DF83F500A
:101B700007949DF83E409DF83A309DF839209DF835
:101B800038100690334805960495039402F076FFCA
:101B90000EA91022304800F091FA9DF83B409DF8C4
:101BA0003D609DF83C5000949DF843409DF84700EF
:101BB0009DF84670029601959DF845609DF8445049
:101BC00008949DF83E400C909DF842000B970A96B1
:101BD0009DF841709DF84060099503949DF83F5031
:101BE0001E4C9DF83A309DF839209DF8381007902A
:101BF0001B4806970596049502F040FF6779267901
:101C0000A37862782178E5780297E77B0196A67B36
:101C10000095657B0C97277B0B96E67A0A95A57A4B
:101C20000997677A0896267A0795E579A4790D4889
:101C3000069705960495039402F020FF13B0F0BDBB
:101C400000204100E899000800404100189A00086F
:101C5000005041007C9A00080070410024120020CE
:101C6000DC9A00083C9B0008F0B5814893B002F074
:101C70006FFF7F4802F06CFF7E4802F069FF7D48ED
:101C800002F066FF78A3D3E9002341F2D4717A48C9
:101C900002F0F4FE774802F05BFF784802F058FF4C
:101CA000744802F055FF0021754802F0E7FE01215B
:101CB000744802F0E3FE0221734802F0DFFE0321C4
:101CC000724802F0DBFE0421714802F0D7FE0521C4
:101CD000704802F0D3FE06216F4802F0CFFE0721C4
:101CE0006E4802F0CBFE634802F032FF614802F01A
:101CF0002FFF5F4802F02CFF5D4802F029FF684883
:101D000002F0BCFE0A2002F0CDFE02F087FB014685
:101D10000028FAD0302800F08480312879D0322889
:101D200031D0332826D0342800F08880352800F0C0
:101D30008E80362812D0372804D05A4802F09EFEF2
:101D400013B0F0BD584802F099FE584C172341F2E9
:101D500088322146002000F0C3FEF7E7544802F025
:101D60008DFE524C1723224641F28831002000F0AC
:101D700095FDF7E74F4802F081FE4C490720FEF73A
:101D8000C5FF13B0F0BD4C4802F078FE4FF400627E
:101D900046490720FFF72AFA484B0128187048D017
:101DA00003285BD00EA91022454800F087F99DF862
:101DB0003D609DF83C509DF83B409DF847009DF8E4
:101DC0004670029601959DF845609DF84450009438
:101DD0009DF843400C909DF842000B970A969DF8A1
:101DE00041709DF84060099508949DF83F509DF81A
:101DF0003E4007909DF83A309DF839209DF8381004
:101E00003048069705960495039402F037FE13B008
:101E1000F0BD2D4802F032FE2C48FFF799FC13B0BC
:101E2000F0BD2B4802F02AFE2848FFF7FFFD13B053
:101E3000F0BD284802F08CFE13B0F0BD264802F039
:101E40001DFE1A490720FFF7BBF813B0F0BD234869
:101E500002F014FEFFF71AFE13B0F0BD204802F0A6
:101E600077FE13B0F0BD00BF9A9999999999B93F3F
:101E700004A40008BCA00008F8A0000830A10008D5
:101E80006CA10008A8A10008E4A1000820A2000895
:101E90005CA2000898A20008D4A2000810A30008C1
:101EA0004CA3000864A5000840A50008200A0020F3
:101EB0001CA5000888A40008A0A30008D0120020D8
:101EC0000050410048A4000874A30008040000204A
:101ED00060A30008C8A30008BCA40008F0A4000880
:101EE00008A4000808B502F0E9F902F045FA02F08A
:101EF00097F91A4802F02CFE19491A4800F03EFAE8
:101F000019491A4800F028FA19491A4800F012FA3B
:101F100002F056FA02F0D4F80A20FFF77DFD02F035
:101F2000D7F80A20FFF778FD02F044F800F050FBE4
:101F30000028FBD04FF4007000F052F804464FF434
:101F4000407000F04DF84FF4007100EB04220A4895
:101F500002F094FDFFF788FEFCE700BF7CA50008B7
:101F60007540000845400008B5400008A940000839
:101F7000F1400008E14000088CA5000870B5054656
:101F8000164C82B0A3680E46984723699847636A47
:101F900045F004059BB1290C8DF8041004212A0A90
:101FA0008DF806508DF807608DF805200DEB0100C7
:101FB000984763699847E368984702B070BDE36942
:101FC000C5F307409847E369C5F307209847E8B28F
:101FD000E36998473046E3699847EAE70C00002038
:101FE00030B5164C83B0A3680546984723699847D7
:101FF000236AB3B1636AA3B1290C2A0A8DF80410CD
:102000008DF806508DF80520032101A89847A36993
:102010009847054663699847E3689847284603B0A0
:1020200030BDE369C5F307409847E369C5F307206E
:102030009847E8B2E3699847E9E700BF0C00002041
:10204000F0B505461C4C83B0A3680E46174698476A
:1020500023699847636A45F00405A3B1290C2A0A4D
:102060008DF8041001A803218DF806508DF8052085
:10207000984739463046636A984763699847E368EA
:10208000984703B0F0BDE369C5F307409847E3699B
:10209000C5F307209847E8B2E3699847002FECD0D2
:1020A000013FBFB23744013E16F8010FE36998477C
:1020B000BE42F9D1E1E700BF0C000020F0B51D4D94
:1020C00083B0AB6807460C46164698472B6998477D
:1020D0002B6AB3B16B6AA3B1390C3A0A8DF80410BC
:1020E00001A803218DF806708DF805209847314628
:1020F00020462B6A98476B699847EB68984703B06E
:10210000F0BDEB69C7F307409847EB69C7F30720B9
:102110009847F8B2EB699847002EECD0013EB6B272
:102120002644013CAB69984704F8010FB442F9D149
:10213000E1E700BF0C0000202DE9F8438600F50020
:1021400005F503350835284690468946FFF748FFD0
:1021500005F5807704463846FFF742FF00EB04247C
:10216000A4B2023620024444494600EBC60042466F
:10217000A4B2FFF765FF2846210AFFF7FFFEE1B290
:102180003846BDE8F843FFF7F9BE00BF02B9704713
:102190002DE9F8438500EE0006F50A36083630468C
:1021A00014468946FFF71CFF06F58078074640462F
:1021B000FFF716FF00EB0727BFB2224603353802B0
:1021C0003C44494600EBC500A4B2FFF777FF304618
:1021D000210AFFF7D3FEE1B24046BDE8F843FFF71E
:1021E000CDBE00BF40012DE9D84100F50A360836C2
:1021F00030460C46FFF7F4FE06F5807780463846F9
:10220000FFF7EEFE044404EB0824A4B23046210A92
:10221000FFF7B4FEE1B23846BDE8D841FFF7AEBEE5
:1022200010B50C4601460B48FFF7A8FE210A0A48E4
:10223000FFF7A4FEE1B20948FFF7A0FE012108481C
:10224000FFF79CFE064C2046FFF7CAFE0028FAD195
:1022500010BD00BF00083000000D3000000C300041
:102260000014300010B501460B48FFF787FE02212D
:102270000A48FFF783FE094C2046FFF7B1FE00280D
:10228000FAD10748FFF7ACFE04460648FFF7A8FE60
:1022900040EA042080B210BD000830000014300075
:1022A00000113000001030000023F0B5400183B071
:1022B00002AF00F509361D460836ADF8003027F8A4
:1022C000043D01E0A5421BD0022239463046FFF70B
:1022D000F5FE9DF804309DF8054004EB0324A4B2FC
:1022E000002CEFD0022269463046FFF7E7FE9DF84A
:1022F00000309DF8015005EB0325ADB2A542E3D1B6
:10230000284603B0F0BD00BF014610224FF4830001
:10231000FFF796BE704700BF0078704701707047A6
:1023200000207047704700BF704700BF704700BF74
:10233000704700BF054B18B111B19860D960704764
:102340000349044A9960DA60704700BF0C0000201E
:10235000292300082D230008054B18B111B118617D
:10236000596170470349044A19615A61704700BFB7
:102370000C0000203123000815230008074B1A88A1
:10238000920500D4FEE718B111B19861D961704788
:102390000349044A9961DA61704700BF0C000020CC
:1023A00021230008252300082DE9F04F344B99B074
:1023B000DFF8E0A0184606A9DFF8DC9006220193BA
:1023C000DFF8D880FFF77AFE504603A90422FFF712
:1023D00075FE2C4F484604A90422FFF76FFE2A4ED3
:1023E000404605A90422FFF769FE284D384608A992
:1023F0001022FFF763FE264C30460CA91022FFF78F
:102400005DFEDFF89CB0284610A91022FFF756FEAB
:102410001022204614A9FFF751FE58460021FFF76D
:10242000ADFD5846FFF7DCFD019B06A918460622C4
:10243000FFF706FE03A950460422FFF701FE04A998
:1024400048460422FFF7FCFD05A940460422FFF799
:10245000F7FD08A938461022FFF7F2FD0CA9304617
:102460001022FFF7EDFD10A928461022FFF7E8FD26
:1024700014A920461022FFF7E3FD19B0BDE8F08F44
:102480000020410000704100006041000040410018
:10249000005041000030410000344100003841004C
:1024A000000420002DE9F04105460E46FFF77CFFB1
:1024B000B5B16F1E3A460023E81D12F8011F0B4408
:1024C0005BB2102B26DC8242F7D1144CDFF8588027
:1024D000204617F8011F2034FFF750FD4445F7D17F
:1024E000AEB10023721E073612F8011F0B445BB217
:1024F000102B0FDC9642F7D1094C0A4E013D2046C5
:1025000015F8011F2034FFF739FDB442F7D1002040
:10251000BDE8F0814FF0FF30BDE8F0810800020017
:1025200008200200082102000801020070B50646DA
:102530000E48F1B2FFF722FD42F608050024360AE4
:1025400003E0082C05F120050ED046FA04F313F041
:10255000010F04F10104F4D028460F21FFF70EFD0E
:10256000082C05F12005F0D170BD00BF0008210046
:1025700010B54FF40410FFF733FD04460348FFF78E
:102580002FFD04EB002080B210BD00BF0001210030
:1025900010B504460448E1B2FFF7F0FC210A0348F5
:1025A000BDE81040FFF7EABC000421000014210040
:1025B00010B50548FFF714FD04460448FFF710FD69
:1025C00004EB002080B210BD0004210000142100A3
:1025D00008B54FF44010FFF703FD00F0010008BDFF
:1025E00008B50020FFF73EFE6FEA40416FEA514117
:1025F000002089B2FFF714FE0020FFF733FE03042A
:10260000FAD408BD10B504460020FFF72BFE63780E
:10261000012B18D0E378012B0FD020F4885189B218
:10262000A3780020BDE81040012B16BF21F4005113
:1026300041F4005189B2FFF7F3BD20F4805189B213
:1026400041F48071ECE740F4805189B20020BDE88C
:102650001040FFF7E5BD00BF10B504460020FFF7AE
:1026600001FE012310F4805123700BD110F480720D
:1026700018BF1A4610F400506170E27014BFA370C6
:10268000A07010BD637010BD10B504460020FFF7A8
:10269000E9FD012C03460BD04FF2FF7100201940D9
:1026A000FFF7BEFD0020FFF7DDFD40F3C02010BDA9
:1026B00040F4006189B20020FFF7B2FD0020FFF76F
:1026C000D1FD80F4006040F3C02010BD38B50C4649
:1026D0000F286CD8DFE800F01C2028082D32374284
:1026E0004E5D61660B0E6B130888FFF71FFF00231A
:1026F000184638BD0878BDE83840FFF7C5BF4FF42D
:102700004010FFF76DFC00F0010020700023EFE7A0
:10271000FFF74AFE0023EBE700294BD008312046A3
:10272000BDE83840FFF7BEBEFFF722FF0023208040
:10273000DEE70888FFF72CFF0023D9E7FFF738FF13
:1027400000232080D4E709881B48090AFFF716FCFC
:1027500021781A48FFF712FC0023C9E71648FFF753
:102760003FFC05461548FFF73BFC00EB05202080A9
:102770000023BDE70021124A0B4690782070D078E4
:1027800060701079A0705079E07092796171227157
:10279000AEE7FFF725FF0023AAE70846FFF732FF61
:1027A0000023A5E70846FFF757FF0023A0E74FF0F7
:1027B000FF339DE7B3E700BF00C5410000C64100FD
:1027C0000C000020234A10B4536803F00C03042BC0
:1027D00038D0082B25D00BB31F4A134602601D4981
:1027E0001E4A4C68C4F30314145DE34043604C6814
:1027F000C4F30224145D23FA04F484604C68C4F327
:10280000C224145DE340C360496810BCC1F3813148
:102810000A44127CB3FBF2F3036170470E4B036072
:10282000DDE753685168C3F38343C90303F102032F
:102830000BD5526892034CBF094A0A4A02FB03F3C4
:102840000360CCE7074B0360C9E7074A02FB03F3C9
:102850000360C4E70010024000127A003400002038
:10286000808D5B00001BB70000093D00044A93699E
:1028700019B923EA000090617047184390617047CE
:1028800000100240044AD36919B923EA0000D0615C
:1028900070471843D0617047001002402DE9F041A5
:1028A0004401083492B0064604F540501D4688465F
:1028B0001746FFF795FB1C2800F2B280DFE800F016
:1028C000A1B0B0B0B0B0B0B0B0B0B0B0B0B0B0B017
:1028D000B0B0B094B0B0B03EB0B0B0B00F003046C1
:1028E000FFF7E2FC002800F0A080B0F5006F28BFE1
:1028F0004FF40060394682B23046FDF7FBFD051EFD
:102900007BDD1FFA85F8B8F1000F00F08E800024FF
:1029100002E0A04500F08980A8EB0402391992B2C8
:102920003046FDF749FD051E2C44A4B2F1DA3046CD
:10293000FDF700FC284612B0BDE8F08104F5005018
:10294000FFF74EFBC30729D5172D00F08680042220
:102950000EA904F59030FFF7B1FB9DF83B009DF800
:102960003A3000909DF839209DF83810564802F012
:1029700085F804F5A0384046FFF732FB054608F518
:102980008070FFF72DFB00EB052189B24F4802F064
:1029900075F804F520500121FFF7F0FA3046FFF7F3
:1029A00083FC00283CD0B0F5006F28BF4FF40060D6
:1029B000394682B23046FDF79DFD051E1DDD1FFA2A
:1029C00085F8B8F1000F2BD0002401E0A04527D0F6
:1029D000A8EB0402391992B23046FDF7EDFC051E52
:1029E0002C44A4B2F2DAA2E742463146384802F05B
:1029F00045F83046FDF75EFC0546284612B0BDE8B6
:102A0000F081172D42464FF0000319D00B2D0CBF5B
:102A10000D2101213046FDF7BFFBC0B2B04215D1F8
:102A20000125284612B0BDE8F0813046FDF77EFC56
:102A300001280546E1D13146264802F01FF8DCE7BF
:102A400009213046FDF7A8FBC0B2E7E7314622482E
:102A500002F014F84FF0FF35CFE70EA904F59830D7
:102A60001022FFF72BFB9DF83D509DF83C0002958E
:102A70009DF83B5001909DF8470000959DF8465009
:102A80000C909DF845000B959DF844500A909DF8D8
:102A9000430009959DF8425008909DF84100079524
:102AA0009DF8405006909DF83F0005959DF83E50DA
:102AB00004909DF83A309DF839209DF83810074869
:102AC000039501F0DBFF54E7F8A5000818A60008FD
:102AD00040A600082CA600086CA60008A4A50008C3
:102AE0002DE9F0410646400100F5405088B008301D
:102AF000884614461D46FFF773FA00283BD022286B
:102B000034D13046FFF7D0FB80B3B0F5006F28BF5B
:102B10004FF400600DF10E010DF10D0482B28DE84D
:102B2000120004AB41463046FDF76AFE051E3ADD51
:102B3000AFB2DFB1002401E0A74217D09DF80D101D
:102B4000BDF80E303A1B0191009308EB040192B2DC
:102B500004AB3046FDF742FD051E2C44A4B2EBDA6F
:102B600031462A461E4801F089FF00E0012528462B
:102B700008B0BDE8F081172D03461AD00B2D224670
:102B80000CBF0E2102213046FDF706FBC5B2B5424F
:102B90001ED1294601252246124801F06FFF284622
:102BA00008B0BDE8F08131462A460F4801F066FFC3
:102BB000DDE741F288320A213046FDF7EDFA41F2B5
:102BC0008831C5B2094801F059FF41F28834DEE787
:102BD0003146074801F052FF4FF0FF35C7E700BF0D
:102BE000FCA6000820A70008E0A6000814A700081B
:102BF0006CA6000870B50D460446038ACA889BB2CD
:102C000023F440531343898903828289AE8822F4D6
:102C1000B05323F00C031B0428891B0C6A8933432F
:102C2000034313439BB2A381A38A86B09BB223F4D0
:102C300040730B4301A8A382FFF7C4FD04991A480F
:102C4000039BA289844208BF0B4612F4004F2A68F6
:102C500003EB830314BF5200920003EB8303B3FB27
:102C6000F2F36422114DA189A5FB0360400902FB28
:102C700010330A044FEA00100AD41B013233A5FBBB
:102C80000323C3F3431303439BB2238106B070BDF8
:102C9000D9003231A5FB0131C1F3421242EA0003EF
:102CA0009BB2238106B070BD003801401F85EB51F7
:102CB000838929B923F400531B041B0C83817047BB
:102CC0009BB243F400538381704700BFC1F30801F6
:102CD000818070478088C0F30800704703881942DC
:102CE00014BF012000207047C94389B2018070479A
:102CF000F8B5134DDFF854E02A68DEF80060531C85
:102D0000B34204460F460DD80E4E3168601C08448D
:102D1000121B214401F042FE33681F552B6801331A
:102D20002B60F8BD084A074E1268306813441946F4
:102D3000CEF8003001F014FF2A6801463060E5E764
:102D40002C1300203C130020001300203813002017
:102D50002DE9F041104A114DDFF8548001462B68EF
:102D600012680F4801F08AFE2B68D8F800409C4298
:102D70000AD20C4F0C4E3B683046195D01F07EFEC6
:102D80002B680134A342F6D8084801F0E1FE2B6815
:102D9000C8F80030BDE8F081381300202C13002063
:102DA00048A700083C13002068A7000804A40008F6
:102DB000201200202DE9F04F6E2700264FF0010B66
:102DC000C34D93B06C7995F804C02978AB786A78D4
:102DD00095F803E00294EC7BCDF804C095F80EC0A2
:102DE000CDF800E095F80DE00C942C7BCDF82CC0CC
:102DF00095F80BC0CDF828E095F80AE009946C7AB4
:102E0000CDF820C095F808C0CDF81CE095F807E093
:102E10000694AC79AF48CDF814C0CDF810E0039417
:102E2000AD4C01F02BFEAD4BAD4A38461760C3F8F0
:102E300000B0266001F000FBDFF8CCA2DFF8CC8206
:102E4000CAF80000A748FFF783FF20680321FFF7B7
:102E50004FFF98F802102068FFF74AFF98F801101A
:102E60002068FFF745FF98F800102068FFF740FF43
:102E70009D48FFF76DFFDFF8989231462068FFF715
:102E800037FF20680321FFF733FFB9F80010DFF8A0
:102E900084822068090AFFF72BFF99F80010206848
:102EA000FFF726FF98F800102068FFF721FF98F839
:102EB00001102068FFF71CFFDFF85C9298F8021001
:102EC0002068FFF715FF98F803102068FFF710FF40
:102ED000206899F80010FFF70BFF99F8011020689F
:102EE000FFF706FFDFF8348299F802102068FFF739
:102EF000FFFE99F803102068FFF7FAFE98F800101B
:102F00002068FFF7F5FE98F801102068FFF7F0FE43
:102F100098F802102068FFF7EBFE98F8031020687D
:102F2000FFF7E6FE7148FFF713FFDFF8F481314643
:102F30002068FFF7DDFE20680521FFF7D9FEB8F80D
:102F400000102068090AFFF7D3FE98F800102068E7
:102F5000FFF7CEFE29782068FFF7CAFE697820685F
:102F6000FFF7C6FEA9782068FFF7C2FEE97820685F
:102F7000FFF7BEFE29792068FFF7BAFE697920685D
:102F8000FFF7B6FEA9792068FFF7B2FEE97920685D
:102F9000FFF7AEFE297A2068FFF7AAFE697A20685B
:102FA000FFF7A6FEA97A2068FFF7A2FEE97A20685B
:102FB000FFF79EFE297B2068FFF79AFE697B206859
:102FC000FFF796FEDFF85C81A97B2068FFF790FE93
:102FD000E97B2068FFF78CFE98F803102068FFF764
:102FE00087FE98F802102068FFF782FE404D98F89F
:102FF00001102068FFF77CFE98F800102068FFF7AA
:1030000077FEE9782068FFF773FEA9782068FFF75C
:103010006FFE69782068FFF76BFE29782068FFF75C
:1030200067FE3448FFF794FE31462068FFF760FEE4
:10303000DFF8F4800D212068FFF75AFE2E48FFF7D5
:1030400087FEB8F800102068090AFFF751FE2B4DE3
:1030500098F800102068FFF74BFE2948FFF778FE2C
:1030600029882068090AFFF743FE29782068FFF7BE
:103070003FFE2448FFF76CFE20684121FFF738FE31
:1030800020687321FFF734FE20687321FFF730FEBC
:1030900020686921FFF72CFE20686721FFF728FED2
:1030A00039462068FFF724FE20686521FFF720FEDF
:1030B00020686421FFF71CFE20682021FFF718FE1E
:1030C00020686121FFF714FE394620682EE000BF1A
:1030D000F012002070A700082C130020001300201D
:1030E00038130020A4A70008B0A70008BCA7000858
:1030F000E4120020C8A70008D8A700084413002045
:10310000F0A700080CA800083C13002010130020B2
:10311000E21200204C13002034130020D4120020AF
:10312000E81200201413002028130020FFF7E0FD10
:1031300020682021FFF7DCFD20686121FFF7D8FD22
:1031400020686421FFF7D4FD20686421FFF7D0FDDB
:1031500020687221FFF7CCFD20686521FFF7C8FDCC
:1031600020687321FFF7C4FD20687321FFF7C0FDBD
:1031700020682E21FFF7BCFD31462068FFF7B8FD1F
:1031800059462068FFF7B4FD31462068FFF7B0FDCF
:1031900020680A21FFF7ACFD31462068FFF7A8FD43
:1031A00020680321514DFFF7A3FD31462068FFF74A
:1031B0009FFD59462068FFF79BFD29782068FFF79F
:1031C00097FD69782068FFF793FDA9782068FFF7DD
:1031D0008FFDE9782068FFF78BFD29792068FFF7DC
:1031E00087FD69792068FFF783FD4148FFF7B0FD4F
:1031F000404D31462068FFF77BFD20680221FFF734
:1032000077FD29883C4F2068090AFFF771FD29786E
:103210002068FFF76DFD3988384D2068090AFFF7EF
:1032200067FD39782068FFF763FD2988344F2068EF
:10323000090AFFF75DFD29782068FFF759FD20682E
:103240003978FFF755FD797820682E4DFFF750FD4E
:10325000B9782068FFF74CFDF9782068FFF748FD42
:1032600020682978FFF744FD69782068FFF740FD62
:10327000A9782068FFF73CFDE9782068FFF738FD62
:1032800029792068FFF734FD69792068FFF730FD60
:103290001D48FFF75DFD0222FF2112AB03F80F2D41
:1032A0008DF8381011AA03F8016F9342FBD1102159
:1032B00040F22323012402251448154A007812788D
:1032C00001910093DAF800100EAB8DF846608DF88E
:1032D00045408DF84750FDF781F9DAF8000001F01C
:1032E000B3F8204613B0BDE8F08F00BFDC12002019
:1032F00024A800084013002030130020D81200201A
:10330000481300200813002038A80008501300209C
:103310003813002022232DE9F04300250127674CB4
:10332000674ADFF8BC9187B018461760C9F80030CB
:10333000256001F081F8DFF8AC81624EC8F800002A
:103340006148FFF705FD39462068FFF7D1FC5F4B68
:1033500020689978FFF7CCFC29462068FFF7C8FC65
:1033600029462068FFF7C4FC5948FFF7F1FC2946BD
:103370002068FFF7BDFC39462068FFF7B9FC2946F5
:103380002068FFF7B5FC20680A21FFF7B1FC294649
:103390002068FFF7ADFC20680321FFF7A9FC294650
:1033A0002068FFF7A5FC39462068FFF7A1FC2068DC
:1033B0003178FFF79DFC71782068FFF799FCB178B0
:1033C0002068FFF795FCF1782068FFF791FC3179D0
:1033D0002068FFF78DFC71792068FFF789FC3D4874
:1033E000FFF7B6FC29462068FFF782FC206803211E
:1033F000FFF77EFC29462068FFF77AFC20680C2145
:10340000FFF776FC20680321FFF772FC294620684D
:10341000FFF76EFC20680821FFF76AFC2068DC21BA
:10342000FFF766FC29462068FFF762FC2946206802
:10343000FFF75EFC29462068FFF75AFC2946206802
:10344000FFF756FC29462068FFF752FC2946206802
:10345000FFF74EFC29462068FFF74AFC2946206802
:10346000FFF746FC1C48FFF773FC0222FF2106AB66
:1034700003F80F2D8DF8081005AA03F8015F934299
:10348000FBD1102140F2232301260224134899F88E
:103490000020007801910093D8F8001002AB8DF85D
:1034A00016508DF815608DF81740FDF797F8D8F88D
:1034B000000000F0C9FF07B0BDE8F0832C13002026
:1034C00000130020DC120020A4A700081013002025
:1034D000B0A7000824A80008BCA7000850130020CB
:1034E000381300203C1300201E232DE9F043002553
:1034F0004FF001085A4A5B4CDFF88C9187B01846B0
:10350000C9F80030C2F80080256000F095FF564FE2
:10351000564E38605648FFF71BFC20680B21FFF71A
:10352000E7FB2068B178FFF7E3FB71782068FFF7CD
:10353000DFFB31782068FFF7DBFB4E48FFF708FC24
:1035400020682946FFF7D4FB20684146FFF7D0FBEF
:1035500020682946FFF7CCFB20680A21FFF7C8FB4B
:1035600020682946FFF7C4FB20680321424EFFF77D
:10357000BFFB20682946FFF7BBFB20684146FFF7E9
:10358000B7FB20683178FFF7B3FB20687178FFF74D
:10359000AFFB2068B178FFF7ABFB2068F178FFF74D
:1035A000A7FB20683179FFF7A3FB71792068FFF74B
:1035B0009FFB3248FFF7CCFB20682946FFF798FBBA
:1035C00020680621FFF794FB20682946FFF790FB4F
:1035D00020680621FFF78CFB20682946FFF788FB4F
:1035E00020681721FFF784FB20682946FFF780FB3E
:1035F00020681821FFF77CFB20682946FFF778FB3D
:1036000020682021FFF774FB1D48FFF7A1FB022271
:10361000FF212C4606AB03F80F2D8DF8081005AAE4
:1036200003F8014F9342FBD1102140F223230126DE
:103630000225144899F80020007801913968009318
:1036400002AB8DF816408DF815608DF81750FCF719
:10365000C5FF386800F0F8FE002007B0BDE8F08331
:10366000001300202C1300203C1300201013002016
:10367000A4A70008B0A70008DC12002024A80008B6
:103680004CA8000850130020381300202DE9F04FFB
:103690007D4CA1B02078FEF707FE024610B921B09C
:1036A000BDE8F08F794D20780DF16E030DF16D04BA
:1036B00029688DE818001CABFDF7A2F8BDF86E7004
:1036C0009DF87F400D970C949DF87D709DF87C408F
:1036D00086B29DF87B000A9709949DF87A709DF850
:1036E000794008909DF87800079706949DF87770C8
:1036F0009DF8764005909DF875009DF87EE0049752
:1037000003949DF874709DF873409DF872309DF895
:1037100071209DF8701002905D48CDF82CE08DE886
:1037200090000E9601F0AAF92C685A48217801F011
:10373000A5F92178022905D0072903D0002021B05E
:10374000BDE8F08FA246544801F098F91AF8043BFE
:103750001993A3195345119339D9DFF850919AF869
:103760000130013B172B00F21A82DFE813F0FF0152
:10377000A201A1007E001802180218021802180205
:103780001802180218021802180218021802180269
:1037900018021802180218021802350018003F48D3
:1037A00001F0D6F99AF802109AF803300AF10402EF
:1037B00003EB01239BB213449A4280F0EE81A3EB0A
:1037C0000A03043B02EB030A119B5345C7D89DF93A
:1037D000640021B0BDE8F08F314801F0B9F99AF8E2
:1037E0000400304B9AF802109AF8032018719AF8E6
:1037F000050002EB012258719AF8060091B2987107
:103800009AF807000AF10402D8719AF808000A44ED
:1038100018729AF809000AF1140158729AF80A000D
:10382000914298729AF80B00D8729AF80C001873AB
:103830009AF80D0058739AF80E0098739AF80F00D2
:10384000D8739AF8100018749AF8110058749AF8FE
:10385000120098749AF81300D87480F02282A2EBB8
:103860000A02143A01EB020AAEE70F4801F070F9C0
:103870009AF802109AF803300AF1040203EB0123CC
:103880009BB202EB030A9FE7501300203C13002079
:103890005CA80008C8A80008DCA8000840AA000826
:1038A00020AA000820120020C0A90008F012002061
:1038B000CC4801F04DF99AF802209AF80330CA4832
:1038C00003EB02239BB203800AF104009AF8042060
:1038D000C6491E189AF805300A704B709AF80620EF
:1038E0009AF807308A70CB70C14A9AF808309AF873
:1038F0000910137051709AF80A309AF80B109370EF
:10390000D170BC4B9AF80C109AF80D2019705A70AF
:103910009AF80E109AF80F209970DA700AF1100ACE
:103920001096109B9A45BFF44FAF9AF80130052BC3
:103930002CD00D2B40F03581AF4801F009F99AF8F1
:1039400002209AF80330AD4C03EB02239BB2AC4D3E
:103950001946AC4823802B8001F090F82988AA48AA
:1039600001F08CF89AF804009AF805302288A749EB
:1039700003EB002392440B80109B0AF1040A9A4542
:10398000BFF422AF9AF80130052BD2D1A04801F044
:10399000DFF89AF804109AF802309AF8030089F8D0
:1039A00000109AF8052000EB032089F801209AF80E
:1039B0000630984C89F8023020809AF807000AF106
:1039C0001C0A89F803001AF8144C064689F80440CA
:1039D0001AF8135C129489F805501AF8117C1395A3
:1039E00089F807701AF8100C149789F808001AF86B
:1039F0000FBC159089F809B01AF80E7C89F80A7086
:103A00001AF80DEC89F80BE0CDF858E01AF80CEC38
:103A1000CDF85CE089F80CE01AF80BEC89F80DE0C1
:103A20001AF80A5CCDF860E089F80E501AF809EC33
:103A30001AF8030C89F806E01AF8074C1AF808CCB3
:103A40001AF8048C2404000404EB0C6400EB0860F6
:103A50001AF805CC1AF8018C644440441AF806CCD4
:103A60001AF8028C0096159E07970596139E149FD0
:103A70000296129E0B950196179D189ECDF80CE0AC
:103A8000049799F80FE0CDF818B00A960995169D9D
:103A900004EB0C240895DFF8C4C15F4D00EB082748
:103AA0002C60CCF800705D48CDF830E000F0E6FF07
:103AB00037E75B4801F04CF89AF802209AF8033097
:103AC000584C03EB02239BB219465748238000F061
:103AD000D5FF9AF804209AF80530258803EB0223D5
:103AE0009BB2524C19465248238000F0C7FF2388EE
:103AF0000AF10406022B2E4461D19AF807309AF895
:103B000006109AF809201B0403EB01639AF80810C9
:103B10001344484A03EB01230AF10A0513602A788B
:103B2000454B46481A706A781C465A70AA78444F2A
:103B30009A70EA7804F10608DA702A7905F1060A23
:103B40001A716A795A7100F099FF14F8011B38460E
:103B500000F094FF4445F8D13A4800F0F9FFB2452F
:103B60003FF432AE751B063DAA442DE6364800F000
:103B7000EFFF9AF802209AF80330344C03EB02234B
:103B80009BB219462848238000F078FF23880AF169
:103B9000040213449A427FF412AE924614E62C4873
:103BA00064E62B4800F0D4FF9AF802209AF803301C
:103BB0000AF1040A03EB02239BB29A44B1E69AF895
:103BC00006109AF80730234A03EB01239BB21946EB
:103BD0002148138000F052FF2388012B40D00AF1C6
:103BE00008059CE724A90008E21200204C130020DD
:103BF00034130020D412002074A9000842130020BE
:103C00002813002088A900089CA90008441300205C
:103C100030A90008E81200201413002040A9000871
:103C2000CCA900084013002010A900083013002080
:103C3000DCA90008EC1200200813002010AA0008DC
:103C4000889E000804A4000800A9000804130020AE
:103C5000B0A90008D8120020F0A90008E412002042
:103C6000114B9AF808209AF809009AF80A101A706D
:103C70009AF80B2058701C460C489970DA7000F0C6
:103C8000FDFEDFF830800AF10C05271D14F8011B3A
:103C9000404600F0F3FEBC42F8D1054800F058FF62
:103CA0003DE78A4690E500BF4813002008AA0008B7
:103CB00004A40008889E000838B5184C94F9143004
:103CC000062B01D1052038BD154D2878400100F59F
:103CD00040500830FEF784F922280ED028780121C0
:103CE000400100F584300830FEF748F928780023B9
:103CF00040F222220A21FCF74FFAFFF7C7FC94F9A1
:103D0000143023B1052B0CBF0420012038BDFFF770
:103D1000EBFB05232375012038BD00BF20120020D6
:103D200050130020F8B5474C94F91430062B01D1FC
:103D30000520F8BD444D2878400100F5405008307A
:103D4000FEF74EF922280ED028780121400100F517
:103D500084300830FEF712F92878002340F222223E
:103D60000A21FCF719FAFFF791FCC5B2294694F92C
:103D70001420364800F082FE94F9140000283ED04A
:103D8000012801D00120F8BD022DFCD1304800F0FF
:103D9000DFFE00222F4B30491F785E789878277617
:103DA0006676DF781E79A0765879E77626779F7950
:103DB000DE796077187AA777E6775F7A9E7A84F85B
:103DC0002000D87A93F80CE084F8217084F82260FF
:103DD0005F7B9E7B84F82300D87B204B84F82700F0
:103DE00084F824E084F8257084F826601C480A6072
:103DF0001C491B8802600A60F3B90020F8BD2076D8
:103E00006076A076E07620776077A077E07784F818
:103E1000200084F8210084F8220084F8230084F82C
:103E2000240084F8250084F8260084F82700FFF792
:103E300071FA01202075F8BDFEF7BCFF0928DCD01F
:103E40002575F8BD201200205013002058AA000844
:103E500074AA0008F012002038130020E21200209B
:103E60002C1300200013002008B5044B1878FCF731
:103E700061F90622024B1A7508BD00BF50130020DD
:103E8000201200200023F0B5224F85B006220646FE
:103E90000D46214839460093019302930393FEF7A0
:103EA0000DF979783B78BA780B43F97813433A796E
:103EB0000B437C7913431C430FD1184800F048FE94
:103EC0000820DC2378703946062213483C70FC70C9
:103ED0003C717C71BB70FEF7B3F81149114B124F66
:103EE000124C0E700422694611481C603D60FEF7BA
:103EF000A7F8694604220F48FEF7A2F800220A201C
:103F00000D4B0E49DA6283F828201A75086005B057
:103F1000F0BD00BFDC12002000204100BCAA000858
:103F200050130020101300203C130020895751002B
:103F300000384100003041002012002048000020DD
:103F4000044A05491368002B08BF0B46184410604B
:103F500018467047941200207C1300204FF0FF3069
:103F6000704700BF4FF4005300204B60704700BF04
:103F7000012070470020704710467047F8B5171EA3
:103F800013DD0C460A4DCE1914F8011B2846FEF726
:103F90009DFE80210648FEF7A1FE0028F9D0802171
:103FA0002846FEF7A1FEA642EED13846F8BD00BF76
:103FB0000038014010B5022484B01C4A02AB92E8DC
:103FC000030083E8030019460120ADF80640FEF720
:103FD0007DFB013022D00DF106010420FEF776FBB7
:103FE00001301FD01248FDF7FBFF0146114800F0D9
:103FF00045FD114C02E0BDF806306BB90DF106012C
:104000000F20FEF763FB0130F5D1204600F0A0FD44
:10401000BDF80630002BF1D004B010BD074800F009
:1040200097FDD8E7064800F093FDDBE7D0AA00082B
:104030000004210008AB000820AB0008D8AA000843
:10404000F4AA000808B50221094800F0BFF80028CA
:10405000F9D0FF21064800F0B3F80121044800F030
:10406000B5F80028F9D0024800F0ACF8C0B208BD9D
:104070000038004010B5044602210A4800F0A6F8B6
:104080000028F9D02146074800F09AF80121054898
:1040900000F09CF80028F9D00248BDE8104000F07C
:1040A00091B800BF0038004080210148FDF7ACBC4A
:1040B0000014014080210148FDF7A4BC0014014018
:1040C0004FF480710148FDF79FBC00BF0014014010
:1040D0004FF480710148FDF795BC00BF001401400A
:1040E0004FF40002014BC3F88020704700E100E06C
:1040F0004FF40002014B1A60704700BF00E100E07E
:10410000C3785BB90121037814485A0903F01F03EF
:10411000203201FA03F340F822307047104B0F2190
:10412000DA6870B4D243012485784378C2F302225E
:10413000C2F1040621FA02F22A40B3400178134387
:10414000064A1B0101F01F055018DBB2AC4080F895
:104150000033490942F8214070BC704700E100E09B
:1041600000ED00E04A880B8830B48C881343CA887D
:1041700023430C8913434A898D8923431343CC89F4
:1041800002882B43234302F4415213439BB2038022
:10419000838B0A8A23F400631B041B0C838330BCCB
:1041A00002827047038829B923F040031B041B0CCB
:1041B000038070479BB243F040030380704700BF09
:1041C00081817047808980B2704700BF038919429E
:1041D00014BF01200020704708B5024800F0B8FC69
:1041E000FEE700BF3CAB000808B5024800F0B0FC99
:1041F000FEE700BF4CAB000808B5024800F0A8FC81
:10420000FEE700BF5CAB000808B5024800F0A0FC68
:10421000FEE700BF6CAB000808B5FFF7F5FF00BF75
:10422000012110B5084684B0FEF72CFB41F63F147F
:10423000002340F2E73201A94FF08040ADF80A3088
:10424000ADF806308DF80C30ADF80420ADF808401C
:10425000FCF764FC01224FF080401146FCF7CCFCD7
:1042600021464FF08040FCF7C9FC01214FF080400F
:10427000FCF7AAFC01231C2268468DF800208DF86B
:1042800001308DF802308DF80330FFF739FF04B0AC
:1042900010BD00BF08B501214FF08040FCF7B0FC15
:1042A000024A13680133136008BD00BF9812002052
:1042B000014B1868704700BF9812002070B50121AB
:1042C00082B00420FEF7D2FA182403224FF40073C0
:1042D000264E01A930468DF80620ADF804308DF841
:1042E0000740FDF731FB04224FF480634FF48075E3
:1042F0000DEB020130468DF80720ADF80430FDF7D4
:1043000023FB304601A98DF80740ADF80450FDF7B6
:104310001BFB0121F820FEF7A9FA4FF4604301A925
:104320001348ADF804308DF80740FDF70DFB01216F
:104330002020FEF79BFA102680230E4C01A9204670
:10434000ADF804308DF80760FDF7FEFA01A92046AC
:104350008DF80760ADF80450FDF7F6FA29462046BF
:104360000122FDF753FB02B070BD00BF0008014001
:10437000000C01400014014030B5012185B04FF41C
:104380008040FEF773FA4FF4E13500230C220B4C0A
:1043900069462046ADF80430ADF80630ADF8083077
:1043A000ADF80C30ADF80A200095FEF723FC20464E
:1043B0000121FEF77DFC05B030BD00BF0038014093
:1043C000F0B5012187B04FF48040FEF75BFA4FF45F
:1043D000007700234FF48272082607250E4C01A9AE
:1043E0002046ADF80430ADF80830ADF80A30ADF82D
:1043F0000C30ADF81230ADF80620ADF80E70ADF807
:104400001060ADF81450FFF7ADFE20460121FFF714
:10441000C9FE07B0F0BD00BF0038004008B520213C
:104420000448FEF75BFC0028F9D00248FEF752FC76
:10443000C0B208BD00380140024B0146186800F0C8
:104440000BB800BF68040020024B0146186803F057
:1044500059BA00BF680400202DE9F04F01F10B06A6
:10446000162E83B0054640F29E8036F0070600F116
:10447000BD80B14200F2BA8000F0F4FAB6F5FC7FDC
:10448000C0F08582730A00F0B880042B00F26C81C2
:10449000B30903F1390003F1380EC100B84F3944B4
:1044A0004C680839A14206D10CE0002A80F2AB80AA
:1044B000E468A14206D0636823F003039A1B0F2A25
:1044C000F3DD70463C69DFF8CCE2744500F09E8174
:1044D000636823F003039A1B0F2A00F38381002AE9
:1044E000C7F814E0C7F810E080F29180B3F5007FC0
:1044F00080F054810122DB0879684FEAA30C134451
:1045000057F8338002FA0CF207EBC30C0A43ACF104
:104510000801E160C4F808807A6047F83340C8F8C1
:104520000C40012483109C4094427DD8144206D153
:1045300020F003006400144200F10400FAD007EBFD
:10454000C009CC468046DCF80C309C4507D15FE1C1
:10455000002A80F26D81DB689C4500F05981596822
:1045600021F003018A1B0F2AF2DDDC68D3F808C0B2
:1045700046F0010828461E4442F00105C3F80480B5
:10458000CCF80C40C4F808C07E613E61C6F80CE06F
:10459000C6F808E075605A50009300F069FA009B75
:1045A00003F108041EE0102920D800F05BFA102661
:1045B00018230220724F3B445C68A3F10802944226
:1045C00000F02F816368E16823F0030323445A68F5
:1045D000A66842F00102F16028468E605A6000F041
:1045E00047FA0834204603B0BDE8F08F00240C23BE
:1045F00020462B6003B0BDE8F08F40204FF40071DF
:104600004FF03F0E4AE723445A68E168E0E723444D
:104610005A68284642F001025A60083400F028FA2D
:10462000204603B0BDE8F08FBC68636823F0030840
:10463000B04504D3A8EB06030F2B00F38580DFF809
:104640005891504BD9F800201B680132334404EBD9
:10465000080A00F0548103F580530F3323F47F6B75
:104660002BF00F0B5946284600F038FC411C02463F
:1046700000F0FB80824500F2F680434B19685944F4
:10468000196000F04C81D9F8000001301BBFA2EB8B
:104690000A0A5144C9F80020196012F0070100F01D
:1046A0001481C1F10800C1F580510244083102EBC8
:1046B0000B09C9F30B09A1EB0909494628460193E7
:1046C000009200F00BFC431C9DE80C0000F04281BE
:1046D000801A484440F001001968BC424944BA605D
:1046E0001960506017D0B8F10F0F40F2FA804FF008
:1046F000050C6268A8F10C0020F0070002F001022E
:1047000004EB000E02430F286260CEF804C0CEF81E
:1047100008C000F216811D4BBC681A68914288BF20
:1047200019601B4B1A689142626888BF196022F0B9
:1047300003029642A2EB060301D80F2B04DC2846A5
:1047400000F096F900244DE746F0010243F0010322
:10475000264462602846BE600834736000F088F921
:10476000204603B0BDE8F08F142B70D9542B00F213
:10477000A280330B03F16F0003F16E0EC1008DE6D2
:1047800058000020CC1200209C120020C4120020EF
:10479000C812002060000020600400205A0A042A89
:1047A0005BD9142A00F2AE8002F15C01C9005B32D1
:1047B00007EB010C7958ACF1080C8C4500F08880AF
:1047C0004A6822F00302934273D289688C45F7D17C
:1047D000DCF80C307A68E360C4F808C09C60CCF860
:1047E0000C409EE646F0010C42F001012644C4F85C
:1047F00004C028467E613E61C6F80CE0C6F808E0B9
:104800007160E25000F034F90834EBE67A6888E62B
:1048100008F1010818F0030F0CF1080C7FF493AEB7
:104820002DE0DC68A34208BF02303FF44BAEC9E67E
:104830001C4619444A68DB6854F8086F42F00102CC
:104840004A602846F3609E6000F012F9CAE603F160
:104850005C0003F15B0EC10020E69A0902F1390108
:10486000C9003832A4E7BC4254D0BC68626822F068
:1048700003025EE759F80839994540F0868010F048
:10488000030F00F1FF30F5D17B6823EA04037B605E
:1048900064009C423FF6C8AE002C3FF4C5AE1C42FB
:1048A00040467FF44CAE64001C4200F10400FAD094
:1048B00045E68C468CE7B3F5AA7F15D8F30B03F1D8
:1048C000780003F1770EC100E8E54FF48051EEE681
:1048D00001217B68921001FA02F21A437A60634662
:1048E00079E7012353602AE740F25452934222D8D9
:1048F000B30C03F17D0003F17C0EC100CEE503F1A2
:10490000100BAFE6542A29D81A0B02F16F01C90027
:104910006E324DE7204B196859441960B3E6CAF36B
:104920000B0000287FF4AFAE08EB0B03BA6843F02E
:1049300001035360EFE67F204FF47E714FF07E0E4F
:10494000ACE504F108012846009302F0DBFF009B70
:104950001968E0E601204FF00009BDE6B2F5AA7F34
:1049600005D8DA0B02F17801C900773220E740F26E
:1049700054518A4205D89A0C02F17D01C9007C325B
:1049800016E74FF47E717E2212E77B6880E7F0081D
:1049900006F108030EE600BF9C1200208842F0B525
:1049A0000DD98B1898420AD28418002A51D0224679
:1049B00013F8014D994202F8014DF9D1F0BD0F2ACB
:1049C00048D941EA00039B0746D1154600F110047F
:1049D00001F1100353F8106C103D44F8106C53F8BB
:1049E0000C6C0F2D44F80C6C53F8086C04F1100497
:1049F00044F8186C53F8046C03F1100344F8146C79
:104A0000E8D8A2F1100323F00F0302F00F0E1033C9
:104A1000BEF1030F1944034421D90E4674461D1FED
:104A200056F8047B043C032C45F8047FF8D8AEF11B
:104A3000040424F0030404342144234402F0030258
:104A400062B1013B0A4411F8014B8A4203F8014F5D
:104A5000F9D1F0BD0346F3E70346F2E7F0BD724635
:104A6000EEE700BF014803F0E7B900BF6413002080
:104A7000014803F0E3B900BF641300200FB410B580
:104A8000074B82B004AC54F8042B186823468168A5
:104A9000019400F063FA02B0BDE8104004B0704722
:104AA00068040020024B01461868826803F046BE85
:104AB00068040020F0B5054689B008460C46012779
:104AC00000F01EFA0226C31920490393AB6B04AA17
:104AD00004940590AC68079702960691019253B32F
:104AE000636E13F0010FB4F90C309AB201D1900546
:104AF00025D5910406D4626E43F4005322F400528B
:104B0000A3816266284601AA214602F0E1FF636E96
:104B100000280CBF0A254FF0FF35DA0702D4A3891D
:104B20009B0502D5284609B0F0BDA06D03F086F9BB
:104B3000284609B0F0BD284602F058FED0E7A06D27
:104B400003F07AF9B4F90C309AB2D2E7D49E000897
:104B5000024B01461868FFF7ADBF00BF6804002094
:104B6000024B0A460146186800F002B868040020AB
:104B7000002900F094802DE9F04F0C46154683B0D3
:104B8000804605F10B06FFF76DFF54F804EC162E76
:104B90002EF00307A4F108093CD810221646B542AE
:104BA0003DD8974243DAC64B09EB07009968884223
:104BB00000F0C380436823F0010101444968C9073C
:104BC0004DD51EF0010F00F09B8029464046FFF7AF
:104BD00043FC054600283BD054F8043CA0F10802F1
:104BE00023F001034B449A4200F02B813A1F242A00
:104BF00000F21881132A00F2EB8003462246116866
:104C000019605168596092689A602146404602F0E6
:104C100079FE1DE026F00706002E3246BFDA002599
:104C20000C232846C8F8003003B0BDE8F08F2546B5
:104C3000BB1B0F2BD9F804201DD802F001023A4308
:104C400009EB0701C9F804204B6843F001034B60EE
:104C50004046FFF70DFF284603B0BDE8F08F23F074
:104C60000303F91891421DDBC36882682546D360AF
:104C70000F469A60DCE702F0010209EB060143F0FF
:104C800001033243C9F804204F444B607B6808316C
:104C900043F001037B60404602F034FED8E7114642
:104CA000FFF7DABB1EF0010F8FD154F8081CA9EBF7
:104CB000010ADAF8041021F003010B443B4493424B
:104CC00026DB5546C16880683A1FC160886055F888
:104CD000080FDAF80C10242AC160886026D8132A3D
:104CE00040F2818021681B2ACAF808106168CAF85E
:104CF0000C1000F2AD8004F108000AF1100274E01B
:104D000054F8083CA9EB030ADAF8041021F0030177
:104D10007B189342FFF659AF5546DAF80C1055F858
:104D2000080F3A1F242AC1608860D8D92146284636
:104D30001F46D146FFF732FE7AE7416806F11000C0
:104D400021F0030BBB44834558DA1EF0010F7FF4BA
:104D50003CAF54F8081CA9EB010ADAF8041021F062
:104D600003018B445845D3DC5546DAF80C1055F84E
:104D7000080F3A1F242AC160886000F28D80132A30
:104D800040F2878021681B2ACAF808106168CAF8B7
:104D90000C1000F2888004F108010AF11002086882
:104DA00010604868506089689160ABEB06020AEBBE
:104DB000060142F0010299604A60DAF80430404688
:104DC00003F001031E43CAF80460FFF751FE42E7F7
:104DD00023681B2A03606368436027D800F1080337
:104DE00004F108020BE720462A4601681F461160BD
:104DF0004168D14651608368936019E7ABEB060BBD
:104E000009EB06014BF0010299604A6054F8043C3A
:104E1000404603F001031E4344F8046CFFF728FEEC
:104E2000254618E72146FFF7B9FDEEE6A368242AD8
:104E30008360E368C36018D000F1100304F110022E
:104E4000DDE650F8043C254623F003031F44EFE65B
:104E5000A168242ACAF81010E168CAF814100DD00D
:104E600004F110000AF11802BFE7226900F11803EB
:104E70000261616904F118024161C0E6226904F12E
:104E80001800CAF8182061690AF12002CAF81C103B
:104E9000ABE721462A4682E7214628460193FFF7E1
:104EA0007DFD019B81E7A168242ACAF81010E16802
:104EB000CAF8141006D004F110010AF118026EE7C6
:104EC00058000020226904F11801CAF8182060690E
:104ED0000AF12002CAF81C0061E700BF38B50023C0
:104EE000064C054608462360FFF72AF8431C00D00D
:104EF00038BD2368002BFBD02B6038BD7813002011
:104F000020F0030110F00300C0F1000051F8043B51
:104F100000F1040C4FEACC0C6FF000021CBF22FA27
:104F20000CF213434FF0010C4CEA0C2C4CEA0C4CE5
:104F3000A3EB0C0222EA030212EACC1204BF51F8DE
:104F4000043B0430F4D0C2F1000102EA0102B2FADB
:104F500082F2C2F11F0200EBD20070472DE9F04F40
:104F6000C1B01D468A4691460446089002F052FFA1
:104F700003680E9518461593FFF7C2FF14901CB1F5
:104F8000A36B002B00F06682DAF86430BAF90C20CB
:104F900013F0010F93B202D1990540F17C829F0476
:104FA0000AD4DAF8641042F4005321F40051AAF84C
:104FB0000C30CAF864109BB21E0740F12A82DAF85E
:104FC0001020002A00F0258203F01A020A2A00F0BD
:104FD000458200230DF1C008139311931293189387
:104FE00019930B931693179325932493CDF88C80E4
:104FF000CDF828A099F800304C46EBB1252B02D112
:105000001AE0252B03D014F8013F002BF9D1A4EBB3
:1050100009058DB1249B259A01332A44072BC8F832
:105020000090C8F804502592249300F3088208F1F8
:1050300008080B9B2B440B932378002B00F00E8465
:1050400000231A468DF86F3019460C939B464FF09B
:10505000FF33667804F10109099309F10109A6F10A
:105060002003582B00F2D183DFE813F06102CF0355
:10507000CF036902CF03CF03CF03CF03CF03CF0307
:105080001D023103CF032A021103CF032C036E024A
:105090006E026E026E026E026E026E026E026E0290
:1050A000CF03CF03CF03CF03CF03CF03CF03CF0370
:1050B000CF03CF037E02C502CF03C502CF03CF03C8
:1050C000CF03CF030C03CF03CF036F00CF03CF0376
:1050D000CF03CF03CF035900CF03CF034703CF0341
:1050E000CF03CF03CF03CF03CF03CF03CF03CF0330
:1050F000CF034D036103C502C502C5026703610307
:10510000CF03CF036C03CF037903710036035C0236
:10511000CF038E03CF035B00CF03CF0334024BF0EA
:10512000100B1BF0200F40F065830E9A1BF0100F40
:10513000134640F0EC851BF0400F00F0E885148822
:105140000432002501230E9214E04BF0100B1BF0EB
:10515000200340F03A831BF0100240F0DF851BF083
:10516000400300F0DB850E9913460A460025043201
:105170000C880E92002292468DF86F2009994A1CE5
:1051800000F019822BF08002069254EA050240F0EA
:105190001882002940F07F84002B40F07F851BF0AF
:1051A00001030D9300F0BA86302340AF07F8413D6C
:1051B000099B0D9A9342B8BF13460793002310939F
:1051C000BAF1000F02D0079B01330793069B13F03F
:1051D00002030F9302D0079B02330793069B13F041
:1051E000840540F039830C9B079AA3EB020BBBF1BB
:1051F000000F40F33183BBF1100F40F3AF874346FC
:105200001024A8462599249ADDF820A00A9D06E0DE
:10521000ABF1100BBBF1100F03F1080318DD0132E5
:10522000AA481031072A2591249283E81100EFDD66
:1052300023AA2946504603F03DFB002840F087830F
:10524000ABF1100BBBF1100F30AB2599249AE6DCC3
:105250004546984601329D4B0BEB0104072A2594E5
:10526000249288E8080800F3EB829DF86FA008F10B
:105270000808BAF1000F10D00121249B0C440B4404
:105280000DF16F02072B25942493C8F80410C8F879
:10529000002000F3548408F108080F9B7BB1022121
:1052A000249B0C4401331CAA072B25942493C8F893
:1052B0000410C8F8002000F34E8408F10808802D7F
:1052C00000F04783099B0D9AA3EB020ABAF1000F85
:1052D0003CDDBAF1100F40F3F0867D4D4246214689
:1052E000B0464FF0100B2E46249B089C0A9D06E00A
:1052F000AAF1100ABAF1100F02F1080217DD01330A
:105300001031072B2591249382E84008F0DD23AA71
:105310002946204603F0CEFA002840F01883AAF16F
:10532000100ABAF1100F30AA2599249BE7DC354604
:105330000C464646904601335444072B259424934B
:1053400088E8200400F3B38308F10808069BDB0516
:1053500000F19D82249B0D9901330C44072B259469
:10536000C8F80070C8F80410249300F3DD8308F136
:105370000808069B59073CD50C9B079A9D1A002DDF
:1053800037DD102D40F35B871026249B089FDDF846
:1053900028A004E0103D102D08F1080817DD0133A6
:1053A0004A4A1034072B2594249388E84400F1DD01
:1053B00023AA5146384603F07DFA002840F0568271
:1053C000103D102D0DF1C008259C249BE7DC013316
:1053D0003E4A2C44072B2594249388E8240008DDBA
:1053E00023AA0A99089803F065FA002840F0508330
:1053F000259C0B9B0C9A07998A42ACBF9B185B18A3
:105400000B93002C40F03C8300230DF1C008249343
:10541000F0E55146089801F0D9F8002838D0DAF8BC
:105420006430DD0704D4BAF80C309C0540F11E86C8
:105430004FF0FF330B930B9841B0BDE8F08F23AAD8
:105440000A99089803F036FA002840F021830DF1FC
:10545000C008EEE5089802F0C9F995E5BAF90E2002
:10546000002AFFF6B6ADDAF86420D00705D4990516
:1054700003D4DAF8580002F0E1FC2B464A465146C4
:10548000089801F05FF80B900B9841B0BDE8F08FE1
:10549000BAF80C3098E5DAF8580002F0CDFCBAF909
:1054A0000C2093B27BE50E9C236818460C93234690
:1054B000002803F104030E9304DA0C9B5B420C9367
:1054C0004BF0040B99F80060C7E500BFC0AB0008C3
:1054D000D0AB0008002A41F01A80C14B18931BF092
:1054E000200F40F0DD840E9A1BF0100F134640F0A1
:1054F0001D841BF0400F00F019840025043314882C
:105500000E931BF0010F00F05F8354EA050300F0D7
:105510005B8330238DF871608DF870304BF0020B97
:10552000022327E64BF0200B99F8006095E599F8E7
:10553000006000297FF491AD012220218DE54BF020
:10554000010B99F8006088E500231846A6F13003A6
:1055500019F8016B00EB800003EB4000A6F130036B
:10556000092BF5D90C907AE5002A40F0D8874BF04A
:10557000100B1BF0200F40F0C2840E9A1BF0100F8E
:10558000134640F0D9831BF0400F00F0D583B2F9E9
:1055900000400433E5170E9322462B46002A73F190
:1055A0000003C0F2CB8409999DF86FA04A1C4FF00C
:1055B00001037FF4E7AD54EA050200F06E82CDF8F6
:1055C00018B0012B00F04C83022B40F0D4821898C5
:1055D00030AF230943EA0573290904F00F020D4691
:1055E0001C46835C07F8013D54EA0503F1D130AB5A
:1055F000DB1B0D93DCE5002A40F08D870E9C1BF031
:10560000080F04F1070400F0268524F0070303F1D6
:1056100008020E921A685B6813921293129B139DF4
:1056200023F00044284621464FF0FF326D4B03F033
:10563000DBFF002840F08C84284621464FF0FF32E3
:10564000684B03F0B3FF002840F08284169A139849
:10565000179B129903F0A0FF002840F025859DF8C4
:105660006FA003231A46079300235F4F194609933F
:105670005E4B2BF0800006900D921091472ED8BF04
:105680001F469DE54BF0080B99F80060E5E499F89A
:10569000006009F101002A2E00F02587A6F13003F1
:1056A000092B814698BF002000F29F8619F8016BF4
:1056B00000EB800003EB4000A6F13003092BF5D985
:1056C0000990CCE44BF0800B99F80060C5E499F8A0
:1056D000006001222B21C0E4302378260E998DF83A
:1056E00070300B1D0E933E4B0C6818934BF0020B61
:1056F0008DF87160002502233CE5002A40F01787F1
:105700003B4B1893EBE60122002311460E980792BB
:1057100002689A468DF86F3009931093031DCDF8F7
:1057200018B00D918DF898200E9326AF4EE5002A03
:105730003FF41FAF8DF86F101BE74BF0400B99F84B
:1057400000608AE499F800606C2E03BF99F801604C
:105750004BF0200B09F101094BF0100B7DE4002AFE
:1057600040F0CE861BF0200F40F0C8841BF0100FD5
:105770005ED11BF0400F5BD00E9A136804320E927C
:10578000BDF82C201A8035E400250E9A8DF86F5054
:105790001768141D002F00F05585099A531C00F05E
:1057A000D2842946384602F0C3FB002800F0C985A0
:1057B000C31B09950D930E94CDF818B023EAE3733B
:1057C000079310959DF86FA0FAE40E9C073424F01F
:1057D000070303F10802D3E900450E920023C9E450
:1057E000A0AB0008FFFFEF7F80AB00087CAB000898
:1057F0008CAB00080E9C073424F0070303F1080269
:10580000D3E900450E920123B4E4002A40F08B86D0
:1058100026B3002301229A4607928DF89860CDF8AE
:1058200018B08DF86F30099310930D9226AFCDE428
:105830000E9A136804320E920B9A1A60FFF7DABBC5
:1058400023AA0A99089803F035F8002840F020812F
:105850009DF86FA00DF1C008259C0AE5259BDDF899
:1058600028A0002B40F0B78500232493DAF8643099
:1058700013F0010FBAF80C3002D19A0540F16F8293
:105880005B063FF5D5AD0B9841B0BDE8F08F652EB6
:1058900040F3A480169A1398179B129903F072FE96
:1058A000002800F094810121249BB44A0B440C444D
:1058B000072B25942493C8F80410C8F8002000F39F
:1058C000008408F108081D9B119A259C934203DB74
:1058D000069BDF077FF54DAD249B14990133159A84
:1058E0000C44072BC8F80020C8F804102594249312
:1058F00000F3148408F10808119B5E1E002E7FF748
:1059000038AD102E40F3F7811027249B9C4DDDF815
:1059100020A0DDF828B005E008F10808103E102EA0
:1059200040F3EB8101331034072B2594249388E84E
:10593000A000F1DD23AA5946504602F0BBFF002823
:1059400040F0E9830DF1C008259C249BE6E7AA46B8
:105950008CE70C9B079AA3EB020ABAF1000F7FF7C2
:10596000B1ACBAF1100F40F3A784854D42462146F1
:10597000B0464FF0100B2E46249B089C0A9D06E073
:10598000AAF1100ABAF1100F02F1080216DD013374
:105990001031072B2591249382E84008F0DD23AADB
:1059A0002946204602F086FF0028D0D1AAF1100A2D
:1059B000BAF1100F30AA2599249BE8DC35460C4635
:1059C0004646904601335444072B2594249388E897
:1059D000200400F3A68208F1080873E4119B012B50
:1059E00040F333820123249E1C441E44072E259439
:1059F000C8F800702496C8F8043000F3448208F117
:105A00000808149A0136159B1444072E25942496F1
:105A1000C8F80030C8F8042000F34D8208F10808E7
:105A2000179B169A1398129903F0ACFD119B00284E
:105A300040F03981013B013601371C44072EC8F87C
:105A4000007024962594C8F8043000F34B8208F1C6
:105A50000808199A013614441FAB072E2594249682
:105A6000C8F80420C8F800307FF781AC23AA0A994F
:105A7000089802F01FFF58B90DF1C008259C78E482
:105A800023AA0A99089802F015FF00283FF4BCAC3D
:105A9000DDF828A0EAE6DDF818B0012B00F055810A
:105AA000022B64D1CDF818B0002400258FE523AA7D
:105AB0000A99089802F0FEFE0028E9D10DF1C0080D
:105AC000259C43E423AA0A99089802F0F3FE0028D3
:105AD000DED11D99259C0DF1C00829B9119B1BB978
