:020000040800F2
:10000000A82300200D1C0008814900086149000850
:1000100071490008A149000891490008000000004A
:10002000000000000000000000000000091C0008A3
:10003000091C000800000000091C0008091C000839
:10004000091C0008091C0008091C0008091C0008FC
:10005000091C0008091C0008091C0008091C0008EC
:10006000091C0008091C0008091C0008091C0008DC
:10007000091C0008091C0008091C0008091C0008CC
:10008000091C0008091C0008091C0008091C0008BC
:10009000091C0008091C0008091C0008091C0008AC
:1000A000091C0008091C0008091C0008091C00089C
:1000B0001D4A0008091C0008091C0008091C00084A
:1000C000091C0008091C0008091C0008091C00087C
:1000D000091C0008091C0008091C0008091C00086C
:1000E000091C0008091C0008091C0008091C00085C
:1000F000091C0008091C0008091C0008091C00084C
:10010000091C0008091C0008091C0008091C00083B
:10011000091C0008091C0008091C0008091C00082B
:10012000091C0008091C0008091C0008091C00081B
:100130005FF808F107282FD8F8B5450105F1C0454B
:10014000083505F5805607461021304602F0A4F91F
:10015000304602F0C3F904460028F9D105F52050D5
:10016000FF2102F099F90123BB40DB430C4A1BB28B
:10017000908A118805F540551940034002EB47006D
:1001800017441180938284803C76284602F0A6F9B9
:100190000028FAD10120F8BD4FF0FF30704700BFB2
:1001A000140A0020072800F2E7802DE9F0431E46DC
:1001B00001F00F03013B85B01746884605460D2B1D
:1001C00000F2CC80DFE803F0071B1BCACACA1BCAB7
:1001D000B61B1BCA8E1B04226946694802F0CCF983
:1001E0009DF801209DF800309DF8021013449DF801
:1001F00003200B4413449BB2002B00F0988071073E
:1002000000F1B780BEB1B8F10D0F14D8012342F24E
:10021000022203FA08F3134209D140F608021342FE
:1002200040F0A7801A0606D5B30740F0A28016F06A
:10023000900F40F09E804FEA4519284609F10809C1
:10024000FFF778FF09F1C04426F00F01204641EA8C
:10025000080102F021F904F5A23006F0030102F0D2
:100260001BF9002F34D0390AFFB204F58A3002F0AE
:1002700013F944483946484404F5805702F00CF914
:100280003846012102F008F9384602F027F9002823
:10029000FAD10123AB40DB433B4A1BB21188978A5A
:1002A000C6F3C0061940AE400E433B40511902EB65
:1002B000450704F5405416809382B880087620469E
:1002C00002F00CF90028FAD068B205B0BDE8F0835E
:1002D0004FF6F0712D4A17887B1C9BB28B4242D09F
:1002E0001380C0E769460422254802F045F99DF8CD
:1002F00001209DF800309DF8021013449DF8032062
:100300000B4413449BB293B1002469461022204849
:1003100002F032F90DF1FF330DF10F0113F8012F47
:1003200014449942A4B2F9D1002C7FF468AF6FF065
:100330000B00CAE7002469461022154802F01CF998
:100340000DF1FF330DF10F0113F8012F14448B420F
:10035000A4B2F9D1002C7FF452AFE8E76FF00400AB
:1003600005B0BDE8F0834FF48063EF27FF211380D1
:100370007BE76FF00500A8E74FF0FF30704700BF44
:100380000038416000150160140A002000000020C0
:1003900000404160072821D870B5440104F1C044F1
:1003A000083404F540560546304602F097F8132805
:1003B00011D104F580542046022102F06DF8204648
:1003C00002F08CF80028FAD1304602F087F81428A1
:1003D00007D1012070BD6FF0020070BD4FF0FF30FB
:1003E00070472846FFF7A6FE6FF0030070BD00BF00
:1003F000072800F290802DE9F84F4FEA401B0BF1DF
:10040000080B0BF1C04706463846984691468A4687
:1004100002F064F800F0030001285ED107F54055B2
:10042000284602F05BF8132878D1B8F1000F79D094
:10043000002408F1FF31C9B251440AF1FF3313F827
:10044000012F14449942A4B2F9D1002C6AD0B9F119
:10045000000F6BD04FEA192107F5A03002F01CF80D
:1004600034485FFA89F1584402F016F8B8F1100FD9
:10047000384636D002F032F809282ED0514607F51A
:100480009030042207F5805402F04EF820460421F3
:1004900002F002F8204602F021F80028FAD1264B9B
:1004A0001B8843FA06F6F20715D407F5005408E056
:1004B000204602F013F8030724D4284602F00EF871
:1004C00038B1284602F00AF81728F1D10120BDE81A
:1004D000F88F6FF00300BDE8F88F6FF00400BDE8FF
:1004E000F88F01F0FBFF0107F7D5514607F598306B
:1004F000424607F5805402F017F82046842101F0A7
:10050000CBFFC7E707F52050082101F0C5FF6FF0CA
:100510000C00BDE8F88F4FF0FF3070476FF002001D
:10052000BDE8F88F6FF00B00BDE8F88F6FF00A00A0
:10053000BDE8F88F00410160140A0020072835D873
:10054000F8B5440104F1C04408340746204601F0E0
:10055000C5FF00F00300012825D104F540563046C0
:1005600001F0BCFF08B90120F8BD04F5805528460C
:10057000082101F091FF284601F0B0FF0028FAD1D0
:100580000F4B1B883B41DA070FD404F5005404E0FD
:10059000204601F0A3FF03070BD4304601F09EFF75
:1005A0000028F5D1DFE76FF00400F8BD4FF0FF3011
:1005B00070473846FFF7BEFD6FF00C00F8BD00BF76
:1005C000140A00202DE9F84F4FEA401A0AF1C04AF8
:1005D0000AF1080A80460AF5003014468B4601F0FD
:1005E0007DFF0126800205B2A542A8BF2546DFF89F
:1005F000C0900AF5405706FA08F603E0B9F8003053
:1006000033423FD1404601F0DFFF0446384601F057
:1006100065FF172801D01C2838D1A542EEDC244CF8
:1006200059462A46404602F007F8A38A43FA08F3DF
:10063000D90716D50AF5005909E0384601F04EFFF2
:10064000172801D01C2827D1238833421AD14846C5
:1006500001F044FFC306F0D510210AF5205001F047
:100660001BFF0AF5805A5046202101F015FF504625
:1006700001F034FF0028FAD1A38A28461E43A6823F
:10068000BDE8F88F00252846BDE8F88F50B16FF01F
:1006900006052846BDE8F88F20B1484601F01EFF48
:1006A0000207F4D54046FFF745FD6FF00605F0E779
:1006B000140A00202DE9F04F4FEA401909F1C04912
:1006C00009F1080983B0054609F508300191934600
:1006D00001F004FF01268246DFF8888009F54057C3
:1006E000AE40284601F08CFF0446384601F0F6FE85
:1006F000172801D01C2808D174B9B8F8003033424B
:10070000EFD0204603B0BDE8F08F20B36FF00604B1
:10071000204603B0BDE8F08F4FEA8A2A0FFA8AFA22
:10072000D345A8BFD3465C45A8BF5C4624B2019917
:10073000284609F58059224601F0ACFF4846402181
:1007400001F0AAFE484601F0C9FE0028FAD1204671
:1007500003B0BDE8F08F2846FFF7ECFC6FF006040D
:10076000CFE700BF140A00202DE9F04F4401083400
:1007700004F1C04A83B006465046019115469B4697
:10078000BDF830809DF8349001F0A8FE07286CD0A9
:10079000B9F1100F07466FD0B9F1040F77D1A0F16E
:1007A0000A02D2B2012A40F2828059464A460AF52C
:1007B000903001F0B9FE20239B46B9070ED5B8F161
:1007C000000F71D04FEA18210AF5A03001F064FE45
:1007D00038485FFA88F1204401F05EFE0AF50030E7
:1007E00001F07CFE0127800280B28542C8BF05B2BD
:1007F000DFF8C490B7400AF5405805E0A54211DD86
:10080000B9F800303B4233D1304601F0DDFE84B20E
:10081000404601F063FE0028F0D16FF0030003B002
:10082000BDE8F08F019930462A460AF5805401F060
:1008300003FF5946204601F02FFE204601F04EFEF0
:100840000028FAD10AF5005401E0030722D420461B
:1008500001F044FEC206F8D50AF52050102101F03F
:100860001BFE284603B0BDE8F08F00239B46A6E799
:10087000002003B0BDE8F08F380718D559464A4626
:100880000AF5983001F050FEA0239B4695E76FF0E3
:100890000B00C4E70AF52050082101F0FDFD6FF0C0
:1008A0000C0003B0BDE8F08F6FF00A00B7E76FF0FF
:1008B0000400B4E700410160140A00202DE9F04F64
:1008C000734E4FEA4009054606EB0900B0F90440B3
:1008D00085B08B468DE80C0034B36E4F6B011F441E
:1008E000009B5946A342A8BF234628461A461C46E9
:1008F00001F0D0FE4021384601F0CEFD384601F02F
:10090000EDFD0028FAD1B144B9F8043035441B1B81
:100910001BB2A9F804302BBB2B7E43F008032B76C7
:10092000204605B0BDE8F08F01274FEA451A0AF1CD
:10093000C04A0AF1080A0AF54058AF4003E0CCB9B2
:1009400033883B42ECD1284601F05AFE044640462B
:1009500001F0C4FD0028F2D16FF00304204605B079
:10096000BDE8F08F20462B7E43F004032B7605B0C4
:10097000BDE8F08F0020731903A9187602222846DB
:100980000AF5805701F086FE3846402101F084FDCB
:10099000384601F0A3FD0028FAD19DF80C309DF8EF
:1009A0000D8003F00703504608EB032801F096FD85
:1009B00000F00F000F280FFA88F45CD0012344F6F2
:1009C0000C4203FA00F0104218D1020653D540F24F
:1009D000EA53984555D87219137E504643F00203E6
:1009E00006EB09081376A8F8044001F077FD00F043
:1009F0000302022A1FD0B8F9044071E7019B002BC3
:100A00003CD09DF80C30721903F0F80313761B06E6
:100A10002DD404231A460F990B700199284601F032
:100A200039FE4021384601F037FD384601F056FDC9
:100A30000028FAD1CFE70E9B03B303A9284601F0A3
:100A400029FE9DF80C209DF80D30402103EB022378
:100A50000E9A3846138001F01FFD384601F03EFD26
:100A60000028FAD106EB0903B3F9044038E7102255
:100A70000F9B1A70D1E76FF0040451E76FF009047F
:100A80004EE72846FFF756FB6FF47A7448E700BF3D
:100A9000140A00200810006007285FD810B503462C
:100AA0001446127809295DD8DFE801F0101D242EC4
:100AB000303B44484A05580100F1C04000F58160D0
:100AC00001F00CFD01212070084610BD012A4CD018
:100AD000002A47D10121294A01FA03F3108820EAAC
:100AE00003031380F0E70121244A108818410840CD
:100AF0002070E9E722485B01184401F0EFFC012176
:100B000080022080084610BD1E48F4E71F2A29D81D
:100B10001D485B011146184401F0BEFC0121084646
:100B200010BD1A485B01184401F0D8FC0121207067
:100B3000084610BD1F2A15D81548EAE71448F1E702
:100B400002F0030101290DD0580100F1C040114607
:100B500000F5816001F0A0FC0121B5E74FF0FF3105
:100B6000084670476FF00901AEE7044802FA03F344
:100B70000488114623430380A6E700BF140A00201F
:100B80000800026008200260082800600820006059
:100B9000082400600728F8B500F2E78015460446EF
:100BA0000E2900F2D380DFE801F05E787A7C8FA90D
:100BB000D1B4C5181F28083C4800460106F1C046BC
:100BC0000836304601F08AFC002800F0D18030461B
:100BD00001F084FCC20740F1B280204601F010FD14
:100BE000012628803046F8BD63486401204401F0A6
:100BF00075FC012628703046F8BD440104F1C0445C
:100C00000834204601F06AFC00F00306012E40F093
:100C1000A98004F5445001F061FC00F00700287041
:100C2000E0E7400100F1C040083001F057FC00F05F
:100C30000F0028706FF00106D4E7460106F1C046A8
:100C40000836304601F04AFC002800F0918030461A
:100C500001F044FCC30700F1858048480126204488
:100C6000027E2A70BEE7460106F1C04608363046CD
:100C700001F034FC074606F5A23001F02FFC3F4B93
:100C800027F00F071A88012642FA04F4E40004F062
:100C90000804204338432870A4E73948A5E73948B9
:100CA000A3E74401083404F1C04000F5883001F0A6
:100CB00015FC06463448204401F010FC00EB0620E9
:100CC000012628803046F8BD440104F1C0440834B0
:100CD000204601F003FC00F00306012E42D104F58A
:100CE000445001F0FBFB410733D5102204F5983046
:100CF000294601F041FC10222A7473E744010834AC
:100D000004F1C04000F5A03001F0E8FB06461F48A2
:100D1000D1E7440104F1C0440834204601F0DEFB71
:100D200000F00306012E1DD104F5C43001F0D6FBFE
:100D3000288057E701F048FC0126288052E70F4839
:100D4000012600EB440082882A804BE76FF0010601
:100D500048E7042204F59030294601F00DFC0422F6
:100D60002A743FE76FF004063CE74FF0FF3639E79F
:100D70006FF0060636E700BF08300060140A002056
:100D80000808016008040160001101600041016071
:100D9000274A038890429BB212D002F5006290422B
:100DA0000ED0B0F1804F0BD0A2F59832904207D010
:100DB00002F58062904203D002F58062904203D136
:100DC0004A8823F0700313431A4A904227D002F551
:100DD0008062904223D070B423F44073CE888D8813
:100DE0000C889BB202F58C32334390420380858598
:100DF00004850ED0104B98420BD003F54063984207
:100E000007D003F58063984203D003F580639842CE
:100E100001D10B7A0386012370BC83827047038063
:100E20008B8883850B88038501238382704700BFED
:100E3000002C01400010004000340140038829B913
:100E400023F001031B041B0C038070479BB243F08B
:100E500001030380704700BF83899BB21AB923EA5C
:100E6000010181817047194381817047FFF7F4BF09
:100E700081857047C94389B20182704730B400242C
:100E80004FF41F053A4B3B49186882B040F001000F
:100E9000186058681A4601405960196821F0847139
:100EA00021F480311960196821F480211960596892
:100EB00021F4FE0159609D6000940194196841F489
:100EC0008031196003E0009BB3F5A06F09D013686F
:100ED00003F400330193009B01330093019B002B2B
:100EE000F1D0234B1B6813F4003318BF0123019387
:100EF000019B012B06D04FF000621F4B9A6002B09D
:100F000030BC70471D491A4B08681A4640F0100063
:100F10000860086820F003000860086840F00200DC
:100F200008605968596059685960596841F480618E
:100F30005960596821F47C115960596841F4E811ED
:100F40005960196841F08071196013689B01FCD5E4
:100F50005368074923F003035360536843F00203C7
:100F600053604B6803F00C03082BFAD1C3E700BFB2
:100F7000001002400000FFF800ED00E000200240F9
:100F80002DE9F04192B003F0CDFB00240125DFF8FC
:100F9000A082984F984E03F0DBFA0428FBD801A3F7
:100FA00053F820F0E3110008970F000873110008B0
:100FB00073110008B90F0008002D00F0D6800EA9AB
:100FC00006228E4801F0D8FA9DF83D509DF83C402D
:100FD0009DF83B009DF83A308DE831009DF83920AE
:100FE0009DF83810864804F061F90EA91022854852
:100FF00001F0C2FA9DF83D409DF83C009DF83B6031
:101000009DF8475002949DF8464001909DF8450098
:1010100000960C959DF844609DF843500B949DF804
:1010200042400A909DF84100099608959DF840605D
:101030009DF83F5007949DF83E409DF83A309DF84A
:1010400039209DF8381006906F4805960495039452
:1010500004F02CF90EA910226C4801F08DFA9DF8CD
:101060003D409DF83C009DF83B609DF84750029440
:101070009DF8464001909DF8450000960C959DF81E
:1010800044609DF843500B949DF842400A909DF8AF
:101090004100099608959DF840609DF83F500794DF
:1010A0009DF83E409DF83A309DF839209DF8381063
:1010B0000690574805960495039404F0F7F80EA996
:1010C0001022544801F058FA9DF83B409DF83D60CD
:1010D0009DF83C5000949DF843409DF847009DF8D2
:1010E0004670029601959DF845609DF8445008941D
:1010F0009DF83E400C909DF842000B970A969DF893
:1011000041709DF84060099503949DF83F50424C12
:101110009DF83A309DF839209DF8381007903F48E7
:1011200006970596049504F0C1F867792679E57865
:10113000A378627821780297E77B0196A67B0095D9
:10114000657B0C97277B0B96E67A0A95A57A09971B
:10115000677A0896267A0795E579A4793048069744
:1011600005960495039404F0A1F8012012B0BDE89F
:10117000F0810EA90422404601F0FEF99DF83B00E3
:101180009DF83A309DF839209DF838100090254898
:1011900004F08CF80EA90422384601F0EDF99DF810
:1011A0003B009DF83A309DF839209DF838100090AA
:1011B0001D4804F07BF80EA90422304601F0DCF94A
:1011C0009DF83B009DF83A309DF839209DF8381085
:1011D0000090164804F06AF80020FEF7ABFF0025E7
:1011E000D9E60134032C7FF6D6AE03F08DFA002445
:1011F000D1E600BF0034416000384160002041600A
:10120000F8A100080040416028A200080050416099
:101210008CA20008007041604C120020ECA2000873
:101220004CA30008A4A10008C0A10008DCA100088C
:1012300000304160F0B593B003F074FA002401254A
:1012400003F0BEF90428FBD801A353F820F000BF37
:1012500077120008411200086D1200086D12000894
:101260006512000875B9012013B0F0BD0020FEF72B
:1012700061FF0025E4E70134032CE1D903F044FACF
:101280000020F1E70EA906226B4801F075F99DF8E0
:101290003D509DF83C409DF83B009DF83A308DE86C
:1012A00031009DF839209DF83810644803F0FEFFA6
:1012B0000EA91022624801F05FF99DF83D409DF8AB
:1012C0003C009DF83B609DF8475002949DF84640D5
:1012D00001909DF8450000960C959DF844609DF89E
:1012E00043500B949DF842400A909DF841000996A6
:1012F00008959DF840609DF83F5007949DF83E404A
:101300009DF83A309DF839209DF8381006904D48E8
:1013100005960495039403F0C9FF0EA910224A48CC
:1013200001F02AF99DF83D409DF83C009DF83B6096
:101330009DF8475002949DF8464001909DF8450065
:1013400000960C959DF844609DF843500B949DF8D1
:1013500042400A909DF84100099608959DF840602A
:101360009DF83F5007949DF83E409DF83A309DF817
:1013700039209DF83810069034480596049503945A
:1013800003F094FF0EA91022314801F0F5F89DF802
:101390003B409DF83D609DF83C5000949DF84340D3
:1013A0009DF847009DF84670029601959DF84560AE
:1013B0009DF8445008949DF83E400C909DF84200E2
:1013C0000B970A969DF841709DF84060099503942B
:1013D0009DF83F501F4C9DF83A309DF839209DF8FC
:1013E000381007901C4806970596049503F05EFF99
:1013F00067792679A37862782178E5780297E77B88
:101400000196A67B0095657B0C97277B0B96E67A69
:101410000A95A57A0997677A0896267A0795E57955
:10142000A4790E48069705960495039403F03EFFB1
:10143000012013B0F0BD00BF00204160F8A10008FA
:101440000040416028A20008005041608CA20008C2
:10145000007041604C120020ECA200084CA3000870
:1014600000232DE9F04F83469FB0A9480E460E9207
:101470001A931B931C931D9303F082FFA54803F05E
:101480007FFFA54803F07CFFA44801F027F838B19E
:10149000A34803F075FFFE2738461FB0BDE8F08F64
:1014A00004464FEA4B1707F1C04704219D4808370F
:1014B00000F0F2FF07F580303A2100F0EDFF2346FF
:1014C00022460B215846FEF76DFE07F5405001F00D
:1014D00005F80146944803F0E9FE0F21934800F017
:1014E000DBFFA021924800F0D7FF2146914800F091
:1014F000D3FF0221894800F0CFFF8F4803F040FF5F
:10150000DFF87492584601F07BF8002877DD0DF182
:1015100045010DF14602019100923146BDF9382096
:1015200012AB5846FFF7CAF985B22A469DF8451016
:10153000824803F0BBFE15B33178814803F0B6FE54
:10154000202003F0C7FE34464FF0010A7C4FDFF83D
:10155000F48155450AF1010A11D014F8011F3846EB
:1015600003F0A4FE202003F0B5FE1AF0070FF0D11F
:10157000404603F005FF55450AF1010AEDD17148D7
:1015800003F0FEFE9DF84D409DF84C0002949DF83E
:101590004B4001909DF8570000949DF856400C90E8
:1015A0009DF855000B949DF854400A909DF8530007
:1015B00009949DF8524008909DF8510007949DF8B9
:1015C000504006909DF84F0005949DF84E409DF8C0
:1015D0004A309DF849209DF8481004905A480394D9
:1015E00003F064FE3A21484600F056FF12A957481E
:1015F000102200F099FFC521484600F04DFF3378D6
:10160000862B7FF47FAF524803F0BAFE3178514801
:1016100003F04CFE7178504803F048FE73794F4850
:1016200019460F9303F042FEB379F1794C4801EB70
:10163000032189B203F03AFE737A317AF27A1B04FD
:1016400003EB0163B17A134403EB0121454803F036
:101650002DFE737B317BF27B1B0403EB0163B17BBB
:10166000134406EB050803EB012106F1100A3E487E
:1016700003F01CFED04532D99AF80030013B182BFC
:1016800000F28C81DFE813F087018401F700F40099
:1016900019008A018A018A018A018A018A018A0164
:1016A0008A018A018A018A018A018A018A018A01E2
:1016B0008A018A018A018A017A0005212B4803F0F8
:1016C000F5FD9AF801402A48E400E4B2214603F00F
:1016D000EDFD0AF1020A023CA244C245CCD30F9BA5
:1016E00058469F09FEF726FD3946224803F0DEFDE5
:1016F0000E9B002B3FF4D0AE00220E9B334406F825
:10170000012B9E42FBD138461FB0BDE8F08F00BFD1
:10171000A8A30008F0A3000834A40008003021604A
:1017200078A4000800F0416094A40008000842601A
:1017300000094260000C4260A4A40008B4A40008A0
:1017400014A50008C4AC0008D8A4000800704160CB
:101750001CA5000820A5000830A5000840A5000829
:1017600050A500086CA5000888A50008E0A60008A0
:10177000D0A50008A0A5000800F541601921A048E7
:1017800003F094FD9AF801409E48E400E4B221463B
:1017900003F08CFD9AF805309AF804109AF80720A7
:1017A0001B0403EB01639AF80610134403EB0121B9
:1017B000954803F07BFD954F9AF8083054443B70F0
:1017C0009AF809200AF118037A709AF80A20A342BD
:1017D000BA709AF80B208E48FA709AF80C208D4D4A
:1017E0003A719AF80D20DFF830927A719AF80E204B
:1017F000BA719AF80F20FA719AF810203A729AF892
:1018000011207A729AF81220BA729AF81320FA729A
:101810009AF814203A739AF815207A739AF81620D9
:10182000BA739AF817201CBFA4EB0A0AAAF1180A87
:10183000FA7314BF9A449A4603F038FD3978764813
:1018400003F034FD002401340F2C0CD015F8011BDB
:10185000484603F02BFDE307F5D53A20013403F0A9
:1018600039FD0F2CF2D1F97B6C4803F01FFD34E7F2
:1018700004216B4823E703216A4803F017FD9AF817
:1018800001406048E400E4B2214603F00FFD9AF8FD
:1018900002706548394603F009FD9AF80310634861
:1018A00003F004FD9AF805309AF804109AF807201E
:1018B0001B0403EB01639AF80610134403EB0121A8
:1018C0005B4803F0F3FC9AF809309AF808109AF88C
:1018D0000B201B0403EB01639AF80A10134403EB7B
:1018E0000121544803F0E2FC102216A95248544446
:1018F000924400F041FEFD0869D04FF0FF0E07F062
:1019000007001AAB0DF157020AEB05071AF8011B85
:1019100002F8011F08B983F800E0BA4503F101039A
:10192000F4D13A21454800F0B7FD16A910224448E9
:1019300000F0FAFD10221AA9424800F0F5FDC52179
:101940003E4800F0A9FDA2453DD03F48A24603F025
:10195000ADFCCDB19DF858102F4803F0A7FC002432
:10196000DFF8B4900DF159070134AC420CD017F8F0
:10197000011B484603F09AFCE207F5D53A200134F2
:1019800003F0A8FCAC42F2D1304803F0F9FCA4E625
:1019900002212F4893E601212E4890E655462E4815
:1019A00003F0EEFC15F8021B2C4803F07FFC9AF8BC
:1019B00001402B48E400E4B22146023C03F076FCEF
:1019C00005EB040A89E6204803F070FCC2E73A21DF
:1019D0001A4800F061FD16A91022194800F0A4FD74
:1019E00010221AA9174800F09FFDC521134800F0E6
:1019F00053FDA245A9D1144803F058FCC4E700BF29
:101A0000FCA60008D0A5000828A700084C1200205A
:101A100040A700084D12002014A500084CA700089C
:101A2000B8A600080CA6000838A6000850A60008B2
:101A300074A600088CA600080040416000F54160D3
:101A40000050416000604160A8A60008B4A60008EC
:101A5000E8A50008ACA5000854A7000860A7000886
:101A600070A700080023F0B50446FE258027FF2656
:101A700097B054480E930F931093119303F080FC8A
:101A8000514803F07DFC514803F07AFC072150488F
:101A900000F002FDD0214F4800F0FEFC05214E4829
:101AA00000F0FAFC60782378A178E27883F00203F2
:101AB0008DF8410020798DF8403063798DF842101F
:101AC0008DF845208DF846000EA9444810228DF867
:101AD00047308DF838508DF844508DF839708DF8B6
:101AE000436000F021FD3E4800F0F8FC38B13C486E
:101AF00000F0F4FC01463B4803F0D8FBFEE704216C
:101B00000446374800F0C8FC374803F039FC374E2C
:101B1000304600F0E3FC020605460CD44307F7D537
:101B2000334803F02DFCFF242946324800F0B4FC72
:101B3000204617B0F0BD304803F022FC3A212F4870
:101B400000F0AAFC0EA910222D4800F0EDFCC521E2
:101B50002A4800F0A1FC12A91022294800F00CFD2F
:101B60009DF84D609DF84C009DF84B7002969DF8D5
:101B7000576001909DF8560000970C969DF855709F
:101B80009DF854600B909DF853000A9709969DF8B4
:101B900052709DF8516008909DF850000797069686
:101BA0009DF84F709DF84E6005909DF84A309DF865
:101BB00049209DF8481013480497039603F076FBDC
:101BC000B2E700BF80A70008B8A70008ECA700088C
:101BD0000008426000094260000C426000804160E1
:101BE0000030216020A8000844A8000800022160FD
:101BF000C0A800080028216054A8000800F5416032
:101C00000040416070A80008FEE700BF08B5104A18
:101C1000104B93420CD2D843104420F00300043000
:101C20000D4A184452F8041B43F8041B8342F9D1AF
:101C30000A480B494FF000028842B8BF40F8042B15
:101C4000FADBFFF71BF9BDE8084000F0F1BB00BF6D
:101C5000140A002000000020F0B60008140A00203A
:101C6000A413002082684368C16870B413430469F8
:101C70000B434169234384690B43C1692343046ACD
:101C80000B43416A856A23430B430468C16A2B43B3
:101C9000056B0B43A4002B4304F12044082A236066
:101CA0001DD0426BB1F5804F95691368566843EAC1
:101CB0000503956843EA0613D66843EA05231569C8
:101CC00043EA0643526943EA055343EA0263636009
:101CD0000AD06FF07043C4F8043170BC70472368B9
:101CE00043F040032360DCE7826B9069136851681E
:101CF0000343906843EA0113116943EA00235269E0
:101D000043EA015343EA0263C4F8043170BC7047EC
:101D1000800000F1204021B90268044B13400360A9
:101D20007047036843F0010303607047FEFF0F0034
:101D30002DE9F041CD78EB0648BF8B78098805F096
:101D40000F0E48BF4EEA030E11F0FF0F20D0002304
:101D500001274FF00F08066802E00133082B16D068
:101D600007FA03F232EA0104F7D19C0008FA04FCF6
:101D700026EA0C060EFA04F4282D46EA040632D0B0
:101D8000482D03F1010308BF0261082BE8D106606A
:101D9000FF2924D90022082301274FF00F084668A5
:101DA00004E00133102B02F1040217D007FA03F408
:101DB00034EA010CF5D108FA02FC26EA0C06282DBB
:101DC0000EFA02FC4CEA06060BD0482D03F1010383
:101DD00008BF0461102B02F10402E7D14660BDE8A0
:101DE000F0814461DDE74261B7E700BF0161704700
:101DF000416170470AB9416170470161704700BF96
:101E000010B5044602F018FE044402F015FE8442A8
:101E1000FBD810BD70B50646134D144C86B028464D
:101E20003A2100F039FB31462046062200F07CFBC7
:101E30002846C52100F030FB204604A9062200F008
:101E40009BFB9DF813009DF815509DF814409DF8DC
:101E500012308DE831009DF811209DF810100448D3
:101E600003F024FA06B070BD00F541600020416027
:101E7000F8A10008F0B593B00EA90622854800F03D
:101E80007BFB9DF83D509DF83C409DF83B009DF844
:101E90003A308DE831009DF839209DF838107E48A1
:101EA00003F004FA0EA910227C4800F065FB9DF8AF
:101EB0003D409DF83C009DF83B609DF847500294E2
:101EC0009DF8464001909DF8450000960C959DF8C0
:101ED00044609DF843500B949DF842400A909DF851
:101EE0004100099608959DF840609DF83F50079481
:101EF0009DF83E409DF83A309DF839209DF8381005
:101F00000690674805960495039403F0CFF90EA94F
:101F10001022644800F030FB9DF83D409DF83C00E5
:101F20009DF83B609DF8475002949DF84640019013
:101F30009DF8450000960C959DF844609DF843502F
:101F40000B949DF842400A909DF84100099608952F
:101F50009DF840609DF83F5007949DF83E409DF8E5
:101F60003A309DF839209DF8381006904E48059675
:101F70000495039403F09AF90EA910224B4800F03F
:101F8000FBFA9DF83D409DF83C009DF83B609DF8B4
:101F9000475002949DF8464001909DF845000096F8
:101FA0000C959DF844609DF843500B949DF8424079
:101FB0000A909DF84100099608959DF840609DF8AB
:101FC0003F5007949DF83E409DF83A309DF83920E7
:101FD0009DF838100690364805960495039403F052
:101FE00065F90EA91022334800F0C6FA9DF83B406F
:101FF0009DF83D609DF83C5000949DF843409DF84D
:1020000047009DF84670029601959DF845609DF841
:10201000445008949DF83E400C909DF842000B9768
:102020000A969DF841709DF84060099503949DF8CB
:102030003F50214C9DF83A309DF839209DF83810DA
:1020400007901E4806970596049503F02FF96779C7
:102050002679A37862782178E5780297E77B019664
:10206000A67B0095657B0C97277B0B96E67A0A95F5
:10207000A57A0997677A0896267A0795E579A4796B
:102080000F48069705960495039403F00FF913B0D3
:10209000F0BD00BF00204160F8A100080040416091
:1020A00028A20008005041608CA200080060416036
:1020B000E0A80008007041604C120020ECA200086B
:1020C0004CA30008000000002DE9F04FB84895B07F
:1020D00003F056F9B64803F053F9B64803F050F947
:1020E000B44803F04DF9B0A3D3E9002341F2D47111
:1020F000B14803F0DBF8AF4803F042F9AF4803F012
:102100003FF9AC4803F03CF90021AD4803F0CEF8AC
:102110000121AC4803F0CAF80221AB4803F0C6F82D
:102120000321AA4803F0C2F80421A94803F0BEF82D
:102130000521A84803F0BAF80621A74803F0B6F82D
:102140000721A64803F0B2F80821A54803F0AEF82D
:10215000984803F015F9974803F012F9944803F0F2
:102160000FF9934803F00CF99E4803F09FF80A20FA
:1021700003F0B0F802F06AFD0028FBD0302800F030
:10218000D780312800F0DE80322819D0332800F0C3
:10219000F780342800F0E080352800F0E880362809
:1021A00058D0372800F0B780382800F0A3803928AD
:1021B00001465CD08C4803F079F815B0BDE8F08F8B
:1021C00001468A4803F072F84FF4006288490720FC
:1021D000FFF746F9874B0128187000F0E0800328CC
:1021E00000F0D9800EA91022834800F0C5F99DF8AF
:1021F0003D609DF83C509DF83B409DF847009DF8A0
:102200004670029601959DF845609DF844500094F3
:102210009DF843400C909DF842000B970A969DF85C
:1022200041709DF84060099508949DF83F509DF8D5
:102230003E4007909DF83A309DF839209DF83810BF
:102240006E48069705960495039403F02FF815B091
:10225000BDE8F08F01466A4803F028F8644C172364
:10226000224641F28831002000F048FEF7E7654839
:1022700003F01CF810238DF848308DF83D304FF0F6
:102280004B0331204FF0000C4FF0FF0E7021242241
:102290008DF846304FF0200B6FF04E034FF0010ADF
:1022A0004FF002094FF0B808FE2771269825052443
:1022B0008DF840000EA88DF838B08DF839A08DF853
:1022C0003A908DF83B808DF83CC08DF83EE08DF85B
:1022D0003F708DF841608DF842508DF843408DF885
:1022E00044108DF845208DF8473000F04BFD15B0B7
:1022F000BDE8F08F3821444802F0D8FF1727434C3F
:102300003B4E04F10805E3882A4600973146002039
:1023100000F032FFF7E701463D4802F0C7FF344CBA
:10232000172341F288322146002001F037F8F7E701
:102330000146384802F0BAFF3448FFF76BFD15B08C
:10234000BDE8F08F0146344802F0B0FF2F48FFF798
:1023500089FB15B0BDE8F08F0146304802F0A6FFBA
:1023600023490720FEF766FF15B0BDE8F08F014650
:102370002B4802F09BFFFFF77DFD15B0BDE8F08F05
:102380000146284802F092FF19490720FEF7F8FDA0
:1023900015B0BDE8F08F244802F0F2FF0DE72348A6
:1023A00002F0EEFF09E700BF9A9999999999B93F10
:1023B000C4AC000840A900087CA90008B4A9000822
:1023C000F0A900082CAA000868AA0008A4AA00081E
:1023D000E0AA00081CAB000858AB000894AB00084A
:1023E000D0AB00080CAC00085CAE000860AC000884
:1023F000340A0020F81200200050416008AD0008A7
:10240000DCAD000848AE000824AE0008040000203F
:1024100000AE000820AC000834AC00087CAD000819
:10242000B0AD000848AD0008C8AC000888AC000892
:1024300008B502F007FB02F063FB02F0B5FA1248A0
:1024400002F09EFF02F0B4FB02F048FA0A20FFF708
:10245000D7FC02F04BFA0A20FFF7D2FC02F0FAF99F
:1024600000F0C8FA0028FBD0084800F037F804460E
:10247000074800F033F800EB0421064802F016FF8D
:10248000FFF722FEFCE700BF74AE00080002006008
:102490000003006084AE000830B50F4C83B0020C1E
:1024A000030A8DF806008DF807108DF804208DF8CA
:1024B0000530A36898472369984704224FF0C0402D
:1024C0000DEB0201656A0123A84763699847E36839
:1024D000984703B030BD00BF1C00002030B5104C41
:1024E00083B0020C030A8DF806008DF804208DF8E5
:1024F0000530A368984723699847032201A9656AB4
:1025000001234FF0C040A847A369064898470546F5
:1025100063699847E3689847284603B030BD00BF19
:102520001C00002003000060F0B50D461646104C5C
:1025300083B0020C030A8DF806008DF804208DF894
:102540000530A36898472369984701A9676A012362
:1025500003224FF0C040B847294632460548656A15
:102560000023A84763699847E368984703B0F0BD24
:102570001C00002003000060F0B50D461646104C0C
:1025800083B0020C030A8DF806008DF804208DF844
:102590000530A36898472369984701A9676A012312
:1025A00003224FF0C040B847294632460548256A05
:1025B0000023A84763699847E368984703B0F0BDD4
:1025C0001C000020030000604001F8B508300B4EED
:1025D00000F1C04707F501370644002500E0054635
:1025E0003846FFF77BFF04463046FFF777FF00EBE6
:1025F000042000B28542F2D12846F8BD00050260F1
:102600004001F8B508300B4E00F1C04707F5093717
:102610000644002500E005463846FFF75FFF044604
:102620003046FFF75BFF00EB042000B28542F2D199
:102630002846F8BD002502602DE9F84387007B1C81
:10264000DB0003F1C04606F50336114D30461D444C
:1026500090468946FFF742FF04462846FFF73EFFB3
:1026600000EB0424A4B220B20237444400024946DD
:1026700000EBC7004246A4B2FFF756FF3046210ADE
:10268000FFF70AFFE1B22846BDE8F843FFF704BFB1
:10269000000D026002B970472DE9F84385006B1CFC
:1026A000DB0003F1C04808F50A38114F40461F44CB
:1026B00016468946FFF712FF04463846FFF70EFF1D
:1026C00000EB0424A4B220B203353444000249468E
:1026D00000EBC5003246A4B2FFF74EFF4046210A88
:1026E000FFF7DAFEE1B23846BDE8F843FFF7D4BEA3
:1026F00000290260704700BF007870470170704782
:102700002DE9F0411F1C18BF0127002A0FDD0546E7
:10271000561EB6B2DFF81C800E444C1E2846D8F870
:102720001830984704F8010FB4423D44F6D1BDE893
:10273000F08100BF1C0000202DE9F0411F1C18BFD4
:102740000127002A0FDD0546561EB6B2DFF81C80B1
:102750000E444C1E14F8011F2846D8F81C30984728
:10276000B4423D44F6D1BDE8F08100BF1C0000201A
:10277000704700BF704700BF704700BF10B53948B1
:1027800096B0FFF7ABFE0446CE213748FFF784FE34
:1027900004A906223548FFF7EFFE01A904223448B8
:1027A000FFF7EAFE02A904223248FFF7E5FE03A97B
:1027B00004223148FFF7E0FE06A910222F48FFF758
:1027C000DBFE0AA910222E48FFF7D6FE0EA9102222
:1027D0002C48FFF7D1FE102212A92B48FFF7CCFEA0
:1027E00000212A48FFF758FE2848FFF777FE3A21D4
:1027F0002748FFF751FE04A906221C48FFF794FE64
:1028000001A904221A48FFF78FFE02A904221948E1
:10281000FFF78AFE03A904221748FFF785FE06A9E1
:1028200010221648FFF780FE0AA910221448FFF76D
:102830007BFE0EA910221348FFF776FE102212A984
:102840001148FFF771FE220607D4630603D5C521A0
:102850000F48FFF721FE16B010BDFF210248FFF719
:102860001BFEF2E70000206000F4416000204160A0
:1028700000304160003441600038416000704160C8
:1028800000604160004041600050416000042060F1
:1028900000F54160F8B504460E46FFF76FFFACB196
:1028A000651E2A460023E01D12F8011F0B445BB28F
:1028B000102B24DC8242F7D1124C134F204615F81E
:1028C000011F2034FFF7E8FDBC42F7D1AEB1751E01
:1028D0002A460023073612F8011F0B445BB2102B67
:1028E0000DDC9642F7D1094C094E204615F8011F20
:1028F0002034FFF7D1FDB442F7D10020F8BD4FF0EE
:10290000FF30F8BD08000260080102600820026084
:1029100008210260F8B506461148F1B2C6F3074730
:10292000FFF7BAFD00240F4DC6F3072603E0082C7D
:1029300005F120050ED046FA04F313F0010F04F15F
:102940000104F4D02846FF21FFF7A6FD082C05F16D
:102950002005F0D13946BDE8F8400348FFF79CBD9B
:1029600000082160082800600028216038B5074869
:10297000FFF7B4FD05460648FFF7B0FD0402054821
:10298000FFF7ACFD44EA0544204338BD0002216056
:10299000000121600000216010B504460748E1B243
:1029A000FFF77AFDC4F307210548FFF775FDC4F36F
:1029B00007410448BDE81040FFF76EBD00042160E8
:1029C000001421600024216038B50748FFF786FD18
:1029D00005460648FFF782FD04020548FFF77EFD25
:1029E00044EA0544204338BD0024216000142160DE
:1029F0000004216008B50348FFF770FD00F00100F6
:102A000008BD00BF0000306070B50B4E0B4D304666
:102A1000FFF764FD044653212846FFF73DFD44F0CF
:102A200001013046C9B2FFF737FD2846BDE87040C6
:102A3000FF21FFF731BD00BF001D306000F641608F
:102A400010B50378022B19D004461748FFF746FD4E
:102A500000F0F7011448FFF71FFD2378012B1CD06D
:102A60006278A378002A14BF042106210BB941F033
:102A700001010E48BDE81040FFF70EBD0A48FFF700
:102A80002DFD40F00801C9B20748FFF705FDBDE87C
:102A9000104000210548FFF7FFBC0021BDE81040B1
:102AA0000248FFF7F9BC00BF001D3060001C306019
:102AB00038B505460C48FFF711FD04460B48FFF7F3
:102AC0000DFD03074EBF022384F02003C3F3401320
:102AD0002B7084F0100384F00804C3F30013C4F3D4
:102AE000C0046B70AC7038BD00003060001D3060F9
:102AF00038B505460C48FFF7F1FC04460B48FFF7D4
:102B0000EDFC03074EBF022384F02003C3F3401300
:102B10002B7084F0020384F00404C3F34003C4F375
:102B200080046B70AC7038BD00003060001D3060F8
:102B300010B504460748FFF7D1FC012C0ABF40F04E
:102B4000200100F0DF01C9B20248BDE81040FFF7E4
:102B5000A3BC00BF001D306038B50C460D781728A7
:102B600000F2F480DFE800F081756E6B65605B5603
:102B7000CABF9D8DB8A94A3D35312C27221D150CA1
:102B80007448FFF7ABFC002300F0010020701846EA
:102B900038BD7148FFF7A2FCC0F34010207000233D
:102BA000F5E72846FFF7C4FF0023F0E70846FFF7E4
:102BB0009FFF0023EBE70846FFF77AFF0023E6E7D5
:102BC0000846FFF73DFF0023E1E7FFF71DFF002365
:102BD000DDE76248FFF782FC00F00100207000236F
:102BE000D5E75E48FFF77AFC2478002C00F09F8040
:102BF000012C00F0A3800023184638BD5848FFF789
:102C00006DFC05465748FFF769FC00EB0520208066
:102C10000023BCE70868FFF7BFFE0023B7E708689A
:102C2000FFF778FE0023B2E7FFF7A0FE0023206045
:102C3000ADE72046BDE838400831FFF72BBEFFF76F
:102C40009DFDD8E74848FFF749FC40092070002364
:102C50009DE7690766D4AA075FD4EB07CBD553215C
:102C60004248FFF719FC002391E76B0750D4AC07EB
:102C700049D4E807BFD5FF213C48FFF70DFC0023EE
:102C800085E73648FFF72AFC2378012B0ABF60F05E
:102C90007F0100F07F01C9B23048FFF7FDFB002340
:102CA00075E73348FFF71AFC05463248FFF716FC74
:102CB00000EB05202080002369E700212E4A0B4607
:102CC00090782070D07860701079A0705079E070A2
:102CD0009279617122715AE72048FFF7FFFBC00922
:102CE0002070002353E709882148090AFFF7D4FB25
:102CF00021782048FFF7D0FB002348E7FFF764FE68
:102D00000023206043E7C5211C48FFF7C5FBB0E75F
:102D1000FF211B48FFF7C0FBA9E73A211748FFF73F
:102D2000BBFB9AE7CE211648FFF7B6FB93E700F00E
:102D3000FE010A48FFF7B0FB234628E740F00101F7
:102D4000C9B20648FFF7A8FB002320E74FF0FF3386
:102D50001DE700BF00003060001D306000052060EE
:102D600000020060000300600000206000F6416087
:102D700000C5416000C641601C00002000F54160B4
:102D800000F4416070B5047C0646102C24D0014646
:102D900004221848FFF7C8FB40211748FFF77CFBC7
:102DA000154C2046FFF79AFB0028FAD1134D284610
:102DB000FFF794FB04460028F9D0FE211048FFF7E6
:102DC0006BFB14F0500F11D006F1110106220D48D3
:102DD000FFF7D2FB002070BD014622460A48FFF7EC
:102DE000A3FB21460448FFF757FBD9E74FF0FF301C
:102DF00070BD00BF008C4160003021600002216086
:102E0000002821600090416000804160234A10B496
:102E1000536803F00C03042B38D0082B25D00BB3D8
:102E20001F4A134602601D491E4A4C68C4F303142E
:102E3000145DE34043604C68C4F30224145D23FA3C
:102E400004F484604C68C4F3C224145DE340C3609E
:102E5000496810BCC1F381310A44127CB3FBF2F320
:102E6000036170470E4B0360DDE753685168C3F39D
:102E70008343C90303F102030BD5526892034CBF8D
:102E8000094A0A4A02FB03F30360CCE7074B0360DD
:102E9000C9E7074A02FB03F30360C4E700100240DE
:102EA00000127A0044000020808D5B00001BB700F8
:102EB00000093D00044A536919B923EA0000506132
:102EC000704718435061704700100240044A9369EC
:102ED00019B923EA00009061704718439061704768
:102EE00000100240044AD36919B923EA0000D061F6
:102EF00070471843D0617047001002402DE9F0413F
:102F000096B00D4617460A210DF13F021C460646B3
:102F1000FDF740FE9DF93F301C2B00F2A180DFE859
:102F200003F07F9F9F9F9F9F9F9F9F9F9F9F9F9F1C
:102F30009F9F9F9F9F729F9F9F3A9F9F9F9F0F0062
:102F400011AA09213046FDF725FE119A002A00F04A
:102F50008C8012B239463046FDF7ACFB002804469F
:102F60005ADD82B21192002A7FD000210D4603E083
:102F7000119A2946954278D0521B12B239443046F4
:102F8000FDF720FB054400280446ADB2F0DA3046D8
:102F9000FDF7D0F840E010AA05213046FDF77CFD92
:102FA0009DF84030DB076BD411AA09213046FDF7AC
:102FB000F1FD119A002A53D0B2F5006F8ABF4FF489
:102FC000006312B21A463946304688BF1193FDF7A6
:102FD00071FB002804461FDD82B21192002A3FD007
:102FE00000210D4603E0119A2946954238D0521B24
:102FF00012B239443046FDF7E5FA0544002804468C
:10300000ADB2F0DAC3E72A463146524802F04EF933
:103010003046FDF7BFF90446204616B0BDE8F08102
:1030200031464D4802F042F90B2C50D0172C5AD0A3
:10303000022C0AD10121494C002322883046551820
:103040002580FDF7AFF85FFA80F8B0457BD1012409
:103050004146434802F02AF9204616B0BDE8F08107
:103060000124204616B0BDE8F0813046FDF766FA2F
:1030700001280446D0D131463A4802F017F9CBE78F
:1030800012AA04213046FDF785FD172C9DF84A3021
:103090009DF849209DF848102AD09DF84B000090DB
:1030A000314802F003F90DF1420205213046FDF7E7
:1030B00071FDBDF842102D4802F0F8F8012316AA60
:1030C00002F8173D04213046FDF7E6FC6CE70023CB
:1030D0000D21224C2288551C30462580FDF762F8D0
:1030E0005FFA80F8B1E71D4C002322880921F2E73E
:1030F0009DF84D409DF84C009DF84B5002949DF872
:103100005740019000959DF856009DF855500C943D
:103110009DF854400B900A959DF853009DF852502D
:1031200009949DF85140089007959DF850009DF82E
:103130004F5006949DF84E400590049503940C481A
:1031400002F0B4F8AFE731460A4802F0AFF84FF0AA
:10315000FF3461E734AF000860AF0008580000207A
:10316000A0AF000820AF0008ECAE00080CAF0008CC
:1031700098AE000880AF00082DE9F0438BB00F46F1
:1031800014460A210DF111021D4606469DF848809D
:10319000FDF700FD9DF811301C2B00F2B980DFE82F
:1031A00003F0A1B7B7B7B7B7B7B7B7B7B7B7B7B740
:1031B000B7B7B7B7B782B7B7B749B7B7B7B70F00A1
:1031C00005AA09213046FDF7E5FC3046FFF718FA5D
:1031D0000590002800F0A180B0F5006F03D94FF4EE
:1031E000006318460593024639463046FDF762FAF9
:1031F0000028044672DD82B20592002A00F08D801C
:1032000000210D4604E0059A2946954200F085808C
:10321000521B12B239443046FDF7D4F90544002858
:103220000446ADB2EFDA3046FCF784FF20460BB01F
:10323000BDE8F0830DF1120205213046FDF72CFCAC
:103240009DF81230DB0773D405AA09213046FDF73B
:10325000A1FC059A002A5BD0B2F5006F8ABF4FF43B
:10326000006312B21A463946304688BF0593FDF70F
:1032700021FA0028044631DD82B20592002A47D0A7
:1032800000210D4603E0059A2946954240D0521B85
:1032900012B239443046FDF795F90544002804463A
:1032A000ADB2F0DABFE7E078A178637822780190D8
:1032B000009102953146344801F0F8FF05AA042137
:1032C0003046FDF767FC9DF824302146102B2A4636
:1032D000304618BF0423FDF78BF8044620460BB098
:1032E000BDE8F083B8F10B0F36D0B8F1170F3FD01F
:1032F000B8F1020F0AD10121244C00232288304664
:1033000055182580FCF74EFF5FFA80F9B14534D19E
:10331000012420460BB0BDE8F0833046FDF70EF9DE
:1033200001280446DAD13146194801F0BFFFD5E73C
:10333000E078A17863782278019000910295314677
:10334000144801F0B3FF01230AAA02F8153D042135
:103350003046FDF7A1FB77E700230D210B4C2288B7
:10336000551C30462580FCF71DFF5FFA80F9CDE73C
:10337000064C002322880921F2E73146064801F075
:1033800095FF4FF0FF34A9E7DCAF0008580000209C
:1033900020AF0008B4AF000880AF00082DE9F0416D
:1033A00084B00E4617460D210DF10A021C46054653
:1033B000FDF7F0FB9DF90A200E2A1AD8DFE802F08B
:1033C00008191C191919191919191C1919191C008E
:1033D0000B2C4FD0172C46D0022C05D121460023B0
:1033E0003A462846FCF7DEFE3A462946254801F0D3
:1033F0005DFF04B0BDE8F08103AA09212846FDF76E
:10340000C9FB039AB2F5006F29D94FF40062039209
:103410001D4F0DF10B0101910097A7F110033146EB
:103420002846FDF74BFA80B20028E2D00021103F79
:103430000246B8460C4603903B8A9DF80B00121BCF
:1034400012B231440190009328464346FDF78CF9AF
:10345000039A0444A4B294422146EDD1C9E7002A5C
:10346000C7D012B2D4E700233A460A212846FCF717
:1034700099FEB9E700233A460E212846FCF792FE52
:10348000B2E700BF08B000084412002070B50D4636
:103490000446038ACA889BB223F4405313438989A4
:1034A00003828289AE8822F4B05323F00C031B04FC
:1034B00028891B0C6A893343034313439BB2A381BE
:1034C000A38A86B09BB223F440730B4301A8A38266
:1034D000FFF79CFC04991A48039BA289844208BF09
:1034E0000B4612F4004F2A6803EB830314BF52000B
:1034F000920003EB8303B3FBF2F36422114DA18925
:10350000A5FB0360400902FB10330A044FEA0010D8
:103510000AD41B013233A5FB0323C3F34313034334
:103520009BB2238106B070BDD9003231A5FB0131B9
:10353000C1F3421242EA00039BB2238106B070BD80
:10354000003801401F85EB51838929B923F40053CA
:103550001B041B0C838170479BB243F4005383818F
:10356000704700BFC1F30801818070478088C0F3B5
:10357000080070470388194214BF012000207047DB
:10358000C94389B201807047F8B5134DDFF854E0A4
:103590002A68DEF80060531CB34204460F460DD87B
:1035A0000E4E3168601C0844121B214401F00EFECF
:1035B00033681F552B6801332B60F8BD084A074E4E
:1035C0001268306813441946CEF8003001F0E0FE6E
:1035D0002A6801463060E5E7541300206413002098
:1035E00028130020601300202DE9F041104A114DEE
:1035F000DFF8548001462B6812680F4801F056FE30
:103600002B68D8F800409C420AD20C4F0C4E3B6805
:103610003046195D01F04AFE2B680134A342F6D80A
:10362000084801F0ADFE2B68C8F80030BDE8F08115
:10363000601300205413002030B0000864130020F1
:1036400050B00008C4AC0008481200202DE9F04F2B
:103650006E2700264FF0010BC34D93B06C7995F89F
:1036600004C02978AB786A7895F803E00294EC7B83
:10367000CDF804C095F80EC0CDF800E095F80DE047
:103680000C942C7BCDF82CC095F80BC0CDF828E01D
:1036900095F80AE009946C7ACDF820C095F808C036
:1036A000CDF81CE095F807E00694AC79AF48CDF86A
:1036B00014C0CDF810E00394AD4C01F0F7FDAD4B14
:1036C000AD4A38461760C3F800B0266001F0CCFA66
:1036D000DFF8CCA2DFF8CC82CAF80000A748FFF7D9
:1036E00083FF20680321FFF74FFF98F8021020683E
:1036F000FFF74AFF98F801102068FFF745FF98F898
:1037000000102068FFF740FF9D48FFF76DFFDFF8CE
:10371000989231462068FFF737FF20680321FFF7B2
:1037200033FFB9F80010DFF884822068090AFFF738
:103730002BFF99F800102068FFF726FF98F800107B
:103740002068FFF721FF98F801102068FFF71CFFA1
:10375000DFF85C9298F802102068FFF715FF98F8E0
:1037600003102068FFF710FF206899F80010FFF79A
:103770000BFF99F801102068FFF706FFDFF834828D
:1037800099F802102068FFF7FFFE99F803102068EF
:10379000FFF7FAFE98F800102068FFF7F5FE98F89A
:1037A00001102068FFF7F0FE98F802102068FFF77C
:1037B000EBFE98F803102068FFF7E6FE7148FFF76C
:1037C00013FFDFF8F48131462068FFF7DDFE206843
:1037D0000521FFF7D9FEB8F800102068090AFFF7A5
:1037E000D3FE98F800102068FFF7CEFE29782068F5
:1037F000FFF7CAFE69782068FFF7C6FEA97820683F
:10380000FFF7C2FEE9782068FFF7BEFE297920683D
:10381000FFF7BAFE69792068FFF7B6FEA97920683C
:10382000FFF7B2FEE9792068FFF7AEFE297A20683B
:10383000FFF7AAFE697A2068FFF7A6FEA97A20683A
:10384000FFF7A2FEE97A2068FFF79EFE297B206839
:10385000FFF79AFE697B2068FFF796FEDFF85C8130
:10386000A97B2068FFF790FEE97B2068FFF78CFEBC
:1038700098F803102068FFF787FE98F80210206878
:10388000FFF782FE404D98F801102068FFF77CFE9C
:1038900098F800102068FFF777FEE9782068FFF7B6
:1038A00073FEA9782068FFF76FFE69782068FFF73C
:1038B0006BFE29782068FFF767FE3448FFF794FE17
:1038C00031462068FFF760FEDFF8F4800D212068A4
:1038D000FFF75AFE2E48FFF787FEB8F80010206861
:1038E000090AFFF751FE2B4D98F800102068FFF7EA
:1038F0004BFE2948FFF778FE29882068090AFFF760
:1039000043FE29782068FFF73FFE2448FFF76CFE4E
:1039100020684121FFF738FE20687321FFF734FE4D
:1039200020687321FFF730FE20686921FFF72CFE25
:1039300020686721FFF728FE39462068FFF724FE3C
:1039400020686521FFF720FE20686421FFF71CFE38
:1039500020682021FFF718FE20686121FFF714FE80
:10396000394620682EE000BF1813002058B0000828
:103970005413002028130020601300208CB000088E
:1039800098B00008A4B000080C130020B0B00008E4
:10399000C0B000086C130020D8B00008F4B00008D4
:1039A00064130020381300200A1300207413002031
:1039B0005C130020FC120020101300203C13002098
:1039C00050130020FFF7E0FD20682021FFF7DCFD09
:1039D00020686121FFF7D8FD20686421FFF7D4FD3E
:1039E00020686421FFF7D0FD20687221FFF7CCFD2D
:1039F00020686521FFF7C8FD20687321FFF7C4FD2B
:103A000020687321FFF7C0FD20682E21FFF7BCFD61
:103A100031462068FFF7B8FD59462068FFF7B4FD2E
:103A200031462068FFF7B0FD20680A21FFF7ACFDA2
:103A300031462068FFF7A8FD20680321514DFFF7AC
:103A4000A3FD31462068FFF79FFD59462068FFF728
:103A50009BFD29782068FFF797FD69782068FFF7BC
:103A600093FDA9782068FFF78FFDE9782068FFF7BC
:103A70008BFD29792068FFF787FD69792068FFF7BA
:103A800083FD4148FFF7B0FD404D31462068FFF708
:103A90007BFD20680221FFF777FD29883C4F2068D5
:103AA000090AFFF771FD29782068FFF76DFD398855
:103AB000384D2068090AFFF767FD39782068FFF75D
:103AC00063FD2988344F2068090AFFF75DFD2978D6
:103AD0002068FFF759FD20683978FFF755FD7978A0
:103AE00020682E4DFFF750FDB9782068FFF74CFD98
:103AF000F9782068FFF748FD20682978FFF744FD32
:103B000069782068FFF740FDA9782068FFF73CFD41
:103B1000E9782068FFF738FD29792068FFF734FD40
:103B200069792068FFF730FD1D48FFF75DFD02222F
:103B3000FF2112AB03F80F2D8DF8381011AA03F8EE
:103B4000016F9342FBD1102140F22323012402256F
:103B50001448154A0078127801910093DAF80010A1
:103B60000EAB8DF846608DF845408DF84750FCF758
:103B7000FBFDDAF8000001F07FF8204613B0BDE845
:103B8000F08F00BF041300200CB100086813002060
:103B90005813002000130020701300203013002061
:103BA00020B10008781300206013002022232DE9A3
:103BB000F04300250127674C674ADFF8BC9187B0C6
:103BC00018461760C9F80030256001F04DF8DFF89D
:103BD000AC81624EC8F800006148FFF705FD394628
:103BE0002068FFF7D1FC5F4B20689978FFF7CCFC89
:103BF00029462068FFF7C8FC29462068FFF7C4FC67
:103C00005948FFF7F1FC29462068FFF7BDFC39460B
:103C10002068FFF7B9FC29462068FFF7B5FC20684B
:103C20000A21FFF7B1FC29462068FFF7ADFC2068A8
:103C30000321FFF7A9FC29462068FFF7A5FC3946B8
:103C40002068FFF7A1FC20683178FFF79DFC7178B0
:103C50002068FFF799FCB1782068FFF795FCF178B0
:103C60002068FFF791FC31792068FFF78DFC7179AE
:103C70002068FFF789FC3D48FFF7B6FC294620681D
:103C8000FFF782FC20680321FFF77EFC29462068AD
:103C9000FFF77AFC20680C21FFF776FC20680321EF
:103CA000FFF772FC29462068FFF76EFC20680821A8
:103CB000FFF76AFC2068DC21FFF766FC29462068D4
:103CC000FFF762FC29462068FFF75EFC2946206862
:103CD000FFF75AFC29462068FFF756FC2946206862
:103CE000FFF752FC29462068FFF74EFC2946206862
:103CF000FFF74AFC29462068FFF746FC1C48FFF7FF
:103D000073FC0222FF2106AB03F80F2D8DF808107B
:103D100005AA03F8015F9342FBD1102140F223234F
:103D200001260224134899F800200078019100939D
:103D3000D8F8001002AB8DF816508DF815608DF88C
:103D40001740FCF711FDD8F8000000F095FF07B010
:103D5000BDE8F08354130020281300200413002032
:103D60008CB000083813002098B000080CB100088F
:103D7000A4B0000878130020601300206413002012
:103D80001E232DE9F04300254FF001085A4A5B4CF1
:103D9000DFF88C9187B01846C9F80030C2F800806F
:103DA000256000F061FF564F564E38605648FFF7C9
:103DB0001BFC20680B21FFF7E7FB2068B178FFF7B9
:103DC000E3FB71782068FFF7DFFB31782068FFF7AD
:103DD000DBFB4E48FFF708FC20682946FFF7D4FBC1
:103DE00020684146FFF7D0FB20682946FFF7CCFB4F
:103DF00020680A21FFF7C8FB20682946FFF7C4FBAB
:103E000020680321424EFFF7BFFB20682946FFF7D9
:103E1000BBFB20684146FFF7B7FB20683178FFF70E
:103E2000B3FB20687178FFF7AFFB2068B178FFF72C
:103E3000ABFB2068F178FFF7A7FB20683179FFF72B
:103E4000A3FB71792068FFF79FFB3248FFF7CCFB9B
:103E500020682946FFF798FB20680621FFF794FBAE
:103E600020682946FFF790FB20680621FFF78CFBAE
:103E700020682946FFF788FB20681721FFF784FB9D
:103E800020682946FFF780FB20681821FFF77CFB9C
:103E900020682946FFF778FB20682021FFF774FB94
:103EA0001D48FFF7A1FB0222FF212C4606AB03F8B9
:103EB0000F2D8DF8081005AA03F8014F9342FBD18E
:103EC000102140F2232301260225144899F80020EE
:103ED000007801913968009302AB8DF816408DF897
:103EE00015608DF81750FCF73FFC386800F0C4FEF1
:103EF000002007B0BDE8F0832813002054130020F1
:103F000064130020381300208CB0000898B000081B
:103F1000041300200CB1000834B10008781300200D
:103F2000601300202DE9F04F7D4CA1B02078FEF702
:103F300067FB024610B921B0BDE8F08F794D2078BB
:103F40000DF16E030DF16D0429688DE818001CABAE
:103F5000FCF7B4FCBDF86E709DF87F400D970C9493
:103F60009DF87D709DF87C4086B29DF87B000A9795
:103F700009949DF87A709DF8794008909DF8780032
:103F8000079706949DF877709DF8764005909DF808
:103F900075009DF87EE0049703949DF874709DF879
:103FA00073409DF872309DF871209DF8701002905A
:103FB0005D48CDF82CE08DE890000E9601F076F982
:103FC0002C685A48217801F071F92178022905D02E
:103FD000072903D0002021B0BDE8F08FA246544845
:103FE00001F064F91AF8043B1993A319534511938E
:103FF00039D9DFF850919AF80130013B172B00F2C4
:104000001A82DFE813F0FF01A201A1007E0018026E
:1040100018021802180218021802180218021802D0
:1040200018021802180218021802180218021802C0
:104030001802350018003F4801F0A2F99AF8021062
:104040009AF803300AF1040203EB01239BB21344F4
:104050009A4280F0EE81A3EB0A03043B02EB030AD1
:10406000119B5345C7D89DF9640021B0BDE8F08F7E
:10407000314801F085F99AF80400304B9AF80210A3
:104080009AF8032018719AF8050002EB0122587182
:104090009AF8060091B298719AF807000AF10402A2
:1040A000D8719AF808000A4418729AF809000AF1BF
:1040B000140158729AF80A00914298729AF80B000B
:1040C000D8729AF80C0018739AF80D0058739AF881
:1040D0000E0098739AF80F00D8739AF810001874AD
:1040E0009AF8110058749AF8120098749AF813000C
:1040F000D87480F02282A2EB0A02143A01EB020A81
:10410000AEE70F4801F03CF99AF802109AF8033034
:104110000AF1040203EB01239BB202EB030A9FE7BF
:10412000781300206413002044B10008B0B10008E7
:10413000C4B1000828B3000808B3000848120020E2
:10414000A8B2000818130020CC4801F019F99AF819
:1041500002209AF80330CA4803EB02239BB2038083
:104160000AF104009AF80420C6491E189AF805308E
:104170000A704B709AF806209AF807308A70CB7054
:10418000C14A9AF808309AF80910137051709AF8D9
:104190000A309AF80B109370D170BC4B9AF80C103F
:1041A0009AF80D2019705A709AF80E109AF80F208C
:1041B0009970DA700AF1100A1096109B9A45BFF4B4
:1041C0004FAF9AF80130052B2CD00D2B40F03581E4
:1041D000AF4801F0D5F89AF802209AF80330AD4CB8
:1041E00003EB02239BB2AC4D1946AC4823802B80D5
:1041F00001F05CF82988AA4801F058F89AF8040000
:104200009AF805302288A74903EB002392440B80DB
:10421000109B0AF1040A9A45BFF422AF9AF80130C4
:10422000052BD2D1A04801F0ABF89AF804109AF807
:1042300002309AF8030089F800109AF8052000EB84
:10424000032089F801209AF80630984C89F802304A
:1042500020809AF807000AF11C0A89F803001AF86E
:10426000144C064689F804401AF8135C129489F835
:1042700005501AF8117C139589F807701AF8100C7C
:10428000149789F808001AF80FBC159089F809B03E
:104290001AF80E7C89F80A701AF80DEC89F80BE010
:1042A000CDF858E01AF80CECCDF85CE089F80CE099
:1042B0001AF80BEC89F80DE01AF80A5CCDF860E00A
:1042C00089F80E501AF809EC1AF8030C89F806E080
:1042D0001AF8074C1AF808CC1AF8048C24040004C5
:1042E00004EB0C6400EB08601AF805CC1AF8018C9A
:1042F000644440441AF806CC1AF8028C0096159EC5
:1043000007970596139E149F0296129E0B95019691
:10431000179D189ECDF80CE0049799F80FE0CDF8A2
:1043200018B00A960995169D04EB0C240895DFF841
:10433000C4C15F4D00EB08272C60CCF800705D48CD
:10434000CDF830E000F0B2FF37E75B4801F018F835
:104350009AF802209AF80330584C03EB02239BB2E0
:1043600019465748238000F0A1FF9AF804209AF8D4
:104370000530258803EB02239BB2524C1946524864
:10438000238000F093FF23880AF10406022B2E44B9
:1043900061D19AF807309AF806109AF809201B04A0
:1043A00003EB01639AF808101344484A03EB012316
:1043B0000AF10A0513602A78454B46481A706A7854
:1043C0001C465A70AA78444F9A70EA7804F106089D
:1043D000DA702A7905F1060A1A716A795A7100F0C1
:1043E00065FF14F8011B384600F060FF4445F8D122
:1043F0003A4800F0C5FFB2453FF432AE751B063DAA
:10440000AA442DE6364800F0BBFF9AF802209AF83D
:104410000330344C03EB02239BB219462848238017
:1044200000F044FF23880AF1040213449A427FF407
:1044300012AE924614E62C4864E62B4800F0A0FF2A
:104440009AF802209AF803300AF1040A03EB0223D7
:104450009BB29A44B1E69AF806109AF80730234ABC
:1044600003EB01239BB219462148138000F01EFF85
:104470002388012B40D00AF108059CE70CB2000804
:104480000A130020741300205C130020FC1200208B
:104490005CB200086A1300205013002070B20008BC
:1044A00084B200086C13002018B20008101300201A
:1044B0003C13002028B20008B4B2000868130020A2
:1044C000F8B1000858130020C4B2000814130020EB
:1044D00030130020F8B2000814A50008C4AC00088E
:1044E000E8B100082C13002098B200080013002047
:1044F000D8B200080C130020114B9AF808209AF843
:1045000009009AF80A101A709AF80B2058701C4685
:104510000C489970DA7000F0C9FEDFF830800AF1BB
:104520000C05271D14F8011B404600F0BFFEBC42DD
:10453000F8D1054800F024FF3DE78A4690E500BF2A
:1045400070130020F0B20008C4AC000814A50008E5
:1045500038B5174C94F91430062B01D1052038BD1D
:10456000144D15482B785B011844FDF7B7FF22283E
:104570000DD02B7811485B0118440121FDF78CFF09
:104580002878002340F222220A21FBF70BFEFFF7D6
:10459000C9FC94F9143023B1052B0CBF0420012071
:1045A00038BDFFF7EDFB05232375012038BD00BFA3
:1045B00048120020781300200830006008080160CD
:1045C000F8B5464C94F91430062B01D10520F8BDFE
:1045D000434D44482B785B011844FDF77FFF2228A8
:1045E0000DD02B7840485B0118440121FDF754FFA2
:1045F0002878002340F222220A21FBF7D3FDFFF79F
:1046000091FCC5B2294694F91420384800F04EFEBA
:1046100094F9140000283ED0012801D00120F8BDF3
:10462000022DFCD1324800F0ABFE0022314B324962
:104630001F785E78987827766676DF781E79A07680
:104640005879E77626779F79DE796077187AA777A9
:10465000E6775F7A9E7A84F82000D87A93F80CE0A7
:1046600084F8217084F822605F7B9E7B84F82300AD
:10467000D87B224B84F8270084F824E084F8257046
:1046800084F826601E480A601E491B8802600A6082
:10469000F3B90020F8BD20766076A076E07620772A
:1046A0006077A077E07784F8200084F8210084F810
:1046B000220084F8230084F8240084F8250084F87C
:1046C000260084F82700FFF771FA01202075F8BD55
:1046D000FEF7BCFF0928DCD02575F8BD4812002084
:1046E00078130020083000600808016040B300081B
:1046F0005CB3000818130020601300200A13002088
:10470000541300202813002008B5044B1878FBF739
:1047100011FD0622024B1A7508BD00BF7813002058
:10472000481200200023F0B5224F85B0062206462D
:104730000D46214839460093019302930393FDF7F8
:104740001BFF79783B78BA780B43F97813433A79B1
:104750000B437C7913431C430FD1184800F010FE23
:104760000820DC2378703946062213483C70FC7020
:104770003C717C71BB70FDF7D7FE1149114B124F94
:10478000124C0E700422694611481C603D60FDF712
:10479000CBFE694604220F48FDF7C6FE00220A2020
:1047A0000D4B0E49DA6283F828201A75086005B0AF
:1047B000F0BD00BF0413002000204160A4B3000836
:1047C000781300203813002064130020895751000B
:1047D0000038416000304160481200205C00002039
:1047E000044A05491368002B08BF0B4618441060A3
:1047F00018467047BC120020A41300204FF0FF3071
:10480000704700BF4FF4005300204B60704700BF5B
:10481000012070470020704710467047F8B5171EFA
:1048200013DD0C460A4DCE1914F8011B2846FEF77D
:1048300099FE80210648FEF79DFE0028F9D08021D0
:104840002846FEF79DFEA642EED13846F8BD00BFD1
:104850000038014010B5022484B01A4A02AB92E835
:10486000030083E80300194604200194FEF774F95D
:1048700001301ED001A90720FEF76EF901301CD0CF
:104880001148FDF72BFE0146104800F00FFD104CBB
:1048900001E0019B5BB901A91720FEF75DF901302A
:1048A000F7D1204600F06CFD019B002BF3D004B043
:1048B00010BD084800F064FDDCE7074800F060FD2B
:1048C000DEE700BFB8B3000800042160F0B30008C1
:1048D00008B40008C0B30008DCB300084FF48071CE
:1048E0000148FDF785BA00BF001401404FF4807104
:1048F0000148FDF77BBA00BF00140140C3785BB9E3
:104900000121037814485A0903F01F03203201FAE9
:1049100003F340F822307047104B0F21DA6870B46F
:10492000D243012485784378C2F30222C2F10406FF
:1049300021FA02F22A40B34001781343064A1B01D0
:1049400001F01F055018DBB2AC4080F80033490974
:1049500042F8214070BC704700E100E000ED00E04B
:1049600008B5024800F00CFDFEE700BF24B40008C3
:1049700008B5024800F004FDFEE700BF34B40008AB
:1049800008B5024800F0FCFCFEE700BF44B4000894
:1049900008B5024800F0F4FCFEE700BF54B400087C
:1049A00008B5FFF7F5FF00BF012110B5084684B038
:1049B000FEF798FA41F63F14002340F2E73201A9CE
:1049C0004FF08040ADF80A30ADF806308DF80C306D
:1049D000ADF80420ADF80840FCF7DAF901224FF0F9
:1049E00080401146FCF742FA21464FF08040FCF728
:1049F0003FFA01214FF08040FCF720FA01231C22EE
:104A000068468DF800208DF801308DF802308DF861
:104A10000330FFF773FF04B010BD00BF08B50121DC
:104A20004FF08040FCF726FA024A13680133136006
:104A300008BD00BFC0120020014B1868704700BFBE
:104A4000C012002070B5012182B00420FEF73EFAAA
:104A5000182403224FF40073264E01A930468DF826
:104A60000620ADF804308DF80740FDF761F9042207
:104A70004FF480634FF480750DEB020130468DF8E2
:104A80000720ADF80430FDF753F9304601A98DF841
:104A90000740ADF80450FDF74BF90121F820FEF76F
:104AA00015FA4FF4604301A91348ADF804308DF8AE
:104AB0000740FDF73DF901212020FEF707FA1026F7
:104AC00080230E4C01A92046ADF804308DF8076014
:104AD000FDF72EF901A920468DF80760ADF80450C6
:104AE000FDF726F9294620460122FDF783F902B099
:104AF00070BD00BF00080140000C014000140140DF
:104B000030B5012185B04FF48040FEF7DFF94FF456
:104B1000E13500230C220B4C69462046ADF80430E9
:104B2000ADF80630ADF80830ADF80C30ADF80A201D
:104B30000095FEF7ABFC20460121FEF705FD05B010
:104B400030BD00BF003801400021F0B5084697B0E5
:104B5000FDF7DEF8052000244FF00A0E08224FF47E
:104B60008053012502211A274FF08056039007A891
:104B7000CDF800E0089109921093019502970494F2
:104B8000059407940A940B940D940E940F94119429
:104B9000129413940C940696CDF850D0CDF854D0BE
:104BA000FDF760F829462046FDF7B2F817B0F0BDD2
:104BB00070B5012182B04FF4F470FEF787F901213E
:104BC0004FF48070FEF776F903264CF203021823A7
:104BD0001B4D01A92846ADF804208DF807308DF84B
:104BE0000660FDF7A5F84FF4F06301A91548ADF88C
:104BF0000430FDF79DF88023134C01A92046ADF841
:104C00000430FDF795F83023284601A9ADF80430AB
:104C10004FF48055FDF78CF8102301A920468DF83C
:104C200007308DF80660ADF80450FDF781F829468D
:104C300020460022FDF7DEF8FFF786FF02B070BDC8
:104C40000014014000180140000C014008B520216B
:104C50000448FEF78FFC0028F9D00248FEF786FCD6
:104C6000C0B208BD00380140024B0146186800F090
:104C70000BB800BF7C040020024B0146186803F00B
:104C800059BA00BF7C0400202DE9F04F01F10B065A
:104C9000162E83B0054640F29E8036F0070600F1DE
:104CA000BD80B14200F2BA8000F0F4FAB6F5FC7FA4
:104CB000C0F08582730A00F0B880042B00F26C818A
:104CC000B30903F1390003F1380EC100B84F39447C
:104CD0004C680839A14206D10CE0002A80F2AB8072
:104CE000E468A14206D0636823F003039A1B0F2AED
:104CF000F3DD70463C69DFF8CCE2744500F09E813C
:104D0000636823F003039A1B0F2A00F38381002AB0
:104D1000C7F814E0C7F810E080F29180B3F5007F87
:104D200080F054810122DB0879684FEAA30C134418
:104D300057F8338002FA0CF207EBC30C0A43ACF1CC
:104D40000801E160C4F808807A6047F83340C8F889
:104D50000C40012483109C4094427DD8144206D11B
:104D600020F003006400144200F10400FAD007EBC5
:104D7000C009CC468046DCF80C309C4507D15FE189
:104D8000002A80F26D81DB689C4500F059815968EA
:104D900021F003018A1B0F2AF2DDDC68D3F808C07A
:104DA00046F0010828461E4442F00105C3F804807D
:104DB000CCF80C40C4F808C07E613E61C6F80CE037
:104DC000C6F808E075605A50009300F069FA009B3D
:104DD00003F108041EE0102920D800F05BFA102629
:104DE00018230220724F3B445C68A3F108029442EE
:104DF00000F02F816368E16823F0030323445A68BD
:104E0000A66842F00102F16028468E605A6000F008
:104E100047FA0834204603B0BDE8F08F00240C2385
:104E200020462B6003B0BDE8F08F40204FF40071A6
:104E30004FF03F0E4AE723445A68E168E0E7234415
:104E40005A68284642F001025A60083400F028FAF5
:104E5000204603B0BDE8F08FBC68636823F0030808
:104E6000B04504D3A8EB06030F2B00F38580DFF8D1
:104E70005891504BD9F800201B680132334404EBA1
:104E8000080A00F0548103F580530F3323F47F6B3D
:104E90002BF00F0B5946284600F038FC411C024607
:104EA00000F0FB80824500F2F680434B19685944BC
:104EB000196000F04C81D9F8000001301BBFA2EB53
:104EC0000A0A5144C9F80020196012F0070100F0E5
:104ED0001481C1F10800C1F580510244083102EB90
:104EE0000B09C9F30B09A1EB0909494628460193AF
:104EF000009200F00BFC431C9DE80C0000F0428186
:104F0000801A484440F001001968BC424944BA6024
:104F10001960506017D0B8F10F0F40F2FA804FF0CF
:104F2000050C6268A8F10C0020F0070002F00102F5
:104F300004EB000E02430F286260CEF804C0CEF8E6
:104F400008C000F216811D4BBC681A68914288BFE8
:104F500019601B4B1A689142626888BF196022F081
:104F600003029642A2EB060301D80F2B04DC28466D
:104F700000F096F900244DE746F0010243F00103EA
:104F8000264462602846BE600834736000F088F9E9
:104F9000204603B0BDE8F08F142B70D9542B00F2DB
:104FA000A280330B03F16F0003F16E0EC1008DE69A
:104FB0006C000020F4120020C4120020EC1200202B
:104FC000F012002074000020740400205A0A042A01
:104FD0005BD9142A00F2AE8002F15C01C9005B3299
:104FE00007EB010C7958ACF1080C8C4500F0888077
:104FF0004A6822F00302934273D289688C45F7D144
:10500000DCF80C307A68E360C4F808C09C60CCF827
:105010000C409EE646F0010C42F001012644C4F823
:1050200004C028467E613E61C6F80CE0C6F808E080
:105030007160E25000F034F90834EBE67A6888E6F3
:1050400008F1010818F0030F0CF1080C7FF493AE7F
:105050002DE0DC68A34208BF02303FF44BAEC9E646
:105060001C4619444A68DB6854F8086F42F0010294
:105070004A602846F3609E6000F012F9CAE603F128
:105080005C0003F15B0EC10020E69A0902F13901D0
:10509000C9003832A4E7BC4254D0BC68626822F030
:1050A00003025EE759F80839994540F0868010F010
:1050B000030F00F1FF30F5D17B6823EA04037B6026
:1050C00064009C423FF6C8AE002C3FF4C5AE1C42C3
:1050D00040467FF44CAE64001C4200F10400FAD05C
:1050E00045E68C468CE7B3F5AA7F15D8F30B03F1A0
:1050F000780003F1770EC100E8E54FF48051EEE649
:1051000001217B68921001FA02F21A437A60634629
:1051100079E7012353602AE740F25452934222D8A0
:10512000B30C03F17D0003F17C0EC100CEE503F169
:10513000100BAFE6542A29D81A0B02F16F01C900EF
:105140006E324DE7204B196859441960B3E6CAF333
:105150000B0000287FF4AFAE08EB0B03BA6843F0F6
:1051600001035360EFE67F204FF47E714FF07E0E17
:10517000ACE504F108012846009302F0DBFF009B38
:105180001968E0E601204FF00009BDE6B2F5AA7FFC
:1051900005D8DA0B02F17801C900773220E740F236
:1051A00054518A4205D89A0C02F17D01C9007C3223
:1051B00016E74FF47E717E2212E77B6880E7F008E5
:1051C00006F108030EE600BFC41200208842F0B5C5
:1051D0000DD98B1898420AD28418002A51D0224641
:1051E00013F8014D994202F8014DF9D1F0BD0F2A93
:1051F00048D941EA00039B0746D1154600F1100447
:1052000001F1100353F8106C103D44F8106C53F882
:105210000C6C0F2D44F80C6C53F8086C04F110045E
:1052200044F8186C53F8046C03F1100344F8146C40
:10523000E8D8A2F1100323F00F0302F00F0E103391
:10524000BEF1030F1944034421D90E4674461D1FB5
:1052500056F8047B043C032C45F8047FF8D8AEF1E3
:10526000040424F0030404342144234402F0030220
:1052700062B1013B0A4411F8014B8A4203F8014F25
:10528000F9D1F0BD0346F3E70346F2E7F0BD7246FD
:10529000EEE700BF014803F0E7B900BF8C13002020
:1052A000014803F0E3B900BF8C1300200FB410B520
:1052B000074B82B004AC54F8042B1868234681686D
:1052C000019400F063FA02B0BDE8104004B07047EA
:1052D0007C040020024B01461868826803F046BE39
:1052E0007C040020F0B5054689B008460C4601272D
:1052F00000F01EFA0226C31920490393AB6B04AADF
:1053000004940590AC68079702960691019253B3F6
:10531000636E13F0010FB4F90C309AB201D190050D
:1053200025D5910406D4626E43F4005322F4005252
:10533000A3816266284601AA214602F0E1FF636E5E
:1053400000280CBF0A254FF0FF35DA0702D4A389E5
:105350009B0502D5284609B0F0BDA06D03F086F983
:10536000284609B0F0BD284602F058FED0E7A06DEF
:1053700003F07AF9B4F90C309AB2D2E7F8A6000833
:10538000024B01461868FFF7ADBF00BF7C04002048
:10539000024B0A460146186800F002B87C0400205F
:1053A000002900F094802DE9F04F0C46154683B09B
:1053B000804605F10B06FFF76DFF54F804EC162E3E
:1053C0002EF00307A4F108093CD810221646B54276
:1053D0003DD8974243DAC64B09EB070099688842EB
:1053E00000F0C380436823F0010101444968C90704
:1053F0004DD51EF0010F00F09B8029464046FFF777
:1054000043FC054600283BD054F8043CA0F10802B8
:1054100023F001034B449A4200F02B813A1F242AC7
:1054200000F21881132A00F2EB800346224611682D
:1054300019605168596092689A602146404602F0AE
:1054400079FE1DE026F00706002E3246BFDA002561
:105450000C232846C8F8003003B0BDE8F08F25467D
:10546000BB1B0F2BD9F804201DD802F001023A43D0
:1054700009EB0701C9F804204B6843F001034B60B6
:105480004046FFF70DFF284603B0BDE8F08F23F03C
:105490000303F91891421DDBC36882682546D36077
:1054A0000F469A60DCE702F0010209EB060143F0C7
:1054B00001033243C9F804204F444B607B68083134
:1054C00043F001037B60404602F034FED8E711460A
:1054D000FFF7DABB1EF0010F8FD154F8081CA9EBBF
:1054E000010ADAF8041021F003010B443B44934213
:1054F00026DB5546C16880683A1FC160886055F850
:10550000080FDAF80C10242AC160886026D8132A04
:1055100040F2818021681B2ACAF808106168CAF825
:105520000C1000F2AD8004F108000AF1100274E0E2
:1055300054F8083CA9EB030ADAF8041021F003013F
:105540007B189342FFF659AF5546DAF80C1055F820
:10555000080F3A1F242AC1608860D8D921462846FE
:105560001F46D146FFF732FE7AE7416806F1100088
:1055700021F0030BBB44834558DA1EF0010F7FF482
:105580003CAF54F8081CA9EB010ADAF8041021F02A
:1055900003018B445845D3DC5546DAF80C1055F816
:1055A000080F3A1F242AC160886000F28D80132AF8
:1055B00040F2878021681B2ACAF808106168CAF87F
:1055C0000C1000F2888004F108010AF1100208684A
:1055D00010604868506089689160ABEB06020AEB86
:1055E000060142F0010299604A60DAF80430404650
:1055F00003F001031E43CAF80460FFF751FE42E7BF
:1056000023681B2A03606368436027D800F10803FE
:1056100004F108020BE720462A4601681F46116084
:105620004168D14651608368936019E7ABEB060B84
:1056300009EB06014BF0010299604A6054F8043C02
:10564000404603F001031E4344F8046CFFF728FEB4
:10565000254618E72146FFF7B9FDEEE6A368242AA0
:105660008360E368C36018D000F1100304F11002F6
:10567000DDE650F8043C254623F003031F44EFE623
:10568000A168242ACAF81010E168CAF814100DD0D5
:1056900004F110000AF11802BFE7226900F11803B3
:1056A0000261616904F118024161C0E6226904F1F6
:1056B0001800CAF8182061690AF12002CAF81C1003
:1056C000ABE721462A4682E7214628460193FFF7A9
:1056D0007DFD019B81E7A168242ACAF81010E168CA
:1056E000CAF8141006D004F110010AF118026EE78E
:1056F0006C000020226904F11801CAF818206069C2
:105700000AF12002CAF81C0061E700BF38B5002387
:10571000064C054608462360FFF762F8431C00D09C
:1057200038BD2368002BFBD02B6038BDA0130020B0
:1057300020F0030110F00300C0F1000051F8043B19
:1057400000F1040C4FEACC0C6FF000021CBF22FAEF
:105750000CF213434FF0010C4CEA0C2C4CEA0C4CAD
:10576000A3EB0C0222EA030212EACC1204BF51F8A6
:10577000043B0430F4D0C2F1000102EA0102B2FAA3
:1057800082F2C2F11F0200EBD20070472DE9F04F08
:10579000C1B01D468A4691460446089002F052FF69
:1057A00003680E9518461593FFF7C2FF14901CB1BD
:1057B000A36B002B00F06682DAF86430BAF90C2093
:1057C00013F0010F93B202D1990540F17C829F043E
:1057D0000AD4DAF8641042F4005321F40051AAF814
:1057E0000C30CAF864109BB21E0740F12A82DAF826
:1057F0001020002A00F0258203F01A020A2A00F085
:10580000458200230DF1C00813931193129318934E
:1058100019930B931693179325932493CDF88C80AB
:10582000CDF828A099F800304C46EBB1252B02D1D9
:105830001AE0252B03D014F8013F002BF9D1A4EB7B
:1058400009058DB1249B259A01332A44072BC8F8FA
:105850000090C8F804502592249300F3088208F1C0
:1058600008080B9B2B440B932378002B00F00E842D
:1058700000231A468DF86F3019460C939B464FF063
:10588000FF33667804F10109099309F10109A6F1D2
:105890002003582B00F2D183DFE813F06102CF031D
:1058A000CF036902CF03CF03CF03CF03CF03CF03CF
:1058B0001D023103CF032A021103CF032C036E0212
:1058C0006E026E026E026E026E026E026E026E0258
:1058D000CF03CF03CF03CF03CF03CF03CF03CF0338
:1058E000CF03CF037E02C502CF03C502CF03CF0390
:1058F000CF03CF030C03CF03CF036F00CF03CF033E
:10590000CF03CF03CF035900CF03CF034703CF0308
:10591000CF03CF03CF03CF03CF03CF03CF03CF03F7
:10592000CF034D036103C502C502C50267036103CE
:10593000CF03CF036C03CF037903710036035C02FE
:10594000CF038E03CF035B00CF03CF0334024BF0B2
:10595000100B1BF0200F40F065830E9A1BF0100F08
:10596000134640F0EC851BF0400F00F0E8851488EA
:105970000432002501230E9214E04BF0100B1BF0B3
:10598000200340F03A831BF0100240F0DF851BF04B
:10599000400300F0DB850E9913460A4600250432C9
:1059A0000C880E92002292468DF86F2009994A1CAD
:1059B00000F019822BF08002069254EA050240F0B2
:1059C0001882002940F07F84002B40F07F851BF077
:1059D00001030D9300F0BA86302340AF07F8413D34
:1059E000099B0D9A9342B8BF134607930023109367
:1059F000BAF1000F02D0079B01330793069B13F007
:105A000002030F9302D0079B02330793069B13F008
:105A1000840540F039830C9B079AA3EB020BBBF182
:105A2000000F40F33183BBF1100F40F3AF874346C3
:105A30001024A8462599249ADDF820A00A9D06E0A6
:105A4000ABF1100BBBF1100F03F1080318DD0132AD
:105A5000AA481031072A2591249283E81100EFDD2E
:105A600023AA2946504603F03DFB002840F08783D7
:105A7000ABF1100BBBF1100F30AB2599249AE6DC8B
:105A80004546984601329D4B0BEB0104072A2594AD
:105A9000249288E8080800F3EB829DF86FA008F1D3
:105AA0000808BAF1000F10D00121249B0C440B44CC
:105AB0000DF16F02072B25942493C8F80410C8F841
:105AC000002000F3548408F108080F9B7BB10221E9
:105AD000249B0C4401331CAA072B25942493C8F85B
