:020000040800F2
:10000000600F0020B103000881410008834100080F
:100010008541000887410008894100080000000070
:100020000000000000000000000000008B410008FC
:100030008D410008000000008F4100089141000838
:10004000CB030008CB030008CB030008CB03000858
:10005000CB030008CB030008CB030008CB03000848
:10006000CB030008CB030008CB030008CB03000838
:10007000CB030008CB030008CB030008CB03000828
:10008000CB030008CB030008CB030008CB03000818
:10009000CB030008CB030008CB030008CB03000808
:1000A000CB030008CB030008CB030008CB030008F8
:1000B000CB030008CB030008CB030008CB030008E8
:1000C000CB030008CB030008CB030008CB030008D8
:1000D000CB0300089F410008CB030008CB030008B6
:1000E000CB030008CB030008CB030008CB030008B8
:1000F000CB030008CB030008CB030008CB030008A8
:10010000CB030008CB030008CB030008CB03000897
:10011000CB030008CB030008CB030008CB03000887
:10012000CB030008CB030008CB030008CB03000877
:10013000CB030008CB030008CB030008CB03000867
:10014000CB030008CB030008CB030008CB03000857
:10015000CB030008CB030008CB030008CB03000847
:10016000CB030008CB030008CB030008CB03000837
:10017000CB030008CB030008CB030008CB03000827
:10018000CB030008CB03000800F002F800F044F8AD
:100190000AA090E8000C82448344AAF10107DA45E2
:1001A00001D100F039F8AFF2090EBAE80F0013F0F0
:1001B000010F18BFFB1A43F0010318479C450000CC
:1001C000BC450000103A24BF78C878C1FAD852075D
:1001D00024BF30C830C144BF04680C6070470000C1
:1001E0000023002400250026103A28BF78C1FBD840
:1001F000520728BF30C148BF0B607047642904F024
:100200001580782904F04E80002070471FB504F057
:10021000C0F91FBD10B510BD04F082F91146FFF7FB
:10022000F5FF03F046FB04F0A0F903B4FFF7F2FF7B
:1002300003BC03F073FF0000544810B5016841F49B
:10024000700101605248016841F001010160504AAB
:1002500000210832116002684E4B1A400260031DF3
:100260004D4A1A60026822F48022026048480C302D
:10027000016000F03CF845494FF0006080390860AB
:1002800010BD70B5424D08352868444B444910F004
:100290000C0004D05E10042803D0082803D00B60A3
:1002A0001BE00E6019E03A4A121D1068C0F380543A
:1002B000106800F03F0014B1B6FBF0F001E0B3FBB2
:1002C000F0F013681268C3F388135843C2F3014275
:1002D000521C5200B0FBF2F008602868304AC0F3AC
:1002E0000310121D105C0A68C2400A6070BD0CB594
:1002F0000022274900920192086840F4803008608B
:100300004FF4A063086800F4003001900098401C8E
:100310000090019810B900989842F3D108688003C2
:1003200032D5012001901A484030026842F08052D4
:1003300002601C48026842F480420260144808309F
:100340000268026002680260026842F4A052026021
:10035000031F154A1A600A6842F080720A600A6830
:100360009201FCD5114A40F205611160016821F04B
:1003700003010160016841F0020101600168C1F3FD
:1003800081010229FAD10CBD01920CBD88ED00E07B
:1003900000380240FFFFF6FE103000240024F40075
:1003A000000000200070004008544007003C02405C
:1003B0000948804709480047FEE7FEE7FEE7FEE7F9
:1003C000FEE7FEE7FEE7FEE7FEE7FEE70448054935
:1003D000054A064B704700003902000889010008F1
:1003E00060090020600F0020600B0020600B0020DF
:1003F0002849084328490860704730B50F23C27860
:1004000001780125FAB1244A126801F1E02102F4D1
:10041000E062C2F5E062C2F30722C2F10404D340F5
:100420004278A24084781C401443220181F80024C1
:10043000007800F01F018D404009800000F1E020AD
:10044000C0F8005130BD01F01F0085404809800010
:1004500000F1E020C0F8805130BD104A1140014346
:100460000D48001F016070470B4A121D00291168DA
:1004700001D0014300E08143116070474FF0E0215B
:100480000428086903D020F004000861704740F098
:100490000400FAE70000FA050CED00E080FFFF1F02
:1004A000374900200860091D0860091D0860091D02
:1004B00008603349334814310860704730B5304A1A
:1004C0008379016853B313688B431360111D0B6864
:1004D0000468A3430B60017911440B68046823434B
:1004E0000B60274B083319680468A14319601C1D71
:1004F00021680568A94321604179102905D011447C
:100500000A68006802430A6030BD19680268114336
:100510001960216800680143216030BD00791044F2
:1005200002688A43026030BD0021016001710C2223
:10053000427181717047124910310A6802430A60A2
:10054000704701460E4A0020143212680A4200D059
:10055000012070470A49143108607047084A014673
:1005600000201268064B0A4014331B680B4202D06D
:10057000002A00D0012070470149143108607047FB
:10058000003C0140FFFF7F008100A1F1C04140B16C
:1005900043F2D20008606FF070404860C1F8040177
:1005A00070474FF0204243F2DB001060F3E710B5D4
:1005B000D0E901121143D0E903231A4311434269E0
:1005C000114382691143C2691143026A1143426AAD
:1005D0001143826A1143C26A1143026B11430268DC
:1005E0009200A2F1C04211608168082907D1016818
:1005F0008900A1F1C0410A6842F040020A60416BE3
:10060000D1E9002342EA03128B688C891B0243EA7A
:1006100004431A430B8A42EA03520B7D896942EA7A
:1006200003620A4301688900A1F1C0414A60C16ABE
:10063000B1F5804F08D000686FF070418000A0F1E4
:10064000C040C0F8041110BD816BD1E9002342EA1B
:1006500003128B680C8A1B0243EA04531A430B7D76
:10066000896942EA036200680A438000A0F1C04041
:10067000C0F8042110BD10B500210222C0E900120B
:100680008160C160016141618161D202C161C0E9E3
:1006900008125200C0E90A210163436B0F221A605D
:1006A000436B5A60446BFF23A360446BE260446B6E
:1006B0002261446B6261446BA161846B2260846B34
:1006C0006260846BA360836BDA60836B1A61836BF7
:1006D0005A61806B816110BD8000A0F1C04000298B
:1006E000016802D041F0010101E0C54A11400160FA
:1006F000704710B5182340244FF020414FF0FC32D2
:10070000102805D041F8803F4C608A60CA6010BD57
:100710000B664C668A66CA6610BD30B5D0E9011218
:100720001143D0E903231A431143426941EA4221AC
:10073000826941EA423141F00804C169D1E90023EC
:1007400042EA03220B89097B1B0443EA01610A4345
:10075000016AD1E9003543EA05230D89097B2D049F
:1007600045EA01610B4301684FF02040102904D095
:1007700040F8804F8260C36030BD04668266C36605
:1007800030BD10210160002141608160C1600161C4
:1007900041618161C269FC211160C2695160C26915
:1007A0009160C269D160026A1160026A5160026A96
:1007B0009160006AC16070474FF0204251B110282B
:1007C00004D052F8800F40F004000AE0106E40F0B0
:1007D00004000AE08A49C91E102804D052F8800F8C
:1007E000084010607047106E0840106670474FF068
:1007F000204251B1102804D052F8800F40F0400040
:100800000AE0106E40F040000AE07D493F391028B0
:1008100004D052F8800F084010607047106E0840F6
:10082000106670474FF02041102802D0D1F8940094
:100830007047486F70474FF02040182140F8A01FC4
:10084000002141604FF0FC318160C160016170475F
:1008500010B5D0E9001241EA42218268102343EA30
:10086000423211434FF0204242F8A01FC168D1E943
:10087000003443EA04230C89097B240444EA01611F
:100880000B4393600169D1E9003443EA04230C89E6
:10089000097B240444EA01610B43D3604069D0E939
:1008A000001341EA03210389007B1B0443EA006033
:1008B0000143116110BD0021016041608160C26887
:1008C000FC211160C2685160C2689160C268D16049
:1008D0000269116002695160026991600269D16028
:1008E0004269116042695160426991604069C1602A
:1008F00070474FF02041002851F8A00F02D040F07F
:10090000040002E03E4AD21E10400860704710B555
:100910004FF480744FF0204372B1102804D0A042ED
:1009200005D153F8840F04E0586E08430DE053F8E6
:10093000A40F0843186010BD102804D0A04206D1AF
:1009400053F8840F05E0586E8843586610BD53F87D
:10095000A40F8843EEE7034600204FF02042102BFF
:1009600008D0B3F5807F07D0D2F8A4200A4200D087
:1009700001207047526EF9E7D2F88420F6E74FF075
:100980002042102807D0B0F5807F08D052F8A40F7D
:10099000884310607047506E88435066704752F825
:1009A000840FF5E7034600204FF02042102B0CD0B7
:1009B000B3F5807F0BD0D2F8A4200A4202EAD1011D
:1009C00002D0002900D001207047526EF5E7D2F81E
:1009D0008420F2E74FF02042102808D0B0F5807F45
:1009E0000AD052F8A40F20EAD10010607047506E70
:1009F00020EAD1005066704752F8840FF3E70000F8
:100A0000FEFF0F00714910B5884206D1012108464A
:100A100000F042FA002101204FE06D49884206D1E2
:100A20000121022000F038FA0021022045E0694946
:100A3000884206D10121042000F02EFA0021042072
:100A40003BE06549884206D10121082000F024FAE4
:100A50000021082031E06149884206D1012110209F
:100A600000F01AFA0021102027E05D49884206D1E3
:100A70000121202000F010FA002120201DE059491A
:100A8000884206D10121402000F006FA00214020D2
:100A900013E05549884206D10121802000F0FCF97D
:100AA0000021802009E0514988420AD184150121A2
:100AB000204600F0F1F900212046BDE8104000F08A
:100AC000EBB910BDF0B5002201274FF0030C0B6805
:100AD00007FA02F52B40AB422CD1066853000CFA02
:100AE00003F4A64306600E79D0F800E09E4046EA83
:100AF0000E0606600E79012E01D0022E12D18668F4
:100B0000A64386604E79D0F808E09E4046EA0E067D
:100B100086604668AE43466045688E799640B6B2B8
:100B200035434560C568A543C560CC799C40C36822
:100B30001C43C460521C102AC9D3F0BD4FF6FF718C
:100B400001600021017141718171C171704708B567
:100B500041F480320092C261C1610099C161C169F2
:100B6000C069009008BD0246002012690A4200D008
:100B700001207047006980B2704702460020526928
:100B80000A4200D001207047406980B2704701835B
:100B90007047418370470AB10183704741837047B2
:100BA0004161704742694A40426170474B07DB0E22
:100BB0009A40C90810B500EB8100016A0F249C40DF
:100BC000A1430162016A1143016210BD00000240AD
:100BD0000004024000080240000C024000100240E5
:100BE0000014024000180240001C02400020024095
:100BF000EA48016841F001010160E84A0021083239
:100C000011600268E64B1A400260031DE54A1A6053
:100C1000026822F480220260E0480C3001607047D4
:100C2000DE490022891C0A700870704702460020C5
:100C3000510901290CD002290CD0D8497431096816
:100C400002F01F02012393400B4200D001207047A5
:100C5000D249F4E7D1497031F1E718B500204FF4DB
:100C6000A06400903120FFF7E1FF0099491C00913A
:100C7000A14201D00028F5D03120FFF7D7FF00288E
:100C800000D0012018BDC54A116821F0F80141EAE1
:100C9000C00010607047C44908607047BF49002217
:100CA00070310A700A70012802D0042801D1052091
:100CB00008707047BD490860704741EA82115A08C0
:100CC00010B5BB4B029C03EB02421143014341EAC6
:100CD0000460B249091D086010BDB3490866704739
:100CE000800140EA0170AD49843108607047AE4927
:100CF00088667047AC49C8647047A84B08331A68C7
:100D0000084322F0EC62104318607047A34B08338D
:100D10001A68084322F078421043186070479F4ACF
:100D20000832116821F003010143116070479B48AC
:100D30000830006800F00C007047984A08321168CB
:100D400021F0F001014311607047944A08321168A4
:100D500021F4E051014311607047904A0832116854
:100D600021F4604141EAC0001060704770B58B4BC0
:100D7000083319688F4C11F00C0104D06610042957
:100D800003D0082903D004601BE0066019E0834A01
:100D9000121D1168C1F38055116801F03F0115B1B2
:100DA000B6FBF1F101E0B4FBF1F114681268C4F391
:100DB00088146143C2F30142521C5200B1FBF2F1AC
:100DC000016019680F2202EA11117B4A545C016824
:100DD000E14041601C68072505EA9424145D21FA6E
:100DE00004F484601B6805EA5333D25CD140C160CF
:100DF00070BDC0F30121032908D1684B083319687D
:100E00006E4A21F4F81102400A431A6063497031B6
:100E10000A68C0F30B0002430A6070476349443913
:100E20000860704761494039086070475E49C1F801
:100E30005C017047594A30320029116801D00143E2
:100E400000E0814311607047544A34320029116830
:100E500001D0014300E08143116070474F4A3832AE
:100E60000029116801D0014300E0814311607047FF
:100E70004A4A40320029116801D0014300E0814311
:100E800011607047454A44320029116801D001437E
:100E900000E0814311607047404A10320029116818
:100EA00001D0014300E08143116070473B4A143296
:100EB0000029116801D0014300E0814311607047AF
:100EC000364A18320029116801D0014300E08143FD
:100ED00011607047314A20320029116801D0014366
:100EE00000E08143116070472C4A243200291168C8
:100EF00001D0014300E0814311607047274A50321E
:100F00000029116801D0014300E08143116070475E
:100F1000224A54320029116801D0014300E0814384
:100F2000116070471D4A58320029116801D00143F1
:100F300000E0814311607047184A6032002911684F
:100F400001D0014300E0814311607047134A6432CD
:100F50000029116801D0014300E08143116070470E
:100F60000E4A0D320029117801D0014300E081437F
:100F70001170704709487430016841F08071016058
:100F800070470146054A00200C3212680A4200D020
:100F90000120704701490E31087070470038024047
:100FA000FFFFF6FE1030002400004742800E47424B
:100FB0000000FFFF0024F40014000020FFFCFF0FDE
:100FC000B64910B588420AD1841401212046FFF7A2
:100FD0008BFF2046BDE810400021FFF785BFB049D8
:100FE000884202D10121041404E0AE4988420AD1AA
:100FF0000121C4132046FFF76DFF2046BDE81040D5
:101000000021FFF767BF10BD30B502884C8802F49D
:1010100041530A88CD8822438C882C4322430C8973
:1010200022434C8922438C892243CC8922431A4390
:101030000280828B22F400628283098A018230BDA1
:10104000F0B502220023858B01244FF24006354083
:1010500085830284858B8E68022E38D08A8802B1FF
:101060000224914A13681B0203D5136823F400037A
:1010700013608D4A7C3213681268C3F388138A4E5A
:10108000C2F30272361F3668884F06F03F06B7FB80
:10109000F6F65E43B6FBF2F2CB88B3F5007F2BD0B9
:1010A0006301B2FBF3F202EB82028B685200B2FBE7
:1010B000F3F2521D92B20A23B2FBF3F202F00103E3
:1010C000D21A4FF6FF74C2F34F0204EA0323941EB0
:1010D000FE2C01D302220023CC881A43144304843B
:1010E0000A884B881A438B8889890B431A432A4301
:1010F00042F400618183F0BD120AD4E7002101802F
:1011000041808180C180018141818181C18107212C
:10111000018270470021018041808180C1800222CC
:101120008260818170470029018802D041F040012E
:1011300001E021F04001018070470029818B02D03D
:1011400041F4806101E021F480618183704702886D
:1011500022F40062028002880A4302807047B1F5DF
:10116000804F018803D021F480410180704741F411
:101170008041FAE7A1F57E420188FF3A02D041F4AE
:10118000807101E021F4807101807047002981881D
:1011900002D041F0040101E021F004018180704798
:1011A0000029818802D041F0100101E021F01001F6
:1011B0008180704730B5828B00234FF2400422407B
:1011C000828302220284848B0A884FF48075B2F5F0
:1011D000007F00D002B92B464A888D8889892A432E
:1011E00019430A43224342F40061818330BD808960
:1011F0007047818170470029018802D041F4005175
:1012000001E021F4005101807047018841F48051D0
:1012100001807047012901D0008B7047808A704798
:10122000008A7047002A828801D00A4300E08A437E
:1012300082807047090901238B40002A828899B275
:1012400001D00A4300E08A438280704702460020B2
:1012500012890A4200D001207047C94301817047BA
:1012600030B501F00F030125024605FA03F4002012
:10127000A3B2090905FA01F49188A4B212892140A8
:101280001A4202D0002900D0012030BD01F00F0227
:1012900001219140C94301817047000000300140A5
:1012A00000380040003C00400838024000127A003C
:1012B00010B501218C032046FFF716FE2046BDE83D
:1012C00010400021FFF710BE13490860704710B5A9
:1012D0008A0721F003041149120F21440F23D1F88A
:1012E000084893409C43C1F80848D1F8083890401A
:1012F0000343C1F8083810BD0949C1F8DC00704744
:101300000849086070470449002020310968C90570
:1013100000D5012070470000003801400030014036
:101320000000274200042742C74910B5884206D171
:1013300001211020FFF7D8FD0021102028E0C3492B
:10134000884202D101214C0410E0C149884202D1F7
:1013500001218C040AE0BF49884202D10121CC045A
:1013600004E0BD4988420AD101210C052046FFF75F
:10137000B1FD2046BDE810400021FFF7ABBDB749E5
:10138000884209D101212020FFF7AEFD0021202055
:10139000BDE81040FFF7A8BD10BD7FB50446008A28
:1013A0000D46C98820F4405001432182A08941F2B2
:1013B0000C618843A9882A8911436A890243114331
:1013C000A181A08A20F44071A8890843A0826846C0
:1013D000FFF7CCFC9C48844202D0A048844201D153
:1013E000039800E00298A189090400EBC00101EB19
:1013F0000010296801D5490000E08900B0FBF1F038
:101400006422B0FBF2F109010B096FF018056B4380
:1014100000EB8300A3891D044FF0320306D503EBD4
:10142000C000B0FBF2F000F0070005E003EB001095
:10143000B0FBF2F000F00F00084320817FBD4FF4B5
:101440001651016000218180C18001810C224281FE
:101450008181704710B5028A4C8822F470630A8833
:1014600022438C88C9880C4322431A43028210BD50
:101470000021018041808180C180704700298189DD
:1014800002D041F4005101E021F400518181704704
:10149000028B02F47F420283028B0A43028370476D
:1014A0000029818902D041F4004101E0C1F30E011D
:1014B000818170470029818A02D041F4006101E0F6
:1014C00021F4006181827047C1F308018180704777
:1014D0008088C0F308007047028A22F00F0202825F
:1014E000028A0A43028270470029818902D041F0B2
:1014F000020101E021F0020181817047828922F41A
:101500000062828182890A4382817047028A22F0C6
:1015100020020282028A0A43028270470029018A5D
:1015200002D041F4804101E021F480410182704702
:10153000818941F00101818170470029818A02D0AF
:1015400041F0080101E021F0080181827047028B1F
:10155000D2B20283028B42EA012101837047002943
:10156000818A02D041F0200101E021F02001818236
:1015700070470029818A02D041F0100101E021F07A
:10158000100181827047828A22F004028282828A5C
:101590000A43828270470029818A02D041F0020109
:1015A00001E021F0020181827047002A828A01D085
:1015B0000A4300E08A438282704710B5C1F34213A8
:1015C00001F01F040121A140012B07D0022B07D0FD
:1015D0001430002A026805D00A4304E00C30F8E712
:1015E0001030F6E78A43026010BD024600201288E0
:1015F0000A4200D001207047C9430180704770B58E
:1016000001F01F0501260024C1F3421306FA05F27A
:10161000012B0FD0022B0FD0838A4FEA11210088B3
:10162000134206FA01F600EA060001D000B10124D7
:10163000204670BD8389F0E7038AEEE70A0A01219C
:101640009140C943018070470010014000440040B0
:1016500000480040004C0040005000400014014091
:101660002DE9F041054643F2080092B01E4690462F
:101670000F46002400EB451001F03FFD00287DD00F
:1016800013287CD04FF40067172802D01C2877D18C
:101690008BE042F2080000EB451001F02EFDC00780
:1016A0002CD0172E3AD0FB48042200EB45100DA990
:1016B00001F083FD9DF8370000909DF836309DF8CD
:1016C00035209DF83410F4A002F07CFDFA4800EBC0
:1016D000451001F012FD0646F84800EB451001F0F8
:1016E0000CFD06EB002081B2F5A002F06BFD42F686
:1016F000080000EB4510012101F0D2FC284601F062
:1017000096FE02003CD0BA4200D93A4641462846ED
:1017100001F045F8002865DD87B243E0ED4810226E
:1017200000EB45100DA901F048FD9DF8400009AE01
:101730009DF843309DF842209DF8411086E80F0047
:101740009DF83C0005AE9DF83F309DF83E209DF889
:101750003D1086E80F009DF8380001AE9DF83B3043
:101760009DF83A209DF8391086E80F009DF8370063
:1017700000909DF836309DF8352002E04EE042E0C2
:1017800067E09DF83410D44802F01CFD9EE7381B3A
:1017900082B208EB0401284600F05FFF06001DD46A
:1017A000204484B2A742F2D153E0284601F03FFE24
:1017B00002001ED0BA4200D93A464146284600F0FF
:1017C000EEFF00280EDD87B211E0381B82B208EB75
:1017D0000401284600F041FF060006D5284600F027
:1017E00055FD304612B0BDE8F081204484B2A742D6
:1017F000EBD1284600F0EDFE0128F3D12946B7A031
:1018000002F0E0FC25E03A462946B9A002F0DAFCF5
:10181000284600F0F1FD0128E4D11AE0172E12D07D
:101820000B2E4FF000033A4611D00121284600F05C
:1018300060FDC0B2A8420CD02946B8A002F0C2FC9C
:101840004FF0FF30CEE700233A460921EEE70D21A5
:10185000ECE70120C6E72DE9FE43064643F2080007
:101860001F4615468846002400EB4610DDF82890F8
:1018700001F043FC00287DD013286BD04FF40069A1
:10188000172802D01C2837D137E042F2080000EBBD
:10189000461001F032FCC00711D0E878A978CDE9F4
:1018A000001002976B782A783146A4A002F08AFCD7
:1018B00042F6080000EB4610012101F0F1FB304632
:1018C00001F0B5FD02007ED04A4500D94A464146A6
:1018D000304600F064FF00282CDD87B20AE0381B98
:1018E00082B208EB0401304600F0B7FE05001DD4BB
:1018F000204484B2A742F2D165E0304601F097FD62
:1019000002001DD04A4500D94A464146304600F003
:1019100046FF00280EDD87B210E0381B82B208EBCC
:101920000401304600F099FE050005D5304600F070
:10193000ADFC2846BDE8FE83204484B2A742ECD12A
:10194000304600F046FE0128F4D1314663A002F093
:1019500039FC38E0E878A978CDE9001002976B7877
:101960002A7831467FA002F02DFC04233A4629460E
:10197000304600E004E000F07BFD0128DAD122E0EF
:101980008348B9F1170F16D00288B9F10B0F02F195
:10199000010101804FF0000313D00121304600F017
:1019A000A8FCC0B2B0420ED031465CA002F00AFCE6
:1019B0004FF0FF30BEE702880023511C018009214F
:1019C000ECE70D21EAE70120B4E72DE9F0410746F5
:1019D00043F2080088B01C461546884600EB4710C5
:1019E00001F08BFB00283DD022283AD1384601F087
:1019F0001EFD020035D04FF40060824200D902463D
:101A000007A906A8CDE9000102AB4146384601F01E
:101A100038F8041E07DC024639465EA002F0D2FB0D
:101A2000204608B0DFE686B2002418E09DF81C10BE
:101A3000BDF81800CDE90001301B82B208EB0401AB
:101A400002AB384600F017FF050006D502463946BE
:101A500057A002F0B7FB2846E3E7204484B2B44223
:101A6000E4D1C6E0172C12D00B2C4FF000032A460D
:101A70000ED00221384600F03CFCC4B2BC4208D073
:101A8000394626A002F09EFB4FF0FF30C9E79BE0ED
:101A9000A8E0A9E0082001005065657220495020A7
:101AA0003A20252E33642E252E33642E252E3364C2
:101AB0002E252E33640D0A00084101000840010064
:101AC0005065657220506F7274203A2025640D0AAB
:101AD0000000000008300100C445000825643A53A6
:101AE0006F636B657420436C6F7365640D0A00004F
:101AF00025643A4C697374656E2C205443502073EE
:101B00006572766572206C6F6F706261636B2C20FA
:101B1000706F7274205B25645D0D0A002564203AA5
:101B2000204661696C20746F206372656174652062
:101B3000736F636B65742E0D0A00000025643A43D1
:101B40006F6E6E656374656420746F202D2025644C
:101B50002E25642E25642E2564203A2025640D0A46
:101B60000000000025643A54727920746F20636F7E
:101B70006E6E65637420746F207468652025642E12
:101B800025642E25642E2564203A2025640D0A0044
:101B90002400002025643A207265637666726F6DBA
:101BA000206572726F722E2025640D0A00000000FD
:101BB00025643A2073656E64746F206572726F726B
:101BC0002E2025640D0A000041F2883500232A46A4
:101BD0000A21384600F08DFBC4B2294606A002F067
:101BE000F1FA4BE70E2145E72A46394605A002F0F7
:101BF000E9FA012015E70000706F72743A25640D50
:101C00000A00000025643A4F70656E65642C20550B
:101C10004450206C6F6F706261636B2C20706F7228
:101C200074205B25645D0D0A00000000704770475A
:101C30007047704700787047017070470020704708
:101C4000704770477047F84A18B111B1C2E90201F4
:101C50007047AFF227009060AFF22D00D060704760
:101C6000F14A18B111B1C2E904017047AFF23F0067
:101C70001061AFF241005061704710B5EA4C228804
:101C8000D305FDD518B111B1C4E9060110BDAFF2FD
:101C90005B00A061AFF25F00E06110BD10B5E24CE7
:101CA00022889305FDD518B111B1C4E9060110BD14
:101CB000AFF27700A061AFF27700E06110BD10B520
:101CC000D94C22889305FDD518B111B1C4E908019A
:101CD00010BDAFF291002062AFF29700606210BDBC
:101CE00010B500244FF4401001F007FAC00700D0EF
:101CF0000124204610BD10B50446002001F022FB4F
:101D0000012C0FD020F40061002001F002FB002024
:101D100001F018FB012C4FEA005006D0002806DB2A
:101D2000002010BD40F40061EEE70028F8DB4FF022
:101D3000FF3010BD10B50446002001F003FB012167
:101D40002170C20401D5617010BD00226270C3050C
:101D500001D5E17000E0E270800401D5A17010BDF2
:101D6000A27010BD10B50446002001F0EBFA6178B6
:101D7000012910D0E17820F4805001290ED020F400
:101D80008071A07801280CD021F40051BDE81040EA
:101D9000002001F0BEBA40F48051F7E740F48071B2
:101DA000EFE741F40051F1E710B5002001F0CAFA65
:101DB00040F40041002001F0ACFA002001F0C2FA2A
:101DC0000004FAD410BD10B5984801F096F9044605
:101DD000974801F092F904EB002080B210BD10B5D5
:101DE000C1B2040A914801F05BF92146BDE81040F8
:101DF0008F4801F055B910B54FF4041001F07DF98A
:101E000004468C4801F079F904EB002080B210BD43
:101E10002DE9F041C1B2050A874801F041F90024DB
:101E2000012642F6080706FA04F0284204D007EB20
:101E300044100F2101F034F9641C082CF3DBBDE8D9
:101E4000F0812DE9F04F7D4C95B0062210A9204677
:101E500001F0B3F97A4D042212A9284601F0ADF938
:101E6000784E042213A9304601F0A7F9764F0422D8
:101E700014A9384601F0A1F9DFF8D0811022694693
:101E8000404601F09AF9DFF8C891102204A94846AB
:101E900001F093F9DFF8BCA1102208A9504601F027
:101EA0008CF9DFF8B4B110220CA9584601F085F97D
:101EB00000216A4801F0F4F8684801F01EF9062292
:101EC00010A9204601F043F9042212A9284601F086
:101ED0003EF9042213A9304601F039F9042214A96D
:101EE000384601F034F910226946404601F02FF9D6
:101EF000102204A9484601F02AF9102208A95046E8
:101F000001F025F910220CA9584601F020F915B06E
:101F1000BDE8F08F2DE9F0410E4605460024FFF79D
:101F200090FF4FF0FF38A5B10022A85C204444B2D6
:101F3000102C16DC521C52B2082AF6DB484F002443
:101F400007EB4410295D01F0ABF8641C64B2082C67
:101F5000F6DBBEB100210846325C114449B21029BB
:101F600001DD40466BE7401C40B20828F4DB3D4EE3
:101F7000002406EB4410295D01F092F8641C64B261
:101F8000082CF6DB00205AE72DE9F0410C46002131
:101F9000354D364E4F1E0A46102844D2DFE800F079
:101FA000080B17131A1E222C36686B6F7E7380770E
:101FB000FFF747FF72E014B1224604F10801BDE8C3
:101FC000F0411046A6E72088FFF722FF66E0FFF702
:101FD00012FF05E02088FFF702FF5FE0FFF7F3FE46
:101FE00020805BE02088010A284601F059F821781A
:101FF000304601F055F851E0304601F07EF80646D3
:10200000284601F07AF806EB0020E9E706488278D6
:102010002270C27862700279A2704279E27080798F
:10202000207161713AE03BE03000002000042100A3
:1020300000142100000121000008210000204100BF
:102040000030410000344100003841000070410080
:1020500000604100004041000050410000042000A9
:10206000080002000820020000C5410000C641002F
:10207000FFF79AFE12E02046FFF774FE0EE02046BE
:10208000FFF758FE0AE02078BDE8F04133E6FFF79D
:1020900027FEC0B241B2491C02D020700020CEE61B
:1020A0003846CCE670B504466C4801F026F820703E
:1020B0006B4801F022F805464FF4840001F01DF84A
:1020C00005EB0020608070BD10B5044601786348C0
:1020D00000F0E6FF6088010A4FF4840000F0E0FFA2
:1020E000A178BDE810405E4800F0DABF5D4801F01D
:1020F00004B870B5044630F0040002D04FF0FF3051
:1021000070BD584D284600F0F8FF40EA040128460B
:1021100000F0C6FF002070BD10B50446014606223F
:10212000514801F04AF8042204F10E014F4801F031
:1021300044F8042204F10A014D4801F03EF804225B
:10214000A11D4C4801F039F8102204F147014A481A
:1021500001F033F8102204F13701484801F02DF85E
:10216000102204F11701464801F027F8102204F16B
:102170002701444801F021F843480178A1744178CF
:10218000E17481782175C07860753F48401E007801
:10219000A07510BD10B5044601460622324800F075
:1021A000D6FF042204F10E01304800F0D0FF0422D3
:1021B00004F10A012E4800F0CAFF0422A11D2D4897
:1021C00000F0C5FF102204F147012B4800F0BFFFCB
:1021D000102204F13701294800F0B9FF102204F160
:1021E0001701274800F0B3FF102204F1270125480A
:1021F00000F0ADFF2448A17C0170E17C4170217D9D
:102200008170617DC1702049A07D491E087010BD9C
:1022100010B50C4606281DD2DFE800F003070B0FAF
:1022200013172046FFF7B6FF12E02046FFF774FFB2
:102230000EE02078BDE810405BE7FFF757FF207005
:1022400006E02046FFF740FF02E02046FFF72AFFA6
:10225000002010BD4FF0FF3010BD00000004420010
:102260000001420000084000002041000030410011
:10227000003441000038410000704100006041001E
:1022800000404100005041002900002070B5044684
:10229000082802D34FF0FF3070BD41F2080000EB78
:1022A00044151021284600F0FBFE284600F025FFCB
:1022B0000028FAD142F6080000EB4410FF2100F09C
:1022C000EFFEFB480121A14042888A43F949428040
:1022D000002021F81400F649091D085543F20800B2
:1022E00000EB4414204600F008FF0028FAD101203A
:1022F00070BD2DE9F8431D4616460F4604460828D2
:1023000003D34FF0FF30BDE8F88307F00F000F282C
:102310001DD2DFE800F01C080F0F1C1C1C0F1C0F47
:102320000F0F1C0F0F0004226946E34800F045FF21
:10233000009848B129076FF00500E4D185B1012F5D
:1023400008D0022F0CD108E06FF00200DBE76FF03D
:102350000400D8E705F0610100E069090029D2D046
:102360002046FFF793FF60014FF0010847EA05019F
:10237000083000F095FECE4F56B93E88701C80B2F2
:10238000A0F57F413880F03902D14FF48060388069
:10239000CA48310A00EB441000F082FEC848F1B28E
:1023A00000EB441000F07CFE41F2080000EB441604
:1023B0000121304600F074FE304600F09EFE0028F9
:1023C000FAD1788808FA04F1884305F00101A140A8
:1023D00001437980B749002021F81400B449091D50
:1023E000085543F2080000EB4415284600F085FE2E
:1023F0000028FAD060B286E770B50446082802D3F8
:102400004FF0FF3070BD6001083000F076FE00F044
:102410000F00012806D0092804D00D2802D06FF043
:10242000040070BD43F2080000EB4416304600F093
:1024300064FE132802D06FF0020070BD41F2080064
:1024400000EB44150221284600F02AFE284600F041
:1024500054FE0028FAD1304600F04FFE142805D073
:102460002046FFF713FF6FF0030070BD012070BD21
:102470002DE9F0471E4691460D460446082803D331
:102480004FF0FF30BDE8F0876001083000F035FE06
:1024900000F00F00012806D0092804D00D2802D032
:1024A0006FF00400EEE743F2080000EB44173846F3
:1024B00000F023FE132802D06FF00200E2E76FF075
:1024C0000B08102E02D0042E14D053E00020295CFB
:1024D000FF2905D10F284DD0401CC0B21028F6D3DB
:1024E0000020295CC9B90F2844D0401CC0B2102874
:1024F000F7D312E00020295CFF2905D1032839D049
:10250000401CC0B20428F6D30020295C29B9032856
:1025100030D0401CC0B20428F7D3B9F1000F04D06A
:10252000102E05D0042E08D024E06FF00A00A9E791
:102530006448102200EB441003E06348042200EBDF
:102540004410294600F003FE60484FEA192100EBD1
:10255000441000F0A5FD5E4809F0FF0100EB4410B7
:1025600000F09EFD41F2080000EB4415102E03D050
:10257000042E04D0404685E72846842101E0284601
:10258000042100F08DFD284600F0B7FD0028FAD1A7
:1025900042F2080000EB4415384600F0AEFD172863
:1025A00015D0284600F0A9FD000709D542F608001D
:1025B00000EB4410082100F073FD6FF00C0061E7A0
:1025C000384600F09AFD0028E6D1001F5AE70120A6
:1025D00058E770B50446082802D34FF0FF3070BDAD
:1025E00060010126083000F088FD00F00F0001288E
:1025F00005D0092803D00D2801D0B01F70BD41F2CD
:10260000080000EB44150821284600F049FD284643
:1026100000F073FD0028FAD12548A6404088064204
:102620000CD0002070BD284600F067FD00070DD5D6
:102630002046FFF72BFE6FF00C0070BD42F2080041
:1026400000EB441543F2080000EB4416304600F05E
:1026500054FD0028E7D1012070BD2DE9F74F154644
:102660000446082803D34FF0FF30BDE8FE8F600119
:102670004FF0010A083000F040FD00F00F00012883
:1026800006D0092804D00D2802D06FF00400ECE732
:1026900043F2080000EB4416304600F02EFD6FF0C8
:1026A000060B172816D01C2814D05846DDE700006A
:1026B00058000020D8000020003841000814010014
:1026C0000815010008300100082001000840010041
:1026D00008410100FA4800EB441000F00EFD4FF6EF
:1026E000FF7101EA8020854200D90546F54800EBDC
:1026F0004419F54800EB4418484600F0FEFC074634
:10270000404600F0FAFC07EB002087B2304600F0AC
:10271000F4FC172805D01C2803D02046FFF7B6FD8F
:10272000C3E7EA490AFA04F04988084203D0BD42E7
:1027300001D9002099E7BD42DED82A4620460199FA
:1027400000F073FD41F2080000EB441720213846E9
:1027500000F0A6FC384600F0D0FC0028FAD142F286
:10276000080000EB4417384600F0C7FCC0060DD443
:10277000304600F0C2FC1728F5D01C28F3D0D4A0B6
:1027800001F020FD2046FFF781FDD2E742F6080068
:1027900000EB4410102100F083FC284665E72DE98A
:1027A000F74F14460546082802D34FF0FF305CE788
:1027B00068010127083000F0A0FC00F00F0001289C
:1027C00005D0092803D00D2801D0B81F4DE7FCB172
:1027D000C44800EB451000F090FC4FF6FF7101EA91
:1027E0008026A64200D2344643F2080000EB451B87
:1027F000B44807FA05F800EB451AB34800EB451951
:10280000584600F07AFC172817D01C2803D00EE099
:102810006FF00D0029E7D4B9504600F06EFC074672
:10282000484600F06AFC07EB0020B04205D128467C
:10283000FFF72CFD6FF0060017E7A449498818EA56
:10284000010F02D01CB900200FE7002CD8D022467F
:102850002846019900F012FD41F2080000EB4515F1
:102860004021284600F01CFC284600F046FC0028C9
:10287000FAD12046F9E62DE9FF4F81B09846DDE90F
:102880000EA716460446082804D34FF0FF3005B0C3
:10289000BDE8F08F102F00D196B1600108304FF0E5
:1028A0000109009000F029FC00F00F000A2811D067
:1028B00009DC02280ED003280CD0072807D109E034
:1028C0006FF00D00E3E70B2804D00E2802D06FF064
:1028D0000400DCE7102F4FF000050FD118F80500B9
:1028E000D8B90F2D05D1009800F007FCC043400770
:1028F00039D16D1CEDB2102DF0D30EE018F80500A3
:1029000058B9032D05D1009800F0F7FBC0434007EC
:1029100029D16D1CEDB2042DF0D34D46009800F086
:10292000ECFBBAF1000F08D10B2806D0032804D025
:10293000072802D06FF00A00A9E743F2080000EB75
:102940004410814600F0D9FB422808D0222806D046
:10295000322804D0332802D06FF0060097E7102FFA
:1029600002D0042F05D07DE05F48102200EB441018
:1029700003E05E48042200EB4410414600F0E7FB10
:102980005B484FEA1A2100EB441000F089FB5948DC
:102990000AF0FF0100EB441000F082FB484800EB16
:1029A000441000F0AAFB4FF6FF7101EA8020864236
:1029B00000D90646434805FA04F800EB441B424898
:1029C00000EB441A584600F098FB0546504600F0CC
:1029D00094FB05EB002085B2484600F08EFB40B129
:1029E0003A49498818EA010F06D0AE4204D90020BE
:1029F0004DE76FF003004AE7AE42E3D83246204687
:102A0000029900F012FC41F2080000EB4415102F6F
:102A100002D0042F0AD025E0009800F06EFB00F0F1
:102A20000F0002281ED02846A02101E028462021C0
:102A300000F036FB42F6080000EB4417284600F091
:102A40005CFB0028FAD142F2080000EB4414204657
:102A500000F053FBC10608D53846102100F020FBDA
:102A6000304614E76FF00B0011E70007EFD538464A
:102A7000082100F015FB20A001F0A4FB6FF00C0072
:102A800005E72DE9FF4F002683B0174605460828C5
:102A900002D3701E07B0FBE668010124083000F085
:102AA0002CFB824600F00F0083460A2832D029DC36
:102AB00002282FD003282DD0BBF1070F27D129E002
:102AC0000800020008050200080402005800002067
:102AD00053454E445F4F4B2050726F626C656D21C1
:102AE000210D0A0008200200083001000820010022
:102AF000084001000841010074696D65206F75741C
:102B00000D0A00000B2805D0BBF10E0F02D06FF0AC
:102B10000400BFE72FB1DFF8FC8338F8150018B1C7
:102B200019E06FF00D00B5E743F2080000EB45191E
:102B3000AC403E46484600F0E0FA28B1F6484088EE
:102B4000044206D01EB106E06FF00300A2E70020A9
:102B5000A0E7002EEDD05846DFF8BC9341F2080103
:102B60004FF0800B09F1040901EB45140A2827D026
:102B700006DC022824D0032872D0072804D179E08B
:102B80000B286DD00E281BD03946284600F0A3FB39
:102B900028F815702046402100F082FA204600F007
:102BA000ACFA0028FAD138F81500801B0004000C9C
:102BB00028F815007DD019F8051041F00101E7E073
:102BC00038F81500F0BB02226946284600F056FB93
:102BD0009DF80000C60901D0102100E004211198E1
:102BE00001709DF8000000F007008DF800009DF8CE
:102BF000011001EB002A2046402100F051FA204646
:102C000000F07BFA0028FAD10EB1102200E0042275
:102C10002846069900F032FB2046402100F040FA99
:102C2000204600F06AFA0028FAD1022202A92846BA
:102C300000F024FB9DF809009DF8081000EB01202E
:102C4000109900E00DE008802046402100F028FAAD
:102C5000204600F052FA0028FAD128F815A093E097
:102C60003AE038F8156033E032462846049900F01F
:102C700005FB8FE738F81500464638BB0222694647
:102C8000284600F0FBFA2046402100F009FA2046D1
:102C900000F033FA0028FAD19DF800009DF80110E9
:102CA0006FF0010202EB0020084480B226F8150004
:102CB00000E06CE040F2EA51884205D92846FFF76F
:102CC000E5FA6FF47A70E5E609F805B036F81560B4
:102CD000BE42C9D93E46C7E738F815000028C0D122
:102CE000BAF1030F04D0BAF10B0F25D0C01FD1E603
:102CF00002226946284600F0C1FA9DF801009DF8BD
:102D0000001000EB012086B22046402100F0C8F9F7
:102D1000204600F0F2F90028FAD10422284606994C
:102D200000F0ACFA2046402100F0BAF9204600F04D
:102D3000E4F90028FAD125E002226946284600F08D
:102D40009DFA9DF8000000F007008DF800009DF846
:102D5000011001EB00262046402100F0A1F9204699
:102D600000F0CBF90028FAD110222846069900F08D
:102D700085FA2046402100F093F9204600F0BDF985
:102D80000028FAD128F8156009F805B069E7002194
:102D900009F8051030467DE670B51446082802D3C0
:102DA0004FF0FF3070BD5C4D6FF0090606296A8850
:102DB00031D2DFE801F0031014161D27237801211A
:102DC0008140012B01D01BB125E01143698020E037
:102DD0008A436A801DE0C24002F0010018E04F49BA
:102DE00000E04F4901EB401000F087F9208010E02F
:102DF00021781F290FD842F6080202EB401000F09C
:102E00004FF906E042F2080101EB401000F075F9BD
:102E10002070012070BD304670BD2DE9F04115468F
:102E20000446082803D34FF0FF30BDE8F0813D4A47
:102E3000600102EB44173C4A08306FF0040802EBD3
:102E40004416082965D2DFE801F09204070E182025
:102E50002A7F2978354801E02978354800EB44106D
:102E600000F01EF953E02888010A324800EB4410B4
:102E700000F016F929783048F0E73048042200EBDA
:102E80004410294600F063F941E02888010A2C48E3
:102E900000EB441000F004F929782A48DEE700F03E
:102EA0002CF900F00F00012803D0092801D00D28CB
:102EB00054D1384600F021F90546304600F01DF99E
:102EC00015EB002002D06FF00100AEE741F20800E0
:102ED00000EB44162221304600F0E2F842F20800EE
:102EE00000EB44150EE0284600F007F9000709D56D
:102EF00042F6080000EB4410082100F0D1F86FF012
:102F00000C0092E7304600F0F8F80028EBD10120E1
:102F10008BE72CE0D80000205800002008000200B9
:102F20000820020008890100088801000808010043
:102F30000804010008100100081101000820010028
:102F4000084001000841010000F0D7F800F00F0030
:102F5000012805D0092803D00D2801D0404664E798
:102F60003046002100F09CF82978384678E76FF069
:102F700009005AE770B515460446082802D34FF0F9
:102F8000FF3070BD600108306FF004060D2969D272
:102F9000DFE801F0070C10121A22682A424A4E5547
:102FA0005F0000F0AAF800F0F00001E02F4841E0D7
:102FB00028704CE02E483DE02E4800EB441000F015
:102FC0009CF806462C4820E02C48042200EB4410D4
:102FD000294600F0F2F83AE0294800EB441000F0EE
:102FE0008CF80646274810E000F087F800F00F0044
:102FF000012803D0092801D00D2831D1224800EB47
:10300000441000F07AF80646204800EB441000F027
:1030100074F806EB002019E01D4800EB441000F0A6
:103020006CF806461B48F0E7204600F000FA0DE079
:1030300043F2080000EB441000F05FF8B8E700F03E
:103040005CF80128F0D0144830F8140028800120E2
:1030500070BD00F052F8012802D01048005DA7E7CB
:10306000304670BD6FF0010070BD0000080801001F
:1030700008040100081101000810010008200100E7
:10308000084101000840010008890100088801008A
:103090000805020008040200D80000205C0000209F
:1030A000F8B5F74D04460E46A86880472869804762
:1030B0006A6A44F004048AB1200C8DF80000200AEA
:1030C0008DF801008DF802408DF8036004216846F8
:1030D000904768698047E8688047F8BDE969C4F3AC
:1030E00007408847E969C4F307208847E969E0B2E7
:1030F0008847E96930468847EBE7F8B5E04E044673
:10310000B068804730698047316AC4F30740C4F330
:10311000072599B1726A8AB18DF800008DF80150C7
:103120008DF80240032168469047B0698047716975
:1031300004468847F16888472046F8BDF16988470A
:10314000F16928468847F169E0B28847EDE7F8B5AC
:10315000CB4D04461646A8680F468047286980472D
:103160006A6A44F004049AB1200C8DF80000200A29
:103170008DF801008DF802400321684690476A6A85
:1031800031463846904768698047E8688047F8BD0F
:10319000E969C4F307408847E969C4F30720884711
:1031A000E969E0B28847002404E0E969385D8847AE
:1031B000641CA4B2B442F8D3E5E72DE9F843B04E5D
:1031C00004461746B0688846804730698047316AB0
:1031D000C4F30740C4F30725A1B1726A92B18DF818
:1031E00000008DF801508DF8024003216846904799
:1031F000326A39464046904770698047F068804798
:10320000BDE8F883F1698847F16928468847F16984
:10321000E0B28847002405E0B069804708F8040060
:10322000641CA4B2BC42F7D3E6E72DE9F04704469C
:103230009448904600EB441789463846FFF75DFFF7
:103240000546914800EB44163046FFF756FF05EB64
:10325000002085B2280200EB441042464946103057
:10326000FFF775FF05EB080084B2210A3046FFF72F
:1032700017FFE1B23846BDE8F04711E72DE9F04706
:103280005FEA02088946044623D0804800EB4417D1
:103290003846FFF732FF05467D4800EB44163046BE
:1032A000FFF72BFF05EB002085B2280200EB44104E
:1032B000424649461830FFF780FF05EB080084B20C
:1032C000210A3046FFF7ECFEE1B23846BDE8F04790
:1032D000E6E6BDE8F0872DE9F04105466B480F466C
:1032E00000EB45163046FFF708FF0446684800EB40
:1032F00045152846FFF701FF04EB0020384484B24F
:10330000210A2846FFF7CCFEE1B23046BDE8F04185
:10331000C6E610B50C4601465E48FFF7C1FE210A1D
:103320005D48FFF7BDFEE1B25C48FFF7B9FE5C4CBB
:1033300001212046FFF7B4FE2046FFF7DEFE0028FD
:10334000FAD110BD10B501465248FFF7A9FE544C02
:1033500002212046FFF7A4FE2046FFF7CEFE0028FC
:10336000FAD15048FFF7C9FE04464F48FFF7C5FEA3
:1033700044EA002010BD10B5044643F2080000EBFB
:103380004410FFF7BAFE172801D048A00AE043F224
:10339000081000EB4410FFF7B0FE400701D54AA02B
:1033A00000E050A0BDE8104000F00CBF70B504462E
:1033B00043F208000D4600EB4410FFF79EFE17286D
:1033C00002D06FF0060070BD43F2081000EB44100D
:1033D000FFF793FE400704D54948102200EB441044
:1033E00003E04848042200EB44102946FFF7E5FEBD
:1033F000002070BD2DE9F04706460024DFF8089153
:10340000424FDFF80C810FE0FF214846FFF748FEEE
:103410003846FFF772FE05464046FFF76EFE05EBA5
:1034200000200A28F4D3641CB442EDD351E77CB5E4
:1034300000263849009601EB4015019628460222E5
:1034400001A9FFF7BAFE9DF805009DF8041000EBF6
:1034500001200404240C0BD0284602226946FFF701
:10346000ACFE9DF801009DF8001000EB012086B233
:10347000A642E3D130467CBD01460422264866E6DA
:1034800030000020080D0200080C0200082902008C
:103490000828020000083000000D3000000C300049
:1034A000001430000010300000113000736F636BA7
:1034B00065742069736E60742065737461626C69F1
:1034C000736865640D0A00004950763620636C69A4
:1034D000656E7420697320636F6E6E6563746564D6
:1034E0000D0A00004950763420636C69656E7420C3
:1034F000697320636F6E6E65637465640D0A000006
:1035000008300100082001000020200000172000E2
:103510000016200008240200008C4100014604220D
:1035200005484AE6014610224FF483000FE60146A3
:1035300010224FF4830040E6008C41002DE9F04F4B
:10354000F249F34C91B000200A5C2254401CC0B2F6
:103550000628F9D3ED480C380178A1714178E17162
:1035600081782172C0786072E848001F0178A173E9
:103570004178E17381782174C0786074E348083839
:103580000178A1724178E17281782173C07860730B
:103590004FF44070FFF7B1FD05464FF4007630461A
:1035A000FFF7ABFD05EB00223146DAA000F00AFE82
:1035B0003A21DE48FFF774FDDD4F0622D449384634
:1035C000FFF7C5FDD249DB4D04220A312846FFF73B
:1035D000BEFDCF49D84E04220E313046FFF7B7FD6D
:1035E000DFF858830422A11D4046FFF7B0FDC7490C
:1035F000DFF84C931022891D4846FFF7A8FDC34908
:10360000DFF840A3102216315046FFF7A0FDBF4956
:1036100010222631CC48FFF79AFDBC49DFF82CB3C5
:10362000102236315846FFF792FDB84807210D3871
:103630000078A0754FF48400FFF732FDD021C44814
:10364000FFF72EFD0521C348FFF72AFD0721C248D9
:10365000FFF726FDD021C148FFF722FD0521C04814
:10366000FFF71EFDBFA000F0ADFDCAA000F0AAFD4F
:10367000D2A000F0A7FDDBA000F0A4FD06220DA95A
:103680003846FFF79AFD9DF837009DF839209DF8E0
:1036900038108DE807009DF836309DF835209DF8EC
:1036A0003410DBA000F08EFD04220DA94046FFF788
:1036B00084FD9DF8370000909DF836309DF8352048
:1036C0009DF83410DCA000F07DFD04220DA92846F1
:1036D000FFF773FD9DF8370000909DF836309DF898
:1036E00035209DF83410D9A000F06CFD04220DA9FE
:1036F0003046FFF762FD9DF8370000909DF83630A8
:103700009DF835209DF83410D5A000F05BFD102207
:103710000DA95846FFF751FD9DF8400009AD9DF8F1
:1037200043309DF842209DF8411085E80F009DF838
:103730003C0005AD9DF83F309DF83E209DF83D10C2
:1037400085E80F009DF8380001AD9DF83B309DF8ED
:103750003A209DF8391085E80F009DF83700009059
:103760009DF836309DF835209DF83410C24800F0A1
:1037700029FD10220DA94846FFF71FFD9DF84000C6
:1037800009AD9DF843309DF842209DF8411085E831
:103790000F009DF83C0005AD9DF83F309DF83E20A0
:1037A0009DF83D1085E80F009DF8380001AD9DF8AB
:1037B0003B309DF83A209DF8391085E80F009DF8C0
:1037C000370000909DF836309DF835209DF8341074
:1037D000AA4800F0F7FC10220DA95046FFF7EDFCB7
:1037E0009DF8400009AD9DF843309DF842209DF8BA
:1037F000411085E80F009DF83C0005AD9DF83F3075
:103800009DF83E209DF83D1085E80F009DF838009A
:1038100001AD9DF83B309DF83A209DF8391085E8C0
:103820000F009DF8370000909DF836309DF8352048
:103830009DF83410924800F0C5FC10220DA94248B2
:10384000FFF7BBFC9DF8400009AD9DF843309DF8A3
:1038500042209DF8411085E80F009DF83C0005AD21
:103860009DF83F309DF83E209DF83D1085E80F0003
:103870009DF8380001AD9DF83B309DF83A209DF849
:10388000391085E80F009DF8370000909DF836301C
:103890009DF835209DF834107A4800F093FC2348B9
:1038A000FFF72BFC014678A000F08CFC11B0BDE8BE
:1038B000F08F00F025FA00F017FC00F0F9FA4FF451
:1038C0007A7000F015FB75497548FEF7E7F9754900
:1038D0007548FEF7C5F975497548FEF7B4F900F06B
:1038E0002EFB00F0EDF83C2000F0E4F8FFF726FE98
:1038F0000648463000F068FB41F28834044A02234F
:10390000173221460020FDF7ABFEF7E771000020DB
:10391000E800002056455253494F4E28257829206B
:103920003D20252E3278200D0A00000000F54100D0
:1039300000204100003441000030410000384100C7
:103940000040410000504100006041000070410013
:103950000001420000044200000842000009420049
:10396000000C42000D0A2D2D2D2D2D2D2D2D2D2D30
:103970002D2D2D2D2D2D2D2D2D2D2D2D2D2D2D2D77
:103980002D2D2D2D2D2D2D2D2D2D2D2D2D2D2D2074
:103990000D0A000057363130304530312D4D34207E
:1039A0002020202020202020202020202020202017
:1039B0002020202020200D0A000000004E65747792
:1039C0006F726B20436F6E66696775726174696FA1
:1039D0006E20496E666F726D6174696F6E200D0A9C
:1039E000000000002D2D2D2D2D2D2D2D2D2D2D2DBB
:1039F0002D2D2D2D2D2D2D2D2D2D2D2D2D2D2D2DF7
:103A00002D2D2D2D2D2D2D2D2D2D2D2D2D2000004D
:103A10000D0A4D4143203A20252E32582E252E32B4
:103A2000582E252E32582E252E32582E252E32581D
:103A30002E252E32580000000D0A4950203A20252C
:103A4000642E25642E25642E256400000D0A534E35
:103A5000203A2025642E25642E25642E256400003E
:103A60000D0A4757203A2025642E25642E25642E02
:103A700025640D0A0000000018460008684600088A
:103A8000B8460008084700080D0A4E45544346470B
:103A90004C4F434B203A2025780D0A002540000862
:103AA000F73F0008754000086D4000089D40000881
:103AB00091400008F649486048680028FCD17047EA
:103AC0002DE9F04F99B03C20FFF7F4FFDFF8C4B3C5
:103AD0004FF480415846FDF750F801260024032595
:103AE000ED4F4FF002084FF080094FF4805A002844
:103AF00031467DD07820FDF79DF901210846FDF77C
:103B0000ADF90C2200213846FDF750F80C220121B6
:103B10003846FDF74BF80C2204213846FDF746F8ED
:103B20000C2205213846FDF741F80C220E213846BB
:103B3000FDF73CF80C220F213846FDF737F88DF8D9
:103B400060804CF233008DF8615017908DF8624020
:103B50008DF8636017A93846FCF7B4FFCF4E0C22EE
:103B600007213046FDF722F80C2208213046FDF7E8
:103B70001DF80C2209213046FDF718F80C220A2105
:103B80003046FDF713F84FF4F060179017A9304650
:103B9000FCF798FF0C2200215E465846FDF706F818
:103BA0000C2201213046FDF701F817A93046179580
:103BB000FCF788FF0C2204213846FCF7F7FF0C22A3
:103BC00005213846FCF7F2FF3020179017A9384638
:103BD000FCF778FF0C2207213846FCF7E7FF17A90E
:103BE0003846CDF85C90FCF76DFF0021084600E0F8
:103BF00026E0FCF771FD0520CDE901040A20CDE99E
:103C00000304099408940E944FF48040069407949A
:103C1000CDE912400B940C94CDE9104A05940A9416
:103C200001A80F94CDE9144016900D9408A8FCF754
:103C3000BEFC01210020FCF74FFD19B0BDE8F08F5C
:103C40002020FDF7F7F8DFF858B205220321584687
:103C5000FCF7ACFF052204215846FCF7A7FF05221C
:103C600011465846FCF7A2FF8DF8615038208DF8B8
:103C7000624017908DF863808DF8608017A95846D0
:103C8000FCF720FF01210820FDF7D4F88DF86150E2
:103C90008DF862408DF86360CDF85C908DF86060BF
:103CA00017A93846FCF70EFF80213846FCF76FFF56
:103CB00001215046FDF7E6F87A4D2846FDF780F9D8
:103CC000ADF848404FF48270ADF84A00ADF850406E
:103CD0006815ADF852001020ADF854000720ADF87B
:103CE0004C40ADF85800ADF84E40ADF8564012A922
:103CF0002846FDF789F901212846FDF714FA9CE7CB
:103D00002DE9FC5F01213E20FDF794F8012174208C
:103D1000FDF790F801258DF8045000248DF8064039
:103D20004FF00308DFF874914FF480468DF805805A
:103D300000968DF8075069464846FCF7C3FEEF032E
:103D4000694648460097FCF7BDFEDFF84CB14FF4DA
:103D5000007969465846CDF80090FCF7B3FE4FF461
:103D6000806A69465846CDF800A0FCF7ABFE009784
:103D70004B4F69463846FCF7A5FE69463846009623
:103D8000FCF7A0FE0227DFF820B18DF80470CDF813
:103D900000908DF8058069465846FCF793FE002296
:103DA00009215846FCF702FF00210846FCF7AEFF48
:103DB0008DF804408DF8058000968DF8074069461F
:103DC0005846FCF77FFE01210846FDF733F8012134
:103DD0000846FDF72FF801211020FDF753F8334E68
:103DE000072209213046FCF7E1FE07220A2130466E
:103DF000FCF7DCFE8DF804708DF806408DF8057038
:103E0000CDF800908DF8075069463046FCF75AFE11
:103E10008DF80650CDF800A08DF807406946304671
:103E2000FCF750FEBDE8FC9F30B585B001210420B1
:103E3000FDF700F801218D032846FDF723F8002443
:103E40008DF8104003958DF8134003A91648FCF730
:103E500039FE0E210220FDF73AFA8DF804400C20BD
:103E60008DF80500012400958DF806406846FCF7A2
:103E700025FB28208DF808000F208DF809008DF80B
:103E80000A008DF80B4002A8FCF7B7FA05B030BD68
:103E9000C800002000140240000C02400010024044
:103EA00000040240003001400008024000000240CF
:103EB00008B52D208DF8000000208DF801008DF848
:103EC000020001208DF803006846FCF796FA08BD51
:103ED00001B539480099416041680029FCD108BD0D
:103EE00035484168002902D04168491E4160704749
:103EF00032490968B1FBF0F0B0F1807F0ED220F0BA
:103F00007F414FF0E020491E41612D4AF02182F8A7
:103F1000141D00218161072101617047FEE72648D9
:103F20000068704724498868421C8A60B0F57A7F2F
:103F300004D9002088600868401C086070471CB5E0
:103F400001212020FCF776FF4FF4804000900120F3
:103F50008DF8040000208DF8060003208DF8050080
:103F60000220184C8DF8070069462046FCF7AAFD90
:103F70000099204689B2FCF70CFE1CBD1CB501213E
:103F80002020FCF757FF4FF48040009001208DF86F
:103F9000040000218DF8061003218DF80510094C4E
:103FA0008DF8070069462046FCF78CFD00992046F5
:103FB00089B2FCF7ECFD1CBDC80000200000002009
:103FC0000FE000E00014024008B502220146ADF8FF
:103FD00000200120FDF7D8FF401C02D132A000F0E4
:103FE000F1F869460420FDF7CFFF401C02D135A04F
:103FF00000F0E8F808BD10B5374C02212046FDF767
:1040000025F90028F9D0FF212046FDF7F2F801211B
:104010002046FDF71BF90028F9D02046FDF7E7F808
:10402000C0B210BD70B52C4C054602212046FDF7EC
:104030000DF90028F9D029462046FDF7DAF80121CC
:104040002046FDF703F90028F9D02046BDE870406E
:10405000FDF7CDB8030A002253709070D1707047FD
:10406000020A00214A708870C878704780211B4876
:10407000FCF78FBD80211948FCF789BD4FF48041C2
:104080001748FCF786BD4FF480411548FCF77FBD0B
:1040900014494FF48070C1F88001704711494FF402
:1040A0008070C1F800017047573631303020696E9A
:1040B000697469616C697A6564206661696C0D0A6E
:1040C00000000000573631303020696E746572721E
:1040D0007570740D0A00000000300140000C0240B1
:1040E0000014024004E000E01FB54FF4E1300090FE
:1040F0000020ADF80400ADF80600ADF80800ADF8FA
:104100000C000C201D4CADF80A0069462046FDF756
:1041100044F901212046FDF7B1F91FBD704770B584
:10412000164D0446C1B22846FDF7CEF94021284677
:10413000FDF75BFA0028F9D0204670BD10B50F4C92
:1041400020212046FDF751FA0028F9D02046FDF73E
:10415000BFF9C0B210BD70B50D46044608E0FFF7C8
:10416000EDFF0A2802D020700D2803D0641C6D1EBC
:10417000002DF4D100202070284670BD00100140B1
:104180007047FEE7FEE7FEE7FEE7704770477047BF
:1041900010B5FFF7A5FEBDE81040FFF7C3BE70B530
:1041A000074D40F2255421462846FDF728FA0028FD
:1041B00005D021462846BDE87040FDF73FBA70BDE6
:1041C000001001400FB4044910B503AA029800F092
:1041D00079F910BC5DF814FBD400002070B50446DA
:1041E00085690068C10601D5302600E02026C00799
:1041F00007D070BDD4E9012130469047206A401CA9
:1042000020626D1EF6D570BD70B5044685690078D4
:10421000C00707D170BDD4E9012120209047206A52
:10422000401C20626D1EF6D570BD00002DE9F041E6
:104230000646002410687529314616A510D0AFF344
:104240000080002802DA404213A507E031688A079F
:1042500001D512A502E0490704D511A5012401E00A
:10426000AFF3008000210A2206F1240709E0B0FB29
:10427000F2FCB0FBF2F302FB1C003030785418461D
:10428000491C0028F3D123462A463046BDE8F041B8
:1042900000F0BEB8000000002D0000002B00000060
:1042A0002000000070B504460D4621461068AFF3AB
:1042B00000802188090502D50F4A7A4402E00E4A9F
:1042C0007A440E32002104F1240305E000F00F06C9
:1042D0000009965D5E54491C0028F7D12078002320
:1042E000000704D5702D02D009B1022311322046F7
:1042F000BDE8704000F08CB8DE0200002DE9F04708
:104300004FF0000A89460446C0F820A02046E16824
:104310008847002876D0252806D0D4E90121904787
:10432000206A401C2062F1E7E168204600258847AA
:10433000C4F81CA006460027C4F818A02A2E09D0ED
:10434000304600F01FF938B304EB8708303EC8F858
:10435000186019E059F8041B204604EB87029161AC
:10436000E1688847012F064618D1E069002820DA65
:1043700025F020051DE0D8F8180000EB800006EBC2
:1043800040003038C8F818002046E16888470646E3
:1043900000F0F8F80028EED1012F0AD02E2E08D117
:1043A0002046E16888477F1C0646022F45F020051D
:1043B000C4DBA069002803DA404245F00105A06192
:1043C000E80701D025F01005B6B1A6F14100192883
:1043D00002D8203645F400654A463146204625601D
:1043E0004D46FBF70BFF58B1012806D0ED1D25F017
:1043F000070000F1080989E704E005F1040985E7F1
:1044000030468AE7206ABDE8F087704770477047FA
:104410002DE9F0470D4699469246044600F12408DE
:104420000168880604D5E06921F01001216000E0F0
:104430000120A84201DD471B00E00027A1697A198D
:1044400002EB0900081AA0612078C00602D42046B9
:10445000FFF7C4FE002608E0D4E901211AF806009F
:104460009047206A401C761C20624E45F4DB207881
:10447000C0060AD52046FFF7B1FE06E0D4E90121C7
:1044800030209047206A401C2062381EA7F10107A7
:10449000F4DC07E0D4E9012118F805009047206A10
:1044A000401C2062281EA5F10105F3DC2046FFF721
:1044B000ABFE2078000602D50220BDE8F08701207F
:1044C000FBE70000074B70B50D467B4400F011F888
:1044D0000446284600F020F810B14FF0FF3070BDC0
:1044E000204670BD51FCFFFF01694A1C026108783B
:1044F000704700B58FB0CDE9013100210591054924
:104500007944CDE9031011466846FFF7F7FE0FB076
:1045100000BD0000E5FFFFFF007B00F0800070475A
:10452000754600F02BF8AE4605006946534620F06C
:104530000700854618B020B5FBF748FFBDE82040CE
:104540004FF000064FF000074FF000084FF0000B4F
:1045500021F00701AC46ACE8C009ACE8C009ACE802
:10456000C009ACE8C0098D46704710B50446AFF3EA
:1045700000802046BDE81040FBF757BE004870475A
:104580000009002030380A2801D20120704700209D
:1045900070474FF04070E1EE100A7047303132330F
:1045A0003435363738394142434445464030580067
:1045B0003031323334353637383961626364656699
:1045C0004030780050656572204950203A20252EF1
:1045D0003258252E32583A252E3258252E32583A46
:1045E000253258252E32583A252E3258252E32584B
:1045F0003A252E3258252E32583A252E3258252E5D
:1046000032583A252E3258252E32583A252E325815
:10461000252E32580D0A00000D0A475736203A2041
:10462000252E3258252E32583A252E3258252E3234
:10463000583A252E3258252E32583A252E325825F2
:104640002E32583A252E3258252E32583A252E32FF
:1046500058252E32583A252E3258252E32583A25D2
:104660002E3258252E3258000D0A4C4C41203A204B
:10467000252E3258252E32583A252E3258252E32E4
:10468000583A252E3258252E32583A252E325825A2
:104690002E32583A252E3258252E32583A252E32AF
:1046A00058252E32583A252E3258252E32583A2582
:1046B0002E3258252E3258000D0A475541203A20F7
:1046C000252E3258252E32583A252E3258252E3294
:1046D000583A252E3258252E32583A252E32582552
:1046E0002E32583A252E3258252E32583A252E325F
:1046F00058252E32583A252E3258252E32583A2532
:104700002E3258252E3258000D0A36534D203A20AD
:10471000252E3258252E32583A252E3258252E3243
:10472000583A252E3258252E32583A252E32582501
:104730002E32583A252E3258252E32583A252E320E
:1047400058252E32583A252E3258252E32583A25E1
:104750002E3258252E3258007847000800000020DD
:10476000D8000000C401000850480008D80000200C
:10477000880E0000E0010008007A030A0000000033
:104780000000000001020304060708090000000001
:1047900001020304010203040607080950C30000D4
:1047A00000000000000000000002573631303000E9
:1047B0002D1C00082F1C0008311C0008331C0008A9
:1047C000351C0008391C0008000000000000000033
:1047D00000040000000000000000000000C0A84D20
:1047E00063FFFFFF00DE62ADFE0008DCFE5799FEAE
:1047F000800000000000000208DCFFFE5757572031
:104800000102B8001000010208DCFFFE575757FFF5
:10481000FFFFFFFFFFFFFF0000000000000000FEA1
:1048200080000000000000020087FFFE084C8102AB
:10483000020202020202020202020202020202005A
:104840000000000000000000000000000000000068
:040000050800018965
:00000001FF
